{
	"SpageroTokenVesting_flattened.sol": {
		"VestingWallet": {
			"abi": [
				{
					"inputs": [
						{
							"internalType": "address",
							"name": "beneficiary",
							"type": "address"
						},
						{
							"internalType": "uint64",
							"name": "startTimestamp",
							"type": "uint64"
						},
						{
							"internalType": "uint64",
							"name": "durationSeconds",
							"type": "uint64"
						}
					],
					"stateMutability": "payable",
					"type": "constructor"
				},
				{
					"inputs": [],
					"name": "FailedCall",
					"type": "error"
				},
				{
					"inputs": [
						{
							"internalType": "uint256",
							"name": "balance",
							"type": "uint256"
						},
						{
							"internalType": "uint256",
							"name": "needed",
							"type": "uint256"
						}
					],
					"name": "InsufficientBalance",
					"type": "error"
				},
				{
					"inputs": [
						{
							"internalType": "address",
							"name": "owner",
							"type": "address"
						}
					],
					"name": "OwnableInvalidOwner",
					"type": "error"
				},
				{
					"inputs": [
						{
							"internalType": "address",
							"name": "account",
							"type": "address"
						}
					],
					"name": "OwnableUnauthorizedAccount",
					"type": "error"
				},
				{
					"inputs": [
						{
							"internalType": "address",
							"name": "token",
							"type": "address"
						}
					],
					"name": "SafeERC20FailedOperation",
					"type": "error"
				},
				{
					"anonymous": false,
					"inputs": [
						{
							"indexed": true,
							"internalType": "address",
							"name": "token",
							"type": "address"
						},
						{
							"indexed": false,
							"internalType": "uint256",
							"name": "amount",
							"type": "uint256"
						}
					],
					"name": "ERC20Released",
					"type": "event"
				},
				{
					"anonymous": false,
					"inputs": [
						{
							"indexed": false,
							"internalType": "uint256",
							"name": "amount",
							"type": "uint256"
						}
					],
					"name": "EtherReleased",
					"type": "event"
				},
				{
					"anonymous": false,
					"inputs": [
						{
							"indexed": true,
							"internalType": "address",
							"name": "previousOwner",
							"type": "address"
						},
						{
							"indexed": true,
							"internalType": "address",
							"name": "newOwner",
							"type": "address"
						}
					],
					"name": "OwnershipTransferred",
					"type": "event"
				},
				{
					"inputs": [],
					"name": "duration",
					"outputs": [
						{
							"internalType": "uint256",
							"name": "",
							"type": "uint256"
						}
					],
					"stateMutability": "view",
					"type": "function"
				},
				{
					"inputs": [],
					"name": "end",
					"outputs": [
						{
							"internalType": "uint256",
							"name": "",
							"type": "uint256"
						}
					],
					"stateMutability": "view",
					"type": "function"
				},
				{
					"inputs": [],
					"name": "owner",
					"outputs": [
						{
							"internalType": "address",
							"name": "",
							"type": "address"
						}
					],
					"stateMutability": "view",
					"type": "function"
				},
				{
					"inputs": [
						{
							"internalType": "address",
							"name": "token",
							"type": "address"
						}
					],
					"name": "releasable",
					"outputs": [
						{
							"internalType": "uint256",
							"name": "",
							"type": "uint256"
						}
					],
					"stateMutability": "view",
					"type": "function"
				},
				{
					"inputs": [],
					"name": "releasable",
					"outputs": [
						{
							"internalType": "uint256",
							"name": "",
							"type": "uint256"
						}
					],
					"stateMutability": "view",
					"type": "function"
				},
				{
					"inputs": [
						{
							"internalType": "address",
							"name": "token",
							"type": "address"
						}
					],
					"name": "release",
					"outputs": [],
					"stateMutability": "nonpayable",
					"type": "function"
				},
				{
					"inputs": [],
					"name": "release",
					"outputs": [],
					"stateMutability": "nonpayable",
					"type": "function"
				},
				{
					"inputs": [],
					"name": "released",
					"outputs": [
						{
							"internalType": "uint256",
							"name": "",
							"type": "uint256"
						}
					],
					"stateMutability": "view",
					"type": "function"
				},
				{
					"inputs": [
						{
							"internalType": "address",
							"name": "token",
							"type": "address"
						}
					],
					"name": "released",
					"outputs": [
						{
							"internalType": "uint256",
							"name": "",
							"type": "uint256"
						}
					],
					"stateMutability": "view",
					"type": "function"
				},
				{
					"inputs": [],
					"name": "renounceOwnership",
					"outputs": [],
					"stateMutability": "nonpayable",
					"type": "function"
				},
				{
					"inputs": [],
					"name": "start",
					"outputs": [
						{
							"internalType": "uint256",
							"name": "",
							"type": "uint256"
						}
					],
					"stateMutability": "view",
					"type": "function"
				},
				{
					"inputs": [
						{
							"internalType": "address",
							"name": "newOwner",
							"type": "address"
						}
					],
					"name": "transferOwnership",
					"outputs": [],
					"stateMutability": "nonpayable",
					"type": "function"
				},
				{
					"inputs": [
						{
							"internalType": "uint64",
							"name": "timestamp",
							"type": "uint64"
						}
					],
					"name": "vestedAmount",
					"outputs": [
						{
							"internalType": "uint256",
							"name": "",
							"type": "uint256"
						}
					],
					"stateMutability": "view",
					"type": "function"
				},
				{
					"inputs": [
						{
							"internalType": "address",
							"name": "token",
							"type": "address"
						},
						{
							"internalType": "uint64",
							"name": "timestamp",
							"type": "uint64"
						}
					],
					"name": "vestedAmount",
					"outputs": [
						{
							"internalType": "uint256",
							"name": "",
							"type": "uint256"
						}
					],
					"stateMutability": "view",
					"type": "function"
				},
				{
					"stateMutability": "payable",
					"type": "receive"
				}
			],
			"devdoc": {
				"details": "A vesting wallet is an ownable contract that can receive native currency and ERC-20 tokens, and release these assets to the wallet owner, also referred to as \"beneficiary\", according to a vesting schedule. Any assets transferred to this contract will follow the vesting schedule as if they were locked from the beginning. Consequently, if the vesting has already started, any amount of tokens sent to this contract will (at least partly) be immediately releasable. By setting the duration to 0, one can configure this contract to behave like an asset timelock that holds tokens for a beneficiary until a specified time. NOTE: Since the wallet is {Ownable}, and ownership can be transferred, it is possible to sell unvested tokens. Preventing this in a smart contract is difficult, considering that: 1) a beneficiary address could be a counterfactually deployed contract, 2) there is likely to be a migration path for EOAs to become contracts in the near future. NOTE: When using this contract with any token whose balance is adjusted automatically (i.e. a rebase token), make sure to account the supply/balance adjustment in the vesting schedule to ensure the vested amount is as intended. NOTE: Chains with support for native ERC20s may allow the vesting wallet to withdraw the underlying asset as both an ERC20 and as native currency. For example, if chain C supports token A and the wallet gets deposited 100 A, then at 50% of the vesting period, the beneficiary can withdraw 50 A as ERC20 and 25 A as native currency (totaling 75 A). Consider disabling one of the withdrawal methods.",
				"errors": {
					"FailedCall()": [
						{
							"details": "A call to an address target failed. The target may have reverted."
						}
					],
					"InsufficientBalance(uint256,uint256)": [
						{
							"details": "The ETH balance of the account is not enough to perform the operation."
						}
					],
					"OwnableInvalidOwner(address)": [
						{
							"details": "The owner is not a valid owner account. (eg. `address(0)`)"
						}
					],
					"OwnableUnauthorizedAccount(address)": [
						{
							"details": "The caller account is not authorized to perform an operation."
						}
					],
					"SafeERC20FailedOperation(address)": [
						{
							"details": "An operation with an ERC-20 token failed."
						}
					]
				},
				"kind": "dev",
				"methods": {
					"constructor": {
						"details": "Sets the beneficiary (owner), the start timestamp and the vesting duration (in seconds) of the vesting wallet."
					},
					"duration()": {
						"details": "Getter for the vesting duration."
					},
					"end()": {
						"details": "Getter for the end timestamp."
					},
					"owner()": {
						"details": "Returns the address of the current owner."
					},
					"releasable()": {
						"details": "Getter for the amount of releasable eth."
					},
					"releasable(address)": {
						"details": "Getter for the amount of releasable `token` tokens. `token` should be the address of an {IERC20} contract."
					},
					"release()": {
						"details": "Release the native token (ether) that have already vested. Emits a {EtherReleased} event."
					},
					"release(address)": {
						"details": "Release the tokens that have already vested. Emits a {ERC20Released} event."
					},
					"released()": {
						"details": "Amount of eth already released"
					},
					"released(address)": {
						"details": "Amount of token already released"
					},
					"renounceOwnership()": {
						"details": "Leaves the contract without owner. It will not be possible to call `onlyOwner` functions. Can only be called by the current owner. NOTE: Renouncing ownership will leave the contract without an owner, thereby disabling any functionality that is only available to the owner."
					},
					"start()": {
						"details": "Getter for the start timestamp."
					},
					"transferOwnership(address)": {
						"details": "Transfers ownership of the contract to a new account (`newOwner`). Can only be called by the current owner."
					},
					"vestedAmount(address,uint64)": {
						"details": "Calculates the amount of tokens that has already vested. Default implementation is a linear vesting curve."
					},
					"vestedAmount(uint64)": {
						"details": "Calculates the amount of ether that has already vested. Default implementation is a linear vesting curve."
					}
				},
				"version": 1
			},
			"evm": {
				"assembly": "    /* \"SpageroTokenVesting_flattened.sol\":31284:35285  contract VestingWallet is Context, Ownable {... */\n  mstore(0x40, 0xc0)\n    /* \"SpageroTokenVesting_flattened.sol\":31756:31942  constructor(address beneficiary, uint64 startTimestamp, uint64 durationSeconds) payable Ownable(beneficiary) {... */\n  mload(0x40)\n  sub(codesize, bytecodeSize)\n  dup1\n  bytecodeSize\n  dup4\n  codecopy\n  dup2\n  add\n  0x40\n  dup2\n  swap1\n  mstore\n  tag_1\n  swap2\n  tag_2\n  jump\t// in\ntag_1:\n    /* \"SpageroTokenVesting_flattened.sol\":31852:31863  beneficiary */\n  dup3\n  sub(shl(0xa0, 0x01), 0x01)\n    /* \"SpageroTokenVesting_flattened.sol\":27619:27645  initialOwner == address(0) */\n  dup2\n  and\n    /* \"SpageroTokenVesting_flattened.sol\":27615:27710  if (initialOwner == address(0)) {... */\n  tag_6\n  jumpi\n    /* \"SpageroTokenVesting_flattened.sol\":27668:27699  OwnableInvalidOwner(address(0)) */\n  mload(0x40)\n  shl(0xe0, 0x1e4fbdf7)\n  dup2\n  mstore\n    /* \"SpageroTokenVesting_flattened.sol\":27696:27697  0 */\n  0x00\n    /* \"SpageroTokenVesting_flattened.sol\":27668:27699  OwnableInvalidOwner(address(0)) */\n  0x04\n  dup3\n  add\n    /* \"#utility.yul\":801:852   */\n  mstore\n    /* \"#utility.yul\":774:792   */\n  0x24\n  add\n    /* \"SpageroTokenVesting_flattened.sol\":27668:27699  OwnableInvalidOwner(address(0)) */\n  mload(0x40)\n  dup1\n  swap2\n  sub\n  swap1\n  revert\n    /* \"SpageroTokenVesting_flattened.sol\":27615:27710  if (initialOwner == address(0)) {... */\ntag_6:\n    /* \"SpageroTokenVesting_flattened.sol\":27719:27751  _transferOwnership(initialOwner) */\n  tag_9\n    /* \"SpageroTokenVesting_flattened.sol\":27738:27750  initialOwner */\n  dup2\n    /* \"SpageroTokenVesting_flattened.sol\":27719:27737  _transferOwnership */\n  tag_10\n    /* \"SpageroTokenVesting_flattened.sol\":27719:27751  _transferOwnership(initialOwner) */\n  jump\t// in\ntag_9:\n  pop\n  sub(shl(0x40, 0x01), 0x01)\n    /* \"SpageroTokenVesting_flattened.sol\":31875:31898  _start = startTimestamp */\n  swap2\n  dup3\n  and\n  0x80\n  mstore\n    /* \"SpageroTokenVesting_flattened.sol\":31908:31935  _duration = durationSeconds */\n  and\n  0xa0\n  mstore\n  pop\n    /* \"SpageroTokenVesting_flattened.sol\":31284:35285  contract VestingWallet is Context, Ownable {... */\n  jump(tag_15)\n    /* \"SpageroTokenVesting_flattened.sol\":29258:29445  function _transferOwnership(address newOwner) internal virtual {... */\ntag_10:\n    /* \"SpageroTokenVesting_flattened.sol\":29331:29347  address oldOwner */\n  0x00\n    /* \"SpageroTokenVesting_flattened.sol\":29350:29356  _owner */\n  dup1\n  sload\n  sub(shl(0xa0, 0x01), 0x01)\n    /* \"SpageroTokenVesting_flattened.sol\":29366:29383  _owner = newOwner */\n  dup4\n  dup2\n  and\n  not(sub(shl(0xa0, 0x01), 0x01))\n  dup4\n  and\n  dup2\n  or\n  dup5\n  sstore\n    /* \"SpageroTokenVesting_flattened.sol\":29398:29438  OwnershipTransferred(oldOwner, newOwner) */\n  mload(0x40)\n    /* \"SpageroTokenVesting_flattened.sol\":29350:29356  _owner */\n  swap2\n  swap1\n  swap3\n  and\n  swap3\n  dup4\n  swap2\n    /* \"SpageroTokenVesting_flattened.sol\":29398:29438  OwnershipTransferred(oldOwner, newOwner) */\n  0x8be0079c531659141344cd1fd0a4f28419497f9722a3daafe3b4186f6b6457e0\n  swap2\n    /* \"SpageroTokenVesting_flattened.sol\":29331:29347  address oldOwner */\n  swap1\n    /* \"SpageroTokenVesting_flattened.sol\":29398:29438  OwnershipTransferred(oldOwner, newOwner) */\n  log3\n    /* \"SpageroTokenVesting_flattened.sol\":29321:29445  {... */\n  pop\n    /* \"SpageroTokenVesting_flattened.sol\":29258:29445  function _transferOwnership(address newOwner) internal virtual {... */\n  pop\n  jump\t// out\n    /* \"#utility.yul\":14:189   */\ntag_14:\n    /* \"#utility.yul\":92:105   */\n  dup1\n  mload\n  sub(shl(0x40, 0x01), 0x01)\n    /* \"#utility.yul\":134:164   */\n  dup2\n  and\n    /* \"#utility.yul\":124:165   */\n  dup2\n  eq\n    /* \"#utility.yul\":114:183   */\n  tag_17\n  jumpi\n    /* \"#utility.yul\":179:180   */\n  0x00\n    /* \"#utility.yul\":176:177   */\n  dup1\n    /* \"#utility.yul\":169:181   */\n  revert\n    /* \"#utility.yul\":114:183   */\ntag_17:\n    /* \"#utility.yul\":14:189   */\n  swap2\n  swap1\n  pop\n  jump\t// out\n    /* \"#utility.yul\":194:650   */\ntag_2:\n    /* \"#utility.yul\":280:286   */\n  0x00\n    /* \"#utility.yul\":288:294   */\n  dup1\n    /* \"#utility.yul\":296:302   */\n  0x00\n    /* \"#utility.yul\":349:351   */\n  0x60\n    /* \"#utility.yul\":337:346   */\n  dup5\n    /* \"#utility.yul\":328:335   */\n  dup7\n    /* \"#utility.yul\":324:347   */\n  sub\n    /* \"#utility.yul\":320:352   */\n  slt\n    /* \"#utility.yul\":317:369   */\n  iszero\n  tag_19\n  jumpi\n    /* \"#utility.yul\":365:366   */\n  0x00\n    /* \"#utility.yul\":362:363   */\n  dup1\n    /* \"#utility.yul\":355:367   */\n  revert\n    /* \"#utility.yul\":317:369   */\ntag_19:\n    /* \"#utility.yul\":391:407   */\n  dup4\n  mload\n  sub(shl(0xa0, 0x01), 0x01)\n    /* \"#utility.yul\":436:467   */\n  dup2\n  and\n    /* \"#utility.yul\":426:468   */\n  dup2\n  eq\n    /* \"#utility.yul\":416:486   */\n  tag_20\n  jumpi\n    /* \"#utility.yul\":482:483   */\n  0x00\n    /* \"#utility.yul\":479:480   */\n  dup1\n    /* \"#utility.yul\":472:484   */\n  revert\n    /* \"#utility.yul\":416:486   */\ntag_20:\n    /* \"#utility.yul\":505:510   */\n  swap3\n  pop\n    /* \"#utility.yul\":529:577   */\n  tag_21\n    /* \"#utility.yul\":573:575   */\n  0x20\n    /* \"#utility.yul\":558:576   */\n  dup6\n  add\n    /* \"#utility.yul\":529:577   */\n  tag_14\n  jump\t// in\ntag_21:\n    /* \"#utility.yul\":519:577   */\n  swap2\n  pop\n    /* \"#utility.yul\":596:644   */\n  tag_22\n    /* \"#utility.yul\":640:642   */\n  0x40\n    /* \"#utility.yul\":629:638   */\n  dup6\n    /* \"#utility.yul\":625:643   */\n  add\n    /* \"#utility.yul\":596:644   */\n  tag_14\n  jump\t// in\ntag_22:\n    /* \"#utility.yul\":586:644   */\n  swap1\n  pop\n    /* \"#utility.yul\":194:650   */\n  swap3\n  pop\n  swap3\n  pop\n  swap3\n  jump\t// out\n    /* \"#utility.yul\":655:858   */\ntag_15:\n    /* \"SpageroTokenVesting_flattened.sol\":31284:35285  contract VestingWallet is Context, Ownable {... */\n  mload(0x80)\n  mload(0xa0)\n  codecopy(0x00, dataOffset(sub_0), dataSize(sub_0))\n  0x00\n  assignImmutable(\"0x208ad8d9d4ca969ed7f17809392789f61ed5b8bb6f6790375ce7d972071a1fbe\")\n  0x00\n  assignImmutable(\"0x7e61868c26ad9542219295e4248d06589934ece56761f625f341eef80a4788c7\")\n  return(0x00, dataSize(sub_0))\nstop\n\nsub_0: assembly {\n        /* \"SpageroTokenVesting_flattened.sol\":31284:35285  contract VestingWallet is Context, Ownable {... */\n      mstore(0x40, 0x80)\n      jumpi(tag_1, lt(calldatasize, 0x04))\n      shr(0xe0, calldataload(0x00))\n      dup1\n      0x96132521\n      gt\n      tag_17\n      jumpi\n      dup1\n      0xbe9a6555\n      gt\n      tag_18\n      jumpi\n      dup1\n      0xbe9a6555\n      eq\n      tag_13\n      jumpi\n      dup1\n      0xefbe1c1c\n      eq\n      tag_14\n      jumpi\n      dup1\n      0xf2fde38b\n      eq\n      tag_15\n      jumpi\n      dup1\n      0xfbccedae\n      eq\n      tag_16\n      jumpi\n      0x00\n      dup1\n      revert\n    tag_18:\n      dup1\n      0x96132521\n      eq\n      tag_10\n      jumpi\n      dup1\n      0x9852595c\n      eq\n      tag_11\n      jumpi\n      dup1\n      0xa3f8eace\n      eq\n      tag_12\n      jumpi\n      0x00\n      dup1\n      revert\n    tag_17:\n      dup1\n      0x715018a6\n      gt\n      tag_19\n      jumpi\n      dup1\n      0x715018a6\n      eq\n      tag_6\n      jumpi\n      dup1\n      0x810ec23b\n      eq\n      tag_7\n      jumpi\n      dup1\n      0x86d1a69f\n      eq\n      tag_8\n      jumpi\n      dup1\n      0x8da5cb5b\n      eq\n      tag_9\n      jumpi\n      0x00\n      dup1\n      revert\n    tag_19:\n      dup1\n      0x0a17b06b\n      eq\n      tag_3\n      jumpi\n      dup1\n      0x0fb5a6b4\n      eq\n      tag_4\n      jumpi\n      dup1\n      0x19165587\n      eq\n      tag_5\n      jumpi\n      0x00\n      dup1\n      revert\n    tag_1:\n      jumpi(tag_2, calldatasize)\n      stop\n    tag_2:\n      0x00\n      dup1\n      revert\n        /* \"SpageroTokenVesting_flattened.sol\":34228:34393  function vestedAmount(uint64 timestamp) public view virtual returns (uint256) {... */\n    tag_3:\n      callvalue\n      dup1\n      iszero\n      tag_22\n      jumpi\n      0x00\n      dup1\n      revert\n    tag_22:\n      pop\n      tag_23\n      tag_24\n      calldatasize\n      0x04\n      tag_25\n      jump\t// in\n    tag_24:\n      tag_26\n      jump\t// in\n    tag_23:\n      mload(0x40)\n        /* \"#utility.yul\":525:550   */\n      swap1\n      dup2\n      mstore\n        /* \"#utility.yul\":513:515   */\n      0x20\n        /* \"#utility.yul\":498:516   */\n      add\n        /* \"SpageroTokenVesting_flattened.sol\":34228:34393  function vestedAmount(uint64 timestamp) public view virtual returns (uint256) {... */\n    tag_27:\n      mload(0x40)\n      dup1\n      swap2\n      sub\n      swap1\n      return\n        /* \"SpageroTokenVesting_flattened.sol\":32275:32366  function duration() public view virtual returns (uint256) {... */\n    tag_4:\n      callvalue\n      dup1\n      iszero\n      tag_29\n      jumpi\n      0x00\n      dup1\n      revert\n    tag_29:\n      pop\n        /* \"SpageroTokenVesting_flattened.sol\":32350:32359  _duration */\n      immutable(\"0x208ad8d9d4ca969ed7f17809392789f61ed5b8bb6f6790375ce7d972071a1fbe\")\n        /* \"SpageroTokenVesting_flattened.sol\":32343:32359  return _duration */\n      0xffffffffffffffff\n      and\n        /* \"SpageroTokenVesting_flattened.sol\":32275:32366  function duration() public view virtual returns (uint256) {... */\n      jump(tag_23)\n        /* \"SpageroTokenVesting_flattened.sol\":33842:34088  function release(address token) public virtual {... */\n    tag_5:\n      callvalue\n      dup1\n      iszero\n      tag_33\n      jumpi\n      0x00\n      dup1\n      revert\n    tag_33:\n      pop\n      tag_34\n      tag_35\n      calldatasize\n      0x04\n      tag_36\n      jump\t// in\n    tag_35:\n      tag_37\n      jump\t// in\n    tag_34:\n      stop\n        /* \"SpageroTokenVesting_flattened.sol\":28639:28740  function renounceOwnership() public virtual onlyOwner {... */\n    tag_6:\n      callvalue\n      dup1\n      iszero\n      tag_38\n      jumpi\n      0x00\n      dup1\n      revert\n    tag_38:\n      pop\n      tag_34\n      tag_40\n      jump\t// in\n        /* \"SpageroTokenVesting_flattened.sol\":34534:34736  function vestedAmount(address token, uint64 timestamp) public view virtual returns (uint256) {... */\n    tag_7:\n      callvalue\n      dup1\n      iszero\n      tag_41\n      jumpi\n      0x00\n      dup1\n      revert\n    tag_41:\n      pop\n      tag_23\n      tag_43\n      calldatasize\n      0x04\n      tag_44\n      jump\t// in\n    tag_43:\n      tag_45\n      jump\t// in\n        /* \"SpageroTokenVesting_flattened.sol\":33520:33718  function release() public virtual {... */\n    tag_8:\n      callvalue\n      dup1\n      iszero\n      tag_47\n      jumpi\n      0x00\n      dup1\n      revert\n    tag_47:\n      pop\n      tag_34\n      tag_49\n      jump\t// in\n        /* \"SpageroTokenVesting_flattened.sol\":27984:28069  function owner() public view virtual returns (address) {... */\n    tag_9:\n      callvalue\n      dup1\n      iszero\n      tag_50\n      jumpi\n      0x00\n      dup1\n      revert\n    tag_50:\n      pop\n        /* \"SpageroTokenVesting_flattened.sol\":28030:28037  address */\n      0x00\n        /* \"SpageroTokenVesting_flattened.sol\":28056:28062  _owner */\n      sload\n        /* \"SpageroTokenVesting_flattened.sol\":27984:28069  function owner() public view virtual returns (address) {... */\n      mload(0x40)\n      sub(shl(0xa0, 0x01), 0x01)\n        /* \"SpageroTokenVesting_flattened.sol\":28056:28062  _owner */\n      swap1\n      swap2\n      and\n        /* \"#utility.yul\":1339:1390   */\n      dup2\n      mstore\n        /* \"#utility.yul\":1327:1329   */\n      0x20\n        /* \"#utility.yul\":1312:1330   */\n      add\n        /* \"SpageroTokenVesting_flattened.sol\":27984:28069  function owner() public view virtual returns (address) {... */\n      tag_27\n        /* \"#utility.yul\":1193:1396   */\n      jump\n        /* \"SpageroTokenVesting_flattened.sol\":32592:32683  function released() public view virtual returns (uint256) {... */\n    tag_10:\n      callvalue\n      dup1\n      iszero\n      tag_55\n      jumpi\n      0x00\n      dup1\n      revert\n    tag_55:\n      pop\n        /* \"SpageroTokenVesting_flattened.sol\":32667:32676  _released */\n      sload(0x01)\n        /* \"SpageroTokenVesting_flattened.sol\":32592:32683  function released() public view virtual returns (uint256) {... */\n      jump(tag_23)\n        /* \"SpageroTokenVesting_flattened.sol\":32750:32866  function released(address token) public view virtual returns (uint256) {... */\n    tag_11:\n      callvalue\n      dup1\n      iszero\n      tag_59\n      jumpi\n      0x00\n      dup1\n      revert\n    tag_59:\n      pop\n      tag_23\n      tag_61\n      calldatasize\n      0x04\n      tag_36\n      jump\t// in\n    tag_61:\n      sub(shl(0xa0, 0x01), 0x01)\n        /* \"SpageroTokenVesting_flattened.sol\":32838:32859  _erc20Released[token] */\n      and\n        /* \"SpageroTokenVesting_flattened.sol\":32812:32819  uint256 */\n      0x00\n        /* \"SpageroTokenVesting_flattened.sol\":32838:32859  _erc20Released[token] */\n      swap1\n      dup2\n      mstore\n        /* \"SpageroTokenVesting_flattened.sol\":32838:32852  _erc20Released */\n      0x02\n        /* \"SpageroTokenVesting_flattened.sol\":32838:32859  _erc20Released[token] */\n      0x20\n      mstore\n      0x40\n      swap1\n      keccak256\n      sload\n      swap1\n        /* \"SpageroTokenVesting_flattened.sol\":32750:32866  function released(address token) public view virtual returns (uint256) {... */\n      jump\n        /* \"SpageroTokenVesting_flattened.sol\":33223:33382  function releasable(address token) public view virtual returns (uint256) {... */\n    tag_12:\n      callvalue\n      dup1\n      iszero\n      tag_64\n      jumpi\n      0x00\n      dup1\n      revert\n    tag_64:\n      pop\n      tag_23\n      tag_66\n      calldatasize\n      0x04\n      tag_36\n      jump\t// in\n    tag_66:\n      tag_67\n      jump\t// in\n        /* \"SpageroTokenVesting_flattened.sol\":32123:32208  function start() public view virtual returns (uint256) {... */\n    tag_13:\n      callvalue\n      dup1\n      iszero\n      tag_69\n      jumpi\n      0x00\n      dup1\n      revert\n    tag_69:\n      pop\n      tag_23\n      tag_71\n      jump\t// in\n        /* \"SpageroTokenVesting_flattened.sol\":32430:32527  function end() public view virtual returns (uint256) {... */\n    tag_14:\n      callvalue\n      dup1\n      iszero\n      tag_73\n      jumpi\n      0x00\n      dup1\n      revert\n    tag_73:\n      pop\n      tag_23\n      tag_75\n      jump\t// in\n        /* \"SpageroTokenVesting_flattened.sol\":28889:29104  function transferOwnership(address newOwner) public virtual onlyOwner {... */\n    tag_15:\n      callvalue\n      dup1\n      iszero\n      tag_77\n      jumpi\n      0x00\n      dup1\n      revert\n    tag_77:\n      pop\n      tag_34\n      tag_79\n      calldatasize\n      0x04\n      tag_36\n      jump\t// in\n    tag_79:\n      tag_80\n      jump\t// in\n        /* \"SpageroTokenVesting_flattened.sol\":32941:33075  function releasable() public view virtual returns (uint256) {... */\n    tag_16:\n      callvalue\n      dup1\n      iszero\n      tag_81\n      jumpi\n      0x00\n      dup1\n      revert\n    tag_81:\n      pop\n      tag_23\n      tag_83\n      jump\t// in\n        /* \"SpageroTokenVesting_flattened.sol\":34228:34393  function vestedAmount(uint64 timestamp) public view virtual returns (uint256) {... */\n    tag_26:\n        /* \"SpageroTokenVesting_flattened.sol\":34297:34304  uint256 */\n      0x00\n        /* \"SpageroTokenVesting_flattened.sol\":34323:34386  _vestingSchedule(address(this).balance + released(), timestamp) */\n      tag_86\n        /* \"SpageroTokenVesting_flattened.sol\":34364:34374  released() */\n      tag_87\n        /* \"SpageroTokenVesting_flattened.sol\":32667:32676  _released */\n      sload(0x01)\n      swap1\n        /* \"SpageroTokenVesting_flattened.sol\":32592:32683  function released() public view virtual returns (uint256) {... */\n      jump\n        /* \"SpageroTokenVesting_flattened.sol\":34364:34374  released() */\n    tag_87:\n        /* \"SpageroTokenVesting_flattened.sol\":34340:34374  address(this).balance + released() */\n      tag_88\n      swap1\n        /* \"SpageroTokenVesting_flattened.sol\":34340:34361  address(this).balance */\n      selfbalance\n        /* \"SpageroTokenVesting_flattened.sol\":34340:34374  address(this).balance + released() */\n      tag_89\n      jump\t// in\n    tag_88:\n        /* \"SpageroTokenVesting_flattened.sol\":34376:34385  timestamp */\n      dup4\n        /* \"SpageroTokenVesting_flattened.sol\":34323:34339  _vestingSchedule */\n      tag_90\n        /* \"SpageroTokenVesting_flattened.sol\":34323:34386  _vestingSchedule(address(this).balance + released(), timestamp) */\n      jump\t// in\n    tag_86:\n        /* \"SpageroTokenVesting_flattened.sol\":34316:34386  return _vestingSchedule(address(this).balance + released(), timestamp) */\n      swap3\n        /* \"SpageroTokenVesting_flattened.sol\":34228:34393  function vestedAmount(uint64 timestamp) public view virtual returns (uint256) {... */\n      swap2\n      pop\n      pop\n      jump\t// out\n        /* \"SpageroTokenVesting_flattened.sol\":33842:34088  function release(address token) public virtual {... */\n    tag_37:\n        /* \"SpageroTokenVesting_flattened.sol\":33899:33913  uint256 amount */\n      0x00\n        /* \"SpageroTokenVesting_flattened.sol\":33916:33933  releasable(token) */\n      tag_93\n        /* \"SpageroTokenVesting_flattened.sol\":33927:33932  token */\n      dup3\n        /* \"SpageroTokenVesting_flattened.sol\":33916:33926  releasable */\n      tag_67\n        /* \"SpageroTokenVesting_flattened.sol\":33916:33933  releasable(token) */\n      jump\t// in\n    tag_93:\n      sub(shl(0xa0, 0x01), 0x01)\n        /* \"SpageroTokenVesting_flattened.sol\":33943:33964  _erc20Released[token] */\n      dup4\n      and\n      0x00\n      swap1\n      dup2\n      mstore\n        /* \"SpageroTokenVesting_flattened.sol\":33943:33957  _erc20Released */\n      0x02\n        /* \"SpageroTokenVesting_flattened.sol\":33943:33964  _erc20Released[token] */\n      0x20\n      mstore\n      0x40\n      dup2\n      keccak256\n        /* \"SpageroTokenVesting_flattened.sol\":33943:33974  _erc20Released[token] += amount */\n      dup1\n      sload\n        /* \"SpageroTokenVesting_flattened.sol\":33899:33933  uint256 amount = releasable(token) */\n      swap3\n      swap4\n      pop\n      dup4\n      swap3\n        /* \"SpageroTokenVesting_flattened.sol\":33943:33964  _erc20Released[token] */\n      swap1\n      swap2\n      swap1\n        /* \"SpageroTokenVesting_flattened.sol\":33943:33974  _erc20Released[token] += amount */\n      tag_94\n      swap1\n        /* \"SpageroTokenVesting_flattened.sol\":33899:33933  uint256 amount = releasable(token) */\n      dup5\n      swap1\n        /* \"SpageroTokenVesting_flattened.sol\":33943:33974  _erc20Released[token] += amount */\n      tag_89\n      jump\t// in\n    tag_94:\n      swap1\n      swap2\n      sstore\n      pop\n      pop\n        /* \"SpageroTokenVesting_flattened.sol\":33989:34017  ERC20Released(token, amount) */\n      mload(0x40)\n        /* \"#utility.yul\":525:550   */\n      dup2\n      dup2\n      mstore\n      sub(shl(0xa0, 0x01), 0x01)\n        /* \"SpageroTokenVesting_flattened.sol\":33989:34017  ERC20Released(token, amount) */\n      dup4\n      and\n      swap1\n      0xc0e523490dd523c33b1878c9eb14ff46991e3f5b2cd33710918618f2a39cba1b\n      swap1\n        /* \"#utility.yul\":513:515   */\n      0x20\n        /* \"#utility.yul\":498:516   */\n      add\n        /* \"SpageroTokenVesting_flattened.sol\":33989:34017  ERC20Released(token, amount) */\n      mload(0x40)\n      dup1\n      swap2\n      sub\n      swap1\n      log2\n        /* \"SpageroTokenVesting_flattened.sol\":34027:34081  SafeERC20.safeTransfer(IERC20(token), owner(), amount) */\n      tag_96\n        /* \"SpageroTokenVesting_flattened.sol\":34057:34062  token */\n      dup3\n        /* \"SpageroTokenVesting_flattened.sol\":34065:34072  owner() */\n      tag_97\n        /* \"SpageroTokenVesting_flattened.sol\":28030:28037  address */\n      0x00\n        /* \"SpageroTokenVesting_flattened.sol\":28056:28062  _owner */\n      sload\n      sub(shl(0xa0, 0x01), 0x01)\n      and\n      swap1\n        /* \"SpageroTokenVesting_flattened.sol\":27984:28069  function owner() public view virtual returns (address) {... */\n      jump\n        /* \"SpageroTokenVesting_flattened.sol\":34065:34072  owner() */\n    tag_97:\n        /* \"SpageroTokenVesting_flattened.sol\":34074:34080  amount */\n      dup4\n        /* \"SpageroTokenVesting_flattened.sol\":34027:34049  SafeERC20.safeTransfer */\n      tag_98\n        /* \"SpageroTokenVesting_flattened.sol\":34027:34081  SafeERC20.safeTransfer(IERC20(token), owner(), amount) */\n      jump\t// in\n    tag_96:\n        /* \"SpageroTokenVesting_flattened.sol\":33889:34088  {... */\n      pop\n        /* \"SpageroTokenVesting_flattened.sol\":33842:34088  function release(address token) public virtual {... */\n      pop\n      jump\t// out\n        /* \"SpageroTokenVesting_flattened.sol\":28639:28740  function renounceOwnership() public virtual onlyOwner {... */\n    tag_40:\n        /* \"SpageroTokenVesting_flattened.sol\":27877:27890  _checkOwner() */\n      tag_100\n        /* \"SpageroTokenVesting_flattened.sol\":27877:27888  _checkOwner */\n      tag_101\n        /* \"SpageroTokenVesting_flattened.sol\":27877:27890  _checkOwner() */\n      jump\t// in\n    tag_100:\n        /* \"SpageroTokenVesting_flattened.sol\":28703:28733  _transferOwnership(address(0)) */\n      tag_103\n        /* \"SpageroTokenVesting_flattened.sol\":28730:28731  0 */\n      0x00\n        /* \"SpageroTokenVesting_flattened.sol\":28703:28721  _transferOwnership */\n      tag_104\n        /* \"SpageroTokenVesting_flattened.sol\":28703:28733  _transferOwnership(address(0)) */\n      jump\t// in\n    tag_103:\n        /* \"SpageroTokenVesting_flattened.sol\":28639:28740  function renounceOwnership() public virtual onlyOwner {... */\n      jump\t// out\n        /* \"SpageroTokenVesting_flattened.sol\":34534:34736  function vestedAmount(address token, uint64 timestamp) public view virtual returns (uint256) {... */\n    tag_45:\n      sub(shl(0xa0, 0x01), 0x01)\n        /* \"SpageroTokenVesting_flattened.sol\":32838:32859  _erc20Released[token] */\n      dup3\n      and\n        /* \"SpageroTokenVesting_flattened.sol\":34618:34625  uint256 */\n      0x00\n        /* \"SpageroTokenVesting_flattened.sol\":32838:32859  _erc20Released[token] */\n      swap1\n      dup2\n      mstore\n        /* \"SpageroTokenVesting_flattened.sol\":32838:32852  _erc20Released */\n      0x02\n        /* \"SpageroTokenVesting_flattened.sol\":32838:32859  _erc20Released[token] */\n      0x20\n      mstore\n      0x40\n      dup2\n      keccak256\n      sload\n        /* \"SpageroTokenVesting_flattened.sol\":34644:34729  _vestingSchedule(IERC20(token).balanceOf(address(this)) + released(token), timestamp) */\n      tag_106\n      swap1\n        /* \"SpageroTokenVesting_flattened.sol\":34661:34699  IERC20(token).balanceOf(address(this)) */\n      mload(0x40)\n      shl(0xe0, 0x70a08231)\n      dup2\n      mstore\n        /* \"SpageroTokenVesting_flattened.sol\":34693:34697  this */\n      address\n        /* \"SpageroTokenVesting_flattened.sol\":34661:34699  IERC20(token).balanceOf(address(this)) */\n      0x04\n      dup3\n      add\n        /* \"#utility.yul\":1339:1390   */\n      mstore\n      sub(shl(0xa0, 0x01), 0x01)\n        /* \"SpageroTokenVesting_flattened.sol\":34661:34684  IERC20(token).balanceOf */\n      dup7\n      and\n      swap1\n      0x70a08231\n      swap1\n        /* \"#utility.yul\":1312:1330   */\n      0x24\n      add\n        /* \"SpageroTokenVesting_flattened.sol\":34661:34699  IERC20(token).balanceOf(address(this)) */\n      0x20\n      mload(0x40)\n      dup1\n      dup4\n      sub\n      dup2\n      dup7\n      gas\n      staticcall\n      iszero\n      dup1\n      iszero\n      tag_110\n      jumpi\n      returndatasize\n      0x00\n      dup1\n      returndatacopy\n      revert(0x00, returndatasize)\n    tag_110:\n      pop\n      pop\n      pop\n      pop\n      mload(0x40)\n      returndatasize\n      not(0x1f)\n      0x1f\n      dup3\n      add\n      and\n      dup3\n      add\n      dup1\n      0x40\n      mstore\n      pop\n      dup2\n      add\n      swap1\n      tag_111\n      swap2\n      swap1\n      tag_112\n      jump\t// in\n    tag_111:\n        /* \"SpageroTokenVesting_flattened.sol\":34661:34717  IERC20(token).balanceOf(address(this)) + released(token) */\n      tag_88\n      swap2\n      swap1\n      tag_89\n      jump\t// in\n        /* \"SpageroTokenVesting_flattened.sol\":34644:34729  _vestingSchedule(IERC20(token).balanceOf(address(this)) + released(token), timestamp) */\n    tag_106:\n        /* \"SpageroTokenVesting_flattened.sol\":34637:34729  return _vestingSchedule(IERC20(token).balanceOf(address(this)) + released(token), timestamp) */\n      swap4\n        /* \"SpageroTokenVesting_flattened.sol\":34534:34736  function vestedAmount(address token, uint64 timestamp) public view virtual returns (uint256) {... */\n      swap3\n      pop\n      pop\n      pop\n      jump\t// out\n        /* \"SpageroTokenVesting_flattened.sol\":33520:33718  function release() public virtual {... */\n    tag_49:\n        /* \"SpageroTokenVesting_flattened.sol\":33564:33578  uint256 amount */\n      0x00\n        /* \"SpageroTokenVesting_flattened.sol\":33581:33593  releasable() */\n      tag_115\n        /* \"SpageroTokenVesting_flattened.sol\":33581:33591  releasable */\n      tag_83\n        /* \"SpageroTokenVesting_flattened.sol\":33581:33593  releasable() */\n      jump\t// in\n    tag_115:\n        /* \"SpageroTokenVesting_flattened.sol\":33564:33593  uint256 amount = releasable() */\n      swap1\n      pop\n        /* \"SpageroTokenVesting_flattened.sol\":33616:33622  amount */\n      dup1\n        /* \"SpageroTokenVesting_flattened.sol\":33603:33612  _released */\n      0x01\n      0x00\n        /* \"SpageroTokenVesting_flattened.sol\":33603:33622  _released += amount */\n      dup3\n      dup3\n      sload\n      tag_116\n      swap2\n      swap1\n      tag_89\n      jump\t// in\n    tag_116:\n      swap1\n      swap2\n      sstore\n      pop\n      pop\n        /* \"SpageroTokenVesting_flattened.sol\":33637:33658  EtherReleased(amount) */\n      mload(0x40)\n        /* \"#utility.yul\":525:550   */\n      dup2\n      dup2\n      mstore\n        /* \"SpageroTokenVesting_flattened.sol\":33637:33658  EtherReleased(amount) */\n      0xda9d4e5f101b8b9b1c5b76d0c5a9f7923571acfc02376aa076b75a8c080c956b\n      swap1\n        /* \"#utility.yul\":513:515   */\n      0x20\n        /* \"#utility.yul\":498:516   */\n      add\n        /* \"SpageroTokenVesting_flattened.sol\":33637:33658  EtherReleased(amount) */\n      mload(0x40)\n      dup1\n      swap2\n      sub\n      swap1\n      log1\n        /* \"SpageroTokenVesting_flattened.sol\":33668:33711  Address.sendValue(payable(owner()), amount) */\n      tag_118\n        /* \"SpageroTokenVesting_flattened.sol\":33694:33701  owner() */\n      tag_119\n        /* \"SpageroTokenVesting_flattened.sol\":28030:28037  address */\n      0x00\n        /* \"SpageroTokenVesting_flattened.sol\":28056:28062  _owner */\n      sload\n      sub(shl(0xa0, 0x01), 0x01)\n      and\n      swap1\n        /* \"SpageroTokenVesting_flattened.sol\":27984:28069  function owner() public view virtual returns (address) {... */\n      jump\n        /* \"SpageroTokenVesting_flattened.sol\":33694:33701  owner() */\n    tag_119:\n        /* \"SpageroTokenVesting_flattened.sol\":33704:33710  amount */\n      dup3\n        /* \"SpageroTokenVesting_flattened.sol\":33668:33685  Address.sendValue */\n      tag_120\n        /* \"SpageroTokenVesting_flattened.sol\":33668:33711  Address.sendValue(payable(owner()), amount) */\n      jump\t// in\n    tag_118:\n        /* \"SpageroTokenVesting_flattened.sol\":33554:33718  {... */\n      pop\n        /* \"SpageroTokenVesting_flattened.sol\":33520:33718  function release() public virtual {... */\n      jump\t// out\n        /* \"SpageroTokenVesting_flattened.sol\":33223:33382  function releasable(address token) public view virtual returns (uint256) {... */\n    tag_67:\n      sub(shl(0xa0, 0x01), 0x01)\n        /* \"SpageroTokenVesting_flattened.sol\":32838:32859  _erc20Released[token] */\n      dup2\n      and\n        /* \"SpageroTokenVesting_flattened.sol\":33287:33294  uint256 */\n      0x00\n        /* \"SpageroTokenVesting_flattened.sol\":32838:32859  _erc20Released[token] */\n      swap1\n      dup2\n      mstore\n        /* \"SpageroTokenVesting_flattened.sol\":32838:32852  _erc20Released */\n      0x02\n        /* \"SpageroTokenVesting_flattened.sol\":32838:32859  _erc20Released[token] */\n      0x20\n      mstore\n      0x40\n      dup2\n      keccak256\n      sload\n        /* \"SpageroTokenVesting_flattened.sol\":33313:33357  vestedAmount(token, uint64(block.timestamp)) */\n      tag_126\n        /* \"SpageroTokenVesting_flattened.sol\":33326:33331  token */\n      dup4\n        /* \"SpageroTokenVesting_flattened.sol\":33340:33355  block.timestamp */\n      timestamp\n        /* \"SpageroTokenVesting_flattened.sol\":33313:33325  vestedAmount */\n      tag_45\n        /* \"SpageroTokenVesting_flattened.sol\":33313:33357  vestedAmount(token, uint64(block.timestamp)) */\n      jump\t// in\n    tag_126:\n        /* \"SpageroTokenVesting_flattened.sol\":33313:33375  vestedAmount(token, uint64(block.timestamp)) - released(token) */\n      tag_86\n      swap2\n      swap1\n      tag_128\n      jump\t// in\n        /* \"SpageroTokenVesting_flattened.sol\":32123:32208  function start() public view virtual returns (uint256) {... */\n    tag_71:\n        /* \"SpageroTokenVesting_flattened.sol\":32188:32201  return _start */\n      0xffffffffffffffff\n        /* \"SpageroTokenVesting_flattened.sol\":32195:32201  _start */\n      immutable(\"0x7e61868c26ad9542219295e4248d06589934ece56761f625f341eef80a4788c7\")\n        /* \"SpageroTokenVesting_flattened.sol\":32188:32201  return _start */\n      and\n      swap1\n        /* \"SpageroTokenVesting_flattened.sol\":32123:32208  function start() public view virtual returns (uint256) {... */\n      jump\t// out\n        /* \"SpageroTokenVesting_flattened.sol\":32430:32527  function end() public view virtual returns (uint256) {... */\n    tag_75:\n        /* \"SpageroTokenVesting_flattened.sol\":32474:32481  uint256 */\n      0x00\n        /* \"SpageroTokenVesting_flattened.sol\":32350:32359  _duration */\n      immutable(\"0x208ad8d9d4ca969ed7f17809392789f61ed5b8bb6f6790375ce7d972071a1fbe\")\n        /* \"SpageroTokenVesting_flattened.sol\":32343:32359  return _duration */\n      0xffffffffffffffff\n      and\n        /* \"SpageroTokenVesting_flattened.sol\":32500:32507  start() */\n      tag_132\n        /* \"SpageroTokenVesting_flattened.sol\":32500:32505  start */\n      tag_71\n        /* \"SpageroTokenVesting_flattened.sol\":32500:32507  start() */\n      jump\t// in\n    tag_132:\n        /* \"SpageroTokenVesting_flattened.sol\":32500:32520  start() + duration() */\n      tag_133\n      swap2\n      swap1\n      tag_89\n      jump\t// in\n    tag_133:\n        /* \"SpageroTokenVesting_flattened.sol\":32493:32520  return start() + duration() */\n      swap1\n      pop\n        /* \"SpageroTokenVesting_flattened.sol\":32430:32527  function end() public view virtual returns (uint256) {... */\n      swap1\n      jump\t// out\n        /* \"SpageroTokenVesting_flattened.sol\":28889:29104  function transferOwnership(address newOwner) public virtual onlyOwner {... */\n    tag_80:\n        /* \"SpageroTokenVesting_flattened.sol\":27877:27890  _checkOwner() */\n      tag_135\n        /* \"SpageroTokenVesting_flattened.sol\":27877:27888  _checkOwner */\n      tag_101\n        /* \"SpageroTokenVesting_flattened.sol\":27877:27890  _checkOwner() */\n      jump\t// in\n    tag_135:\n      sub(shl(0xa0, 0x01), 0x01)\n        /* \"SpageroTokenVesting_flattened.sol\":28973:28995  newOwner == address(0) */\n      dup2\n      and\n        /* \"SpageroTokenVesting_flattened.sol\":28969:29060  if (newOwner == address(0)) {... */\n      tag_137\n      jumpi\n        /* \"SpageroTokenVesting_flattened.sol\":29018:29049  OwnableInvalidOwner(address(0)) */\n      mload(0x40)\n      shl(0xe0, 0x1e4fbdf7)\n      dup2\n      mstore\n        /* \"SpageroTokenVesting_flattened.sol\":29046:29047  0 */\n      0x00\n        /* \"SpageroTokenVesting_flattened.sol\":29018:29049  OwnableInvalidOwner(address(0)) */\n      0x04\n      dup3\n      add\n        /* \"#utility.yul\":1339:1390   */\n      mstore\n        /* \"#utility.yul\":1312:1330   */\n      0x24\n      add\n        /* \"SpageroTokenVesting_flattened.sol\":29018:29049  OwnableInvalidOwner(address(0)) */\n    tag_138:\n      mload(0x40)\n      dup1\n      swap2\n      sub\n      swap1\n      revert\n        /* \"SpageroTokenVesting_flattened.sol\":28969:29060  if (newOwner == address(0)) {... */\n    tag_137:\n        /* \"SpageroTokenVesting_flattened.sol\":29069:29097  _transferOwnership(newOwner) */\n      tag_118\n        /* \"SpageroTokenVesting_flattened.sol\":29088:29096  newOwner */\n      dup2\n        /* \"SpageroTokenVesting_flattened.sol\":29069:29087  _transferOwnership */\n      tag_104\n        /* \"SpageroTokenVesting_flattened.sol\":29069:29097  _transferOwnership(newOwner) */\n      jump\t// in\n        /* \"SpageroTokenVesting_flattened.sol\":32941:33075  function releasable() public view virtual returns (uint256) {... */\n    tag_83:\n        /* \"SpageroTokenVesting_flattened.sol\":32992:32999  uint256 */\n      0x00\n        /* \"SpageroTokenVesting_flattened.sol\":33058:33068  released() */\n      tag_141\n        /* \"SpageroTokenVesting_flattened.sol\":32667:32676  _released */\n      sload(0x01)\n      swap1\n        /* \"SpageroTokenVesting_flattened.sol\":32592:32683  function released() public view virtual returns (uint256) {... */\n      jump\n        /* \"SpageroTokenVesting_flattened.sol\":33058:33068  released() */\n    tag_141:\n        /* \"SpageroTokenVesting_flattened.sol\":33018:33055  vestedAmount(uint64(block.timestamp)) */\n      tag_142\n        /* \"SpageroTokenVesting_flattened.sol\":33038:33053  block.timestamp */\n      timestamp\n        /* \"SpageroTokenVesting_flattened.sol\":33018:33030  vestedAmount */\n      tag_26\n        /* \"SpageroTokenVesting_flattened.sol\":33018:33055  vestedAmount(uint64(block.timestamp)) */\n      jump\t// in\n    tag_142:\n        /* \"SpageroTokenVesting_flattened.sol\":33018:33068  vestedAmount(uint64(block.timestamp)) - released() */\n      tag_133\n      swap2\n      swap1\n      tag_128\n      jump\t// in\n        /* \"SpageroTokenVesting_flattened.sol\":34931:35283  function _vestingSchedule(uint256 totalAllocation, uint64 timestamp) internal view virtual returns (uint256) {... */\n    tag_90:\n        /* \"SpageroTokenVesting_flattened.sol\":35031:35038  uint256 */\n      0x00\n        /* \"SpageroTokenVesting_flattened.sol\":35066:35073  start() */\n      tag_145\n        /* \"SpageroTokenVesting_flattened.sol\":35066:35071  start */\n      tag_71\n        /* \"SpageroTokenVesting_flattened.sol\":35066:35073  start() */\n      jump\t// in\n    tag_145:\n        /* \"SpageroTokenVesting_flattened.sol\":35054:35063  timestamp */\n      dup3\n        /* \"SpageroTokenVesting_flattened.sol\":35054:35073  timestamp < start() */\n      0xffffffffffffffff\n      and\n      lt\n        /* \"SpageroTokenVesting_flattened.sol\":35050:35277  if (timestamp < start()) {... */\n      iszero\n      tag_146\n      jumpi\n      pop\n        /* \"SpageroTokenVesting_flattened.sol\":35096:35097  0 */\n      0x00\n        /* \"SpageroTokenVesting_flattened.sol\":35089:35097  return 0 */\n      jump(tag_86)\n        /* \"SpageroTokenVesting_flattened.sol\":35050:35277  if (timestamp < start()) {... */\n    tag_146:\n        /* \"SpageroTokenVesting_flattened.sol\":35131:35136  end() */\n      tag_148\n        /* \"SpageroTokenVesting_flattened.sol\":35131:35134  end */\n      tag_75\n        /* \"SpageroTokenVesting_flattened.sol\":35131:35136  end() */\n      jump\t// in\n    tag_148:\n        /* \"SpageroTokenVesting_flattened.sol\":35118:35127  timestamp */\n      dup3\n        /* \"SpageroTokenVesting_flattened.sol\":35118:35136  timestamp >= end() */\n      0xffffffffffffffff\n      and\n      lt\n        /* \"SpageroTokenVesting_flattened.sol\":35114:35277  if (timestamp >= end()) {... */\n      tag_149\n      jumpi\n      pop\n        /* \"SpageroTokenVesting_flattened.sol\":35159:35174  totalAllocation */\n      dup2\n        /* \"SpageroTokenVesting_flattened.sol\":35152:35174  return totalAllocation */\n      jump(tag_86)\n        /* \"SpageroTokenVesting_flattened.sol\":35114:35277  if (timestamp >= end()) {... */\n    tag_149:\n        /* \"SpageroTokenVesting_flattened.sol\":32350:32359  _duration */\n      immutable(\"0x208ad8d9d4ca969ed7f17809392789f61ed5b8bb6f6790375ce7d972071a1fbe\")\n        /* \"SpageroTokenVesting_flattened.sol\":32343:32359  return _duration */\n      0xffffffffffffffff\n      and\n        /* \"SpageroTokenVesting_flattened.sol\":35244:35251  start() */\n      tag_152\n        /* \"SpageroTokenVesting_flattened.sol\":35244:35249  start */\n      tag_71\n        /* \"SpageroTokenVesting_flattened.sol\":35244:35251  start() */\n      jump\t// in\n    tag_152:\n        /* \"SpageroTokenVesting_flattened.sol\":35232:35251  timestamp - start() */\n      tag_153\n      swap1\n      0xffffffffffffffff\n      dup6\n      and\n      tag_128\n      jump\t// in\n    tag_153:\n        /* \"SpageroTokenVesting_flattened.sol\":35213:35252  totalAllocation * (timestamp - start()) */\n      tag_154\n      swap1\n        /* \"SpageroTokenVesting_flattened.sol\":35213:35228  totalAllocation */\n      dup6\n        /* \"SpageroTokenVesting_flattened.sol\":35213:35252  totalAllocation * (timestamp - start()) */\n      tag_155\n      jump\t// in\n    tag_154:\n        /* \"SpageroTokenVesting_flattened.sol\":35212:35266  (totalAllocation * (timestamp - start())) / duration() */\n      tag_156\n      swap2\n      swap1\n      tag_157\n      jump\t// in\n    tag_156:\n        /* \"SpageroTokenVesting_flattened.sol\":35205:35266  return (totalAllocation * (timestamp - start())) / duration() */\n      swap1\n      pop\n      jump(tag_86)\n        /* \"SpageroTokenVesting_flattened.sol\":9630:9790  function safeTransfer(IERC20 token, address to, uint256 value) internal {... */\n    tag_98:\n        /* \"SpageroTokenVesting_flattened.sol\":9739:9782  abi.encodeCall(token.transfer, (to, value)) */\n      0x40\n      dup1\n      mload\n      sub(shl(0xa0, 0x01), 0x01)\n        /* \"#utility.yul\":2572:2604   */\n      dup5\n      and\n        /* \"SpageroTokenVesting_flattened.sol\":9739:9782  abi.encodeCall(token.transfer, (to, value)) */\n      0x24\n      dup3\n      add\n        /* \"#utility.yul\":2554:2605   */\n      mstore\n        /* \"#utility.yul\":2621:2639   */\n      0x44\n      dup1\n      dup3\n      add\n        /* \"#utility.yul\":2614:2648   */\n      dup5\n      swap1\n      mstore\n        /* \"SpageroTokenVesting_flattened.sol\":9739:9782  abi.encodeCall(token.transfer, (to, value)) */\n      dup3\n      mload\n      dup1\n      dup4\n      sub\n      swap1\n      swap2\n      add\n      dup2\n      mstore\n        /* \"#utility.yul\":2527:2545   */\n      0x64\n      swap1\n      swap2\n      add\n        /* \"SpageroTokenVesting_flattened.sol\":9739:9782  abi.encodeCall(token.transfer, (to, value)) */\n      swap1\n      swap2\n      mstore\n      0x20\n      dup2\n      add\n      dup1\n      mload\n      sub(shl(0xe0, 0x01), 0x01)\n      and\n      shl(0xe0, 0xa9059cbb)\n      or\n      swap1\n      mstore\n        /* \"SpageroTokenVesting_flattened.sol\":9712:9783  _callOptionalReturn(token, abi.encodeCall(token.transfer, (to, value))) */\n      tag_159\n      swap1\n        /* \"SpageroTokenVesting_flattened.sol\":9732:9737  token */\n      dup5\n      swap1\n        /* \"SpageroTokenVesting_flattened.sol\":9712:9731  _callOptionalReturn */\n      tag_162\n        /* \"SpageroTokenVesting_flattened.sol\":9712:9783  _callOptionalReturn(token, abi.encodeCall(token.transfer, (to, value))) */\n      jump\t// in\n    tag_159:\n        /* \"SpageroTokenVesting_flattened.sol\":9630:9790  function safeTransfer(IERC20 token, address to, uint256 value) internal {... */\n      pop\n      pop\n      pop\n      jump\t// out\n        /* \"SpageroTokenVesting_flattened.sol\":28142:28304  function _checkOwner() internal view virtual {... */\n    tag_101:\n        /* \"SpageroTokenVesting_flattened.sol\":28030:28037  address */\n      0x00\n        /* \"SpageroTokenVesting_flattened.sol\":28056:28062  _owner */\n      sload\n      sub(shl(0xa0, 0x01), 0x01)\n      and\n        /* \"SpageroTokenVesting_flattened.sol\":26141:26151  msg.sender */\n      caller\n        /* \"SpageroTokenVesting_flattened.sol\":28201:28224  owner() != _msgSender() */\n      eq\n        /* \"SpageroTokenVesting_flattened.sol\":28197:28298  if (owner() != _msgSender()) {... */\n      tag_103\n      jumpi\n        /* \"SpageroTokenVesting_flattened.sol\":28247:28287  OwnableUnauthorizedAccount(_msgSender()) */\n      mload(0x40)\n      shl(0xe0, 0x118cdaa7)\n      dup2\n      mstore\n        /* \"SpageroTokenVesting_flattened.sol\":26141:26151  msg.sender */\n      caller\n        /* \"SpageroTokenVesting_flattened.sol\":28247:28287  OwnableUnauthorizedAccount(_msgSender()) */\n      0x04\n      dup3\n      add\n        /* \"#utility.yul\":1339:1390   */\n      mstore\n        /* \"#utility.yul\":1312:1330   */\n      0x24\n      add\n        /* \"SpageroTokenVesting_flattened.sol\":28247:28287  OwnableUnauthorizedAccount(_msgSender()) */\n      tag_138\n        /* \"#utility.yul\":1193:1396   */\n      jump\n        /* \"SpageroTokenVesting_flattened.sol\":29258:29445  function _transferOwnership(address newOwner) internal virtual {... */\n    tag_104:\n        /* \"SpageroTokenVesting_flattened.sol\":29331:29347  address oldOwner */\n      0x00\n        /* \"SpageroTokenVesting_flattened.sol\":29350:29356  _owner */\n      dup1\n      sload\n      sub(shl(0xa0, 0x01), 0x01)\n        /* \"SpageroTokenVesting_flattened.sol\":29366:29383  _owner = newOwner */\n      dup4\n      dup2\n      and\n      not(sub(shl(0xa0, 0x01), 0x01))\n      dup4\n      and\n      dup2\n      or\n      dup5\n      sstore\n        /* \"SpageroTokenVesting_flattened.sol\":29398:29438  OwnershipTransferred(oldOwner, newOwner) */\n      mload(0x40)\n        /* \"SpageroTokenVesting_flattened.sol\":29350:29356  _owner */\n      swap2\n      swap1\n      swap3\n      and\n      swap3\n      dup4\n      swap2\n        /* \"SpageroTokenVesting_flattened.sol\":29398:29438  OwnershipTransferred(oldOwner, newOwner) */\n      0x8be0079c531659141344cd1fd0a4f28419497f9722a3daafe3b4186f6b6457e0\n      swap2\n        /* \"SpageroTokenVesting_flattened.sol\":29331:29347  address oldOwner */\n      swap1\n        /* \"SpageroTokenVesting_flattened.sol\":29398:29438  OwnershipTransferred(oldOwner, newOwner) */\n      log3\n        /* \"SpageroTokenVesting_flattened.sol\":29321:29445  {... */\n      pop\n        /* \"SpageroTokenVesting_flattened.sol\":29258:29445  function _transferOwnership(address newOwner) internal virtual {... */\n      pop\n      jump\t// out\n        /* \"SpageroTokenVesting_flattened.sol\":20678:21043  function sendValue(address payable recipient, uint256 amount) internal {... */\n    tag_120:\n        /* \"SpageroTokenVesting_flattened.sol\":20787:20793  amount */\n      dup1\n        /* \"SpageroTokenVesting_flattened.sol\":20763:20784  address(this).balance */\n      selfbalance\n        /* \"SpageroTokenVesting_flattened.sol\":20763:20793  address(this).balance < amount */\n      lt\n        /* \"SpageroTokenVesting_flattened.sol\":20759:20884  if (address(this).balance < amount) {... */\n      iszero\n      tag_172\n      jumpi\n        /* \"SpageroTokenVesting_flattened.sol\":20816:20873  Errors.InsufficientBalance(address(this).balance, amount) */\n      mload(0x40)\n      shl(0xe0, 0xcf479181)\n      dup2\n      mstore\n        /* \"SpageroTokenVesting_flattened.sol\":20843:20864  address(this).balance */\n      selfbalance\n        /* \"SpageroTokenVesting_flattened.sol\":20816:20873  Errors.InsufficientBalance(address(this).balance, amount) */\n      0x04\n      dup3\n      add\n        /* \"#utility.yul\":2833:2858   */\n      mstore\n        /* \"#utility.yul\":2874:2892   */\n      0x24\n      dup2\n      add\n        /* \"#utility.yul\":2867:2901   */\n      dup3\n      swap1\n      mstore\n        /* \"#utility.yul\":2806:2824   */\n      0x44\n      add\n        /* \"SpageroTokenVesting_flattened.sol\":20816:20873  Errors.InsufficientBalance(address(this).balance, amount) */\n      tag_138\n        /* \"#utility.yul\":2659:2907   */\n      jump\n        /* \"SpageroTokenVesting_flattened.sol\":20759:20884  if (address(this).balance < amount) {... */\n    tag_172:\n        /* \"SpageroTokenVesting_flattened.sol\":20895:20907  bool success */\n      0x00\n        /* \"SpageroTokenVesting_flattened.sol\":20909:20932  bytes memory returndata */\n      dup1\n        /* \"SpageroTokenVesting_flattened.sol\":20936:20945  recipient */\n      dup4\n      sub(shl(0xa0, 0x01), 0x01)\n        /* \"SpageroTokenVesting_flattened.sol\":20936:20950  recipient.call */\n      and\n        /* \"SpageroTokenVesting_flattened.sol\":20958:20964  amount */\n      dup4\n        /* \"SpageroTokenVesting_flattened.sol\":20936:20969  recipient.call{value: amount}(\"\") */\n      mload(0x40)\n      0x00\n      mload(0x40)\n      dup1\n      dup4\n      sub\n      dup2\n      dup6\n      dup8\n      gas\n      call\n      swap3\n      pop\n      pop\n      pop\n      returndatasize\n      dup1\n      0x00\n      dup2\n      eq\n      tag_179\n      jumpi\n      mload(0x40)\n      swap2\n      pop\n      and(add(returndatasize, 0x3f), not(0x1f))\n      dup3\n      add\n      0x40\n      mstore\n      returndatasize\n      dup3\n      mstore\n      returndatasize\n      0x00\n      0x20\n      dup5\n      add\n      returndatacopy\n      jump(tag_178)\n    tag_179:\n      0x60\n      swap2\n      pop\n    tag_178:\n      pop\n        /* \"SpageroTokenVesting_flattened.sol\":20894:20969  (bool success, bytes memory returndata) = recipient.call{value: amount}(\"\") */\n      swap2\n      pop\n      swap2\n      pop\n        /* \"SpageroTokenVesting_flattened.sol\":20984:20991  success */\n      dup2\n        /* \"SpageroTokenVesting_flattened.sol\":20979:21037  if (!success) {... */\n      tag_181\n      jumpi\n        /* \"SpageroTokenVesting_flattened.sol\":21007:21026  _revert(returndata) */\n      tag_181\n        /* \"SpageroTokenVesting_flattened.sol\":21015:21025  returndata */\n      dup2\n        /* \"SpageroTokenVesting_flattened.sol\":21007:21014  _revert */\n      tag_182\n        /* \"SpageroTokenVesting_flattened.sol\":21007:21026  _revert(returndata) */\n      jump\t// in\n    tag_181:\n        /* \"SpageroTokenVesting_flattened.sol\":20749:21043  {... */\n      pop\n      pop\n        /* \"SpageroTokenVesting_flattened.sol\":20678:21043  function sendValue(address payable recipient, uint256 amount) internal {... */\n      pop\n      pop\n      jump\t// out\n        /* \"SpageroTokenVesting_flattened.sol\":16781:17501  function _callOptionalReturn(IERC20 token, bytes memory data) private {... */\n    tag_162:\n        /* \"SpageroTokenVesting_flattened.sol\":16861:16879  uint256 returnSize */\n      0x00\n        /* \"SpageroTokenVesting_flattened.sol\":16889:16908  uint256 returnValue */\n      dup1\n        /* \"SpageroTokenVesting_flattened.sol\":17027:17031  0x20 */\n      0x20\n        /* \"SpageroTokenVesting_flattened.sol\":17024:17025  0 */\n      0x00\n        /* \"SpageroTokenVesting_flattened.sol\":17017:17021  data */\n      dup5\n        /* \"SpageroTokenVesting_flattened.sol\":17011:17022  mload(data) */\n      mload\n        /* \"SpageroTokenVesting_flattened.sol\":17004:17008  0x20 */\n      0x20\n        /* \"SpageroTokenVesting_flattened.sol\":16998:17002  data */\n      dup7\n        /* \"SpageroTokenVesting_flattened.sol\":16994:17009  add(data, 0x20) */\n      add\n        /* \"SpageroTokenVesting_flattened.sol\":16991:16992  0 */\n      0x00\n        /* \"SpageroTokenVesting_flattened.sol\":16984:16989  token */\n      dup9\n        /* \"SpageroTokenVesting_flattened.sol\":16977:16982  gas() */\n      gas\n        /* \"SpageroTokenVesting_flattened.sol\":16972:17032  call(gas(), token, 0, add(data, 0x20), mload(data), 0, 0x20) */\n      call\n        /* \"SpageroTokenVesting_flattened.sol\":17084:17091  success */\n      dup1\n        /* \"SpageroTokenVesting_flattened.sol\":17074:17250  if iszero(success) {... */\n      tag_184\n      jumpi\n        /* \"SpageroTokenVesting_flattened.sol\":17128:17132  0x40 */\n      0x40\n        /* \"SpageroTokenVesting_flattened.sol\":17122:17133  mload(0x40) */\n      mload\n        /* \"SpageroTokenVesting_flattened.sol\":17173:17189  returndatasize() */\n      returndatasize\n        /* \"SpageroTokenVesting_flattened.sol\":17170:17171  0 */\n      0x00\n        /* \"SpageroTokenVesting_flattened.sol\":17165:17168  ptr */\n      dup3\n        /* \"SpageroTokenVesting_flattened.sol\":17150:17190  returndatacopy(ptr, 0, returndatasize()) */\n      returndatacopy\n        /* \"SpageroTokenVesting_flattened.sol\":17219:17235  returndatasize() */\n      returndatasize\n        /* \"SpageroTokenVesting_flattened.sol\":17214:17217  ptr */\n      dup2\n        /* \"SpageroTokenVesting_flattened.sol\":17207:17236  revert(ptr, returndatasize()) */\n      revert\n        /* \"SpageroTokenVesting_flattened.sol\":17074:17250  if iszero(success) {... */\n    tag_184:\n      pop\n      pop\n        /* \"SpageroTokenVesting_flattened.sol\":17327:17328  0 */\n      0x00\n        /* \"SpageroTokenVesting_flattened.sol\":17321:17329  mload(0) */\n      mload\n        /* \"SpageroTokenVesting_flattened.sol\":17277:17293  returndatasize() */\n      returndatasize\n      swap2\n      pop\n        /* \"SpageroTokenVesting_flattened.sol\":17353:17368  returnSize == 0 */\n      dup2\n      iszero\n        /* \"SpageroTokenVesting_flattened.sol\":17353:17421  returnSize == 0 ? address(token).code.length == 0 : returnValue != 1 */\n      tag_185\n      jumpi\n        /* \"SpageroTokenVesting_flattened.sol\":17405:17416  returnValue */\n      dup1\n        /* \"SpageroTokenVesting_flattened.sol\":17420:17421  1 */\n      0x01\n        /* \"SpageroTokenVesting_flattened.sol\":17405:17421  returnValue != 1 */\n      eq\n      iszero\n        /* \"SpageroTokenVesting_flattened.sol\":17353:17421  returnSize == 0 ? address(token).code.length == 0 : returnValue != 1 */\n      jump(tag_186)\n    tag_185:\n      sub(shl(0xa0, 0x01), 0x01)\n        /* \"SpageroTokenVesting_flattened.sol\":17371:17397  address(token).code.length */\n      dup5\n      and\n      extcodesize\n        /* \"SpageroTokenVesting_flattened.sol\":17371:17402  address(token).code.length == 0 */\n      iszero\n        /* \"SpageroTokenVesting_flattened.sol\":17353:17421  returnSize == 0 ? address(token).code.length == 0 : returnValue != 1 */\n    tag_186:\n        /* \"SpageroTokenVesting_flattened.sol\":17349:17495  if (returnSize == 0 ? address(token).code.length == 0 : returnValue != 1) {... */\n      iszero\n      tag_181\n      jumpi\n        /* \"SpageroTokenVesting_flattened.sol\":17444:17484  SafeERC20FailedOperation(address(token)) */\n      mload(0x40)\n      shl(0xe0, 0x5274afe7)\n      dup2\n      mstore\n      sub(shl(0xa0, 0x01), 0x01)\n        /* \"#utility.yul\":1357:1389   */\n      dup6\n      and\n        /* \"SpageroTokenVesting_flattened.sol\":17444:17484  SafeERC20FailedOperation(address(token)) */\n      0x04\n      dup3\n      add\n        /* \"#utility.yul\":1339:1390   */\n      mstore\n        /* \"#utility.yul\":1312:1330   */\n      0x24\n      add\n        /* \"SpageroTokenVesting_flattened.sol\":17444:17484  SafeERC20FailedOperation(address(token)) */\n      tag_138\n        /* \"#utility.yul\":1193:1396   */\n      jump\n        /* \"SpageroTokenVesting_flattened.sol\":24947:25381  function _revert(bytes memory returndata) private pure {... */\n    tag_182:\n        /* \"SpageroTokenVesting_flattened.sol\":25078:25095  returndata.length */\n      dup1\n      mload\n        /* \"SpageroTokenVesting_flattened.sol\":25078:25099  returndata.length > 0 */\n      iszero\n        /* \"SpageroTokenVesting_flattened.sol\":25074:25375  if (returndata.length > 0) {... */\n      tag_191\n      jumpi\n        /* \"SpageroTokenVesting_flattened.sol\":25282:25292  returndata */\n      dup1\n        /* \"SpageroTokenVesting_flattened.sol\":25276:25293  mload(returndata) */\n      mload\n        /* \"SpageroTokenVesting_flattened.sol\":25269:25273  0x20 */\n      0x20\n        /* \"SpageroTokenVesting_flattened.sol\":25257:25267  returndata */\n      dup3\n        /* \"SpageroTokenVesting_flattened.sol\":25253:25274  add(returndata, 0x20) */\n      add\n        /* \"SpageroTokenVesting_flattened.sol\":25246:25294  revert(add(returndata, 0x20), mload(returndata)) */\n      revert\n        /* \"SpageroTokenVesting_flattened.sol\":25074:25375  if (returndata.length > 0) {... */\n    tag_191:\n        /* \"SpageroTokenVesting_flattened.sol\":25345:25364  Errors.FailedCall() */\n      mload(0x40)\n      shl(0xe0, 0xd6bda275)\n      dup2\n      mstore\n      0x04\n      add\n      mload(0x40)\n      dup1\n      swap2\n      sub\n      swap1\n      revert\n        /* \"#utility.yul\":14:185   */\n    tag_193:\n        /* \"#utility.yul\":81:101   */\n      dup1\n      calldataload\n        /* \"#utility.yul\":141:159   */\n      0xffffffffffffffff\n        /* \"#utility.yul\":130:160   */\n      dup2\n      and\n        /* \"#utility.yul\":120:161   */\n      dup2\n      eq\n        /* \"#utility.yul\":110:179   */\n      tag_198\n      jumpi\n        /* \"#utility.yul\":175:176   */\n      0x00\n        /* \"#utility.yul\":172:173   */\n      dup1\n        /* \"#utility.yul\":165:177   */\n      revert\n        /* \"#utility.yul\":110:179   */\n    tag_198:\n        /* \"#utility.yul\":14:185   */\n      swap2\n      swap1\n      pop\n      jump\t// out\n        /* \"#utility.yul\":190:374   */\n    tag_25:\n        /* \"#utility.yul\":248:254   */\n      0x00\n        /* \"#utility.yul\":301:303   */\n      0x20\n        /* \"#utility.yul\":289:298   */\n      dup3\n        /* \"#utility.yul\":280:287   */\n      dup5\n        /* \"#utility.yul\":276:299   */\n      sub\n        /* \"#utility.yul\":272:304   */\n      slt\n        /* \"#utility.yul\":269:321   */\n      iszero\n      tag_200\n      jumpi\n        /* \"#utility.yul\":317:318   */\n      0x00\n        /* \"#utility.yul\":314:315   */\n      dup1\n        /* \"#utility.yul\":307:319   */\n      revert\n        /* \"#utility.yul\":269:321   */\n    tag_200:\n        /* \"#utility.yul\":340:368   */\n      tag_106\n        /* \"#utility.yul\":358:367   */\n      dup3\n        /* \"#utility.yul\":340:368   */\n      tag_193\n      jump\t// in\n        /* \"#utility.yul\":561:734   */\n    tag_194:\n        /* \"#utility.yul\":629:649   */\n      dup1\n      calldataload\n      sub(shl(0xa0, 0x01), 0x01)\n        /* \"#utility.yul\":678:709   */\n      dup2\n      and\n        /* \"#utility.yul\":668:710   */\n      dup2\n      eq\n        /* \"#utility.yul\":658:728   */\n      tag_198\n      jumpi\n        /* \"#utility.yul\":724:725   */\n      0x00\n        /* \"#utility.yul\":721:722   */\n      dup1\n        /* \"#utility.yul\":714:726   */\n      revert\n        /* \"#utility.yul\":739:925   */\n    tag_36:\n        /* \"#utility.yul\":798:804   */\n      0x00\n        /* \"#utility.yul\":851:853   */\n      0x20\n        /* \"#utility.yul\":839:848   */\n      dup3\n        /* \"#utility.yul\":830:837   */\n      dup5\n        /* \"#utility.yul\":826:849   */\n      sub\n        /* \"#utility.yul\":822:854   */\n      slt\n        /* \"#utility.yul\":819:871   */\n      iszero\n      tag_206\n      jumpi\n        /* \"#utility.yul\":867:868   */\n      0x00\n        /* \"#utility.yul\":864:865   */\n      dup1\n        /* \"#utility.yul\":857:869   */\n      revert\n        /* \"#utility.yul\":819:871   */\n    tag_206:\n        /* \"#utility.yul\":890:919   */\n      tag_106\n        /* \"#utility.yul\":909:918   */\n      dup3\n        /* \"#utility.yul\":890:919   */\n      tag_194\n      jump\t// in\n        /* \"#utility.yul\":930:1188   */\n    tag_44:\n        /* \"#utility.yul\":997:1003   */\n      0x00\n        /* \"#utility.yul\":1005:1011   */\n      dup1\n        /* \"#utility.yul\":1058:1060   */\n      0x40\n        /* \"#utility.yul\":1046:1055   */\n      dup4\n        /* \"#utility.yul\":1037:1044   */\n      dup6\n        /* \"#utility.yul\":1033:1056   */\n      sub\n        /* \"#utility.yul\":1029:1061   */\n      slt\n        /* \"#utility.yul\":1026:1078   */\n      iszero\n      tag_209\n      jumpi\n        /* \"#utility.yul\":1074:1075   */\n      0x00\n        /* \"#utility.yul\":1071:1072   */\n      dup1\n        /* \"#utility.yul\":1064:1076   */\n      revert\n        /* \"#utility.yul\":1026:1078   */\n    tag_209:\n        /* \"#utility.yul\":1097:1126   */\n      tag_210\n        /* \"#utility.yul\":1116:1125   */\n      dup4\n        /* \"#utility.yul\":1097:1126   */\n      tag_194\n      jump\t// in\n    tag_210:\n        /* \"#utility.yul\":1087:1126   */\n      swap2\n      pop\n        /* \"#utility.yul\":1145:1182   */\n      tag_211\n        /* \"#utility.yul\":1178:1180   */\n      0x20\n        /* \"#utility.yul\":1167:1176   */\n      dup5\n        /* \"#utility.yul\":1163:1181   */\n      add\n        /* \"#utility.yul\":1145:1182   */\n      tag_193\n      jump\t// in\n    tag_211:\n        /* \"#utility.yul\":1135:1182   */\n      swap1\n      pop\n        /* \"#utility.yul\":930:1188   */\n      swap3\n      pop\n      swap3\n      swap1\n      pop\n      jump\t// out\n        /* \"#utility.yul\":1401:1528   */\n    tag_195:\n        /* \"#utility.yul\":1462:1472   */\n      0x4e487b71\n        /* \"#utility.yul\":1457:1460   */\n      0xe0\n        /* \"#utility.yul\":1453:1473   */\n      shl\n        /* \"#utility.yul\":1450:1451   */\n      0x00\n        /* \"#utility.yul\":1443:1474   */\n      mstore\n        /* \"#utility.yul\":1493:1497   */\n      0x11\n        /* \"#utility.yul\":1490:1491   */\n      0x04\n        /* \"#utility.yul\":1483:1498   */\n      mstore\n        /* \"#utility.yul\":1517:1521   */\n      0x24\n        /* \"#utility.yul\":1514:1515   */\n      0x00\n        /* \"#utility.yul\":1507:1522   */\n      revert\n        /* \"#utility.yul\":1533:1658   */\n    tag_89:\n        /* \"#utility.yul\":1598:1607   */\n      dup1\n      dup3\n      add\n        /* \"#utility.yul\":1619:1629   */\n      dup1\n      dup3\n      gt\n        /* \"#utility.yul\":1616:1652   */\n      iszero\n      tag_86\n      jumpi\n        /* \"#utility.yul\":1632:1650   */\n      tag_86\n      tag_195\n      jump\t// in\n        /* \"#utility.yul\":1663:1847   */\n    tag_112:\n        /* \"#utility.yul\":1733:1739   */\n      0x00\n        /* \"#utility.yul\":1786:1788   */\n      0x20\n        /* \"#utility.yul\":1774:1783   */\n      dup3\n        /* \"#utility.yul\":1765:1772   */\n      dup5\n        /* \"#utility.yul\":1761:1784   */\n      sub\n        /* \"#utility.yul\":1757:1789   */\n      slt\n        /* \"#utility.yul\":1754:1806   */\n      iszero\n      tag_218\n      jumpi\n        /* \"#utility.yul\":1802:1803   */\n      0x00\n        /* \"#utility.yul\":1799:1800   */\n      dup1\n        /* \"#utility.yul\":1792:1804   */\n      revert\n        /* \"#utility.yul\":1754:1806   */\n    tag_218:\n      pop\n        /* \"#utility.yul\":1825:1841   */\n      mload\n      swap2\n        /* \"#utility.yul\":1663:1847   */\n      swap1\n      pop\n      jump\t// out\n        /* \"#utility.yul\":1852:1980   */\n    tag_128:\n        /* \"#utility.yul\":1919:1928   */\n      dup2\n      dup2\n      sub\n        /* \"#utility.yul\":1940:1951   */\n      dup2\n      dup2\n      gt\n        /* \"#utility.yul\":1937:1974   */\n      iszero\n      tag_86\n      jumpi\n        /* \"#utility.yul\":1954:1972   */\n      tag_86\n      tag_195\n      jump\t// in\n        /* \"#utility.yul\":1985:2153   */\n    tag_155:\n        /* \"#utility.yul\":2058:2067   */\n      dup1\n      dup3\n      mul\n        /* \"#utility.yul\":2089:2098   */\n      dup2\n      iszero\n        /* \"#utility.yul\":2106:2121   */\n      dup3\n      dup3\n      div\n        /* \"#utility.yul\":2100:2122   */\n      dup5\n      eq\n        /* \"#utility.yul\":2086:2123   */\n      or\n        /* \"#utility.yul\":2076:2147   */\n      tag_86\n      jumpi\n        /* \"#utility.yul\":2127:2145   */\n      tag_86\n      tag_195\n      jump\t// in\n        /* \"#utility.yul\":2158:2375   */\n    tag_157:\n        /* \"#utility.yul\":2198:2199   */\n      0x00\n        /* \"#utility.yul\":2224:2225   */\n      dup3\n        /* \"#utility.yul\":2214:2346   */\n      tag_226\n      jumpi\n        /* \"#utility.yul\":2268:2278   */\n      0x4e487b71\n        /* \"#utility.yul\":2263:2266   */\n      0xe0\n        /* \"#utility.yul\":2259:2279   */\n      shl\n        /* \"#utility.yul\":2256:2257   */\n      0x00\n        /* \"#utility.yul\":2249:2280   */\n      mstore\n        /* \"#utility.yul\":2303:2307   */\n      0x12\n        /* \"#utility.yul\":2300:2301   */\n      0x04\n        /* \"#utility.yul\":2293:2308   */\n      mstore\n        /* \"#utility.yul\":2331:2335   */\n      0x24\n        /* \"#utility.yul\":2328:2329   */\n      0x00\n        /* \"#utility.yul\":2321:2336   */\n      revert\n        /* \"#utility.yul\":2214:2346   */\n    tag_226:\n      pop\n        /* \"#utility.yul\":2360:2369   */\n      div\n      swap1\n        /* \"#utility.yul\":2158:2375   */\n      jump\t// out\n\n    auxdata: 0xa26469706673582212201ae47f49ce7d9e5b3c526304a294f595e66db3648f5ffd040bba355ae604fa1364736f6c63430008180033\n}\n",
				"bytecode": {
					"linkReferences": {},
					"object": "60c0604052604051610ab4380380610ab4833981016040819052610022916100dc565b826001600160a01b03811661005057604051631e4fbdf760e01b81525f600482015260240160405180910390fd5b61005981610072565b506001600160401b039182166080521660a05250610129565b5f80546001600160a01b038381166001600160a01b0319831681178455604051919092169283917f8be0079c531659141344cd1fd0a4f28419497f9722a3daafe3b4186f6b6457e09190a35050565b80516001600160401b03811681146100d7575f80fd5b919050565b5f805f606084860312156100ee575f80fd5b83516001600160a01b0381168114610104575f80fd5b9250610112602085016100c1565b9150610120604085016100c1565b90509250925092565b60805160a05161095c6101585f395f8181610127015281816104d401526105b201525f6104ae015261095c5ff3fe6080604052600436106100dc575f3560e01c8063961325211161007c578063be9a655511610057578063be9a65551461024a578063efbe1c1c1461025e578063f2fde38b14610272578063fbccedae14610291575f80fd5b806396132521146101e35780639852595c146101f7578063a3f8eace1461022b575f80fd5b8063715018a6116100b7578063715018a614610176578063810ec23b1461018a57806386d1a69f146101a95780638da5cb5b146101bd575f80fd5b80630a17b06b146100e75780630fb5a6b4146101195780631916558714610155575f80fd5b366100e357005b5f80fd5b3480156100f2575f80fd5b50610106610101366004610826565b6102a5565b6040519081526020015b60405180910390f35b348015610124575f80fd5b507f000000000000000000000000000000000000000000000000000000000000000067ffffffffffffffff16610106565b348015610160575f80fd5b5061017461016f366004610855565b6102c8565b005b348015610181575f80fd5b50610174610360565b348015610195575f80fd5b506101066101a436600461086e565b610373565b3480156101b4575f80fd5b50610174610406565b3480156101c8575f80fd5b505f546040516001600160a01b039091168152602001610110565b3480156101ee575f80fd5b50600154610106565b348015610202575f80fd5b50610106610211366004610855565b6001600160a01b03165f9081526002602052604090205490565b348015610236575f80fd5b50610106610245366004610855565b610477565b348015610255575f80fd5b506101066104a3565b348015610269575f80fd5b506101066104d1565b34801561027d575f80fd5b5061017461028c366004610855565b610514565b34801561029c575f80fd5b50610106610553565b5f6102c26102b260015490565b6102bc90476108b3565b83610570565b92915050565b5f6102d282610477565b6001600160a01b0383165f908152600260205260408120805492935083929091906102fe9084906108b3565b90915550506040518181526001600160a01b038316907fc0e523490dd523c33b1878c9eb14ff46991e3f5b2cd33710918618f2a39cba1b9060200160405180910390a261035c826103565f546001600160a01b031690565b83610612565b5050565b610368610669565b6103715f610695565b565b6001600160a01b0382165f908152600260205260408120546103ff906040516370a0823160e01b81523060048201526001600160a01b038616906370a0823190602401602060405180830381865afa1580156103d1573d5f803e3d5ffd5b505050506040513d601f19601f820116820180604052508101906103f591906108c6565b6102bc91906108b3565b9392505050565b5f61040f610553565b90508060015f82825461042291906108b3565b90915550506040518181527fda9d4e5f101b8b9b1c5b76d0c5a9f7923571acfc02376aa076b75a8c080c956b9060200160405180910390a161047461046e5f546001600160a01b031690565b826106e4565b50565b6001600160a01b0381165f908152600260205260408120546104998342610373565b6102c291906108dd565b67ffffffffffffffff7f00000000000000000000000000000000000000000000000000000000000000001690565b5f7f000000000000000000000000000000000000000000000000000000000000000067ffffffffffffffff166105056104a3565b61050f91906108b3565b905090565b61051c610669565b6001600160a01b03811661054a57604051631e4fbdf760e01b81525f60048201526024015b60405180910390fd5b61047481610695565b5f61055d60015490565b610566426102a5565b61050f91906108dd565b5f6105796104a3565b8267ffffffffffffffff16101561059157505f6102c2565b6105996104d1565b8267ffffffffffffffff16106105b05750816102c2565b7f000000000000000000000000000000000000000000000000000000000000000067ffffffffffffffff166105e36104a3565b6105f79067ffffffffffffffff85166108dd565b61060190856108f0565b61060b9190610907565b90506102c2565b604080516001600160a01b038416602482015260448082018490528251808303909101815260649091019091526020810180516001600160e01b031663a9059cbb60e01b179052610664908490610776565b505050565b5f546001600160a01b031633146103715760405163118cdaa760e01b8152336004820152602401610541565b5f80546001600160a01b038381166001600160a01b0319831681178455604051919092169283917f8be0079c531659141344cd1fd0a4f28419497f9722a3daafe3b4186f6b6457e09190a35050565b8047101561070e5760405163cf47918160e01b815247600482015260248101829052604401610541565b5f80836001600160a01b0316836040515f6040518083038185875af1925050503d805f8114610758576040519150601f19603f3d011682016040523d82523d5f602084013e61075d565b606091505b50915091508161077057610770816107e2565b50505050565b5f8060205f8451602086015f885af180610795576040513d5f823e3d81fd5b50505f513d915081156107ac5780600114156107b9565b6001600160a01b0384163b155b1561077057604051635274afe760e01b81526001600160a01b0385166004820152602401610541565b8051156107f157805160208201fd5b60405163d6bda27560e01b815260040160405180910390fd5b803567ffffffffffffffff81168114610821575f80fd5b919050565b5f60208284031215610836575f80fd5b6103ff8261080a565b80356001600160a01b0381168114610821575f80fd5b5f60208284031215610865575f80fd5b6103ff8261083f565b5f806040838503121561087f575f80fd5b6108888361083f565b91506108966020840161080a565b90509250929050565b634e487b7160e01b5f52601160045260245ffd5b808201808211156102c2576102c261089f565b5f602082840312156108d6575f80fd5b5051919050565b818103818111156102c2576102c261089f565b80820281158282048414176102c2576102c261089f565b5f8261092157634e487b7160e01b5f52601260045260245ffd5b50049056fea26469706673582212201ae47f49ce7d9e5b3c526304a294f595e66db3648f5ffd040bba355ae604fa1364736f6c63430008180033",
					"opcodes": "PUSH1 0xC0 PUSH1 0x40 MSTORE PUSH1 0x40 MLOAD PUSH2 0xAB4 CODESIZE SUB DUP1 PUSH2 0xAB4 DUP4 CODECOPY DUP2 ADD PUSH1 0x40 DUP2 SWAP1 MSTORE PUSH2 0x22 SWAP2 PUSH2 0xDC JUMP JUMPDEST DUP3 PUSH1 0x1 PUSH1 0x1 PUSH1 0xA0 SHL SUB DUP2 AND PUSH2 0x50 JUMPI PUSH1 0x40 MLOAD PUSH4 0x1E4FBDF7 PUSH1 0xE0 SHL DUP2 MSTORE PUSH0 PUSH1 0x4 DUP3 ADD MSTORE PUSH1 0x24 ADD PUSH1 0x40 MLOAD DUP1 SWAP2 SUB SWAP1 REVERT JUMPDEST PUSH2 0x59 DUP2 PUSH2 0x72 JUMP JUMPDEST POP PUSH1 0x1 PUSH1 0x1 PUSH1 0x40 SHL SUB SWAP2 DUP3 AND PUSH1 0x80 MSTORE AND PUSH1 0xA0 MSTORE POP PUSH2 0x129 JUMP JUMPDEST PUSH0 DUP1 SLOAD PUSH1 0x1 PUSH1 0x1 PUSH1 0xA0 SHL SUB DUP4 DUP2 AND PUSH1 0x1 PUSH1 0x1 PUSH1 0xA0 SHL SUB NOT DUP4 AND DUP2 OR DUP5 SSTORE PUSH1 0x40 MLOAD SWAP2 SWAP1 SWAP3 AND SWAP3 DUP4 SWAP2 PUSH32 0x8BE0079C531659141344CD1FD0A4F28419497F9722A3DAAFE3B4186F6B6457E0 SWAP2 SWAP1 LOG3 POP POP JUMP JUMPDEST DUP1 MLOAD PUSH1 0x1 PUSH1 0x1 PUSH1 0x40 SHL SUB DUP2 AND DUP2 EQ PUSH2 0xD7 JUMPI PUSH0 DUP1 REVERT JUMPDEST SWAP2 SWAP1 POP JUMP JUMPDEST PUSH0 DUP1 PUSH0 PUSH1 0x60 DUP5 DUP7 SUB SLT ISZERO PUSH2 0xEE JUMPI PUSH0 DUP1 REVERT JUMPDEST DUP4 MLOAD PUSH1 0x1 PUSH1 0x1 PUSH1 0xA0 SHL SUB DUP2 AND DUP2 EQ PUSH2 0x104 JUMPI PUSH0 DUP1 REVERT JUMPDEST SWAP3 POP PUSH2 0x112 PUSH1 0x20 DUP6 ADD PUSH2 0xC1 JUMP JUMPDEST SWAP2 POP PUSH2 0x120 PUSH1 0x40 DUP6 ADD PUSH2 0xC1 JUMP JUMPDEST SWAP1 POP SWAP3 POP SWAP3 POP SWAP3 JUMP JUMPDEST PUSH1 0x80 MLOAD PUSH1 0xA0 MLOAD PUSH2 0x95C PUSH2 0x158 PUSH0 CODECOPY PUSH0 DUP2 DUP2 PUSH2 0x127 ADD MSTORE DUP2 DUP2 PUSH2 0x4D4 ADD MSTORE PUSH2 0x5B2 ADD MSTORE PUSH0 PUSH2 0x4AE ADD MSTORE PUSH2 0x95C PUSH0 RETURN INVALID PUSH1 0x80 PUSH1 0x40 MSTORE PUSH1 0x4 CALLDATASIZE LT PUSH2 0xDC JUMPI PUSH0 CALLDATALOAD PUSH1 0xE0 SHR DUP1 PUSH4 0x96132521 GT PUSH2 0x7C JUMPI DUP1 PUSH4 0xBE9A6555 GT PUSH2 0x57 JUMPI DUP1 PUSH4 0xBE9A6555 EQ PUSH2 0x24A JUMPI DUP1 PUSH4 0xEFBE1C1C EQ PUSH2 0x25E JUMPI DUP1 PUSH4 0xF2FDE38B EQ PUSH2 0x272 JUMPI DUP1 PUSH4 0xFBCCEDAE EQ PUSH2 0x291 JUMPI PUSH0 DUP1 REVERT JUMPDEST DUP1 PUSH4 0x96132521 EQ PUSH2 0x1E3 JUMPI DUP1 PUSH4 0x9852595C EQ PUSH2 0x1F7 JUMPI DUP1 PUSH4 0xA3F8EACE EQ PUSH2 0x22B JUMPI PUSH0 DUP1 REVERT JUMPDEST DUP1 PUSH4 0x715018A6 GT PUSH2 0xB7 JUMPI DUP1 PUSH4 0x715018A6 EQ PUSH2 0x176 JUMPI DUP1 PUSH4 0x810EC23B EQ PUSH2 0x18A JUMPI DUP1 PUSH4 0x86D1A69F EQ PUSH2 0x1A9 JUMPI DUP1 PUSH4 0x8DA5CB5B EQ PUSH2 0x1BD JUMPI PUSH0 DUP1 REVERT JUMPDEST DUP1 PUSH4 0xA17B06B EQ PUSH2 0xE7 JUMPI DUP1 PUSH4 0xFB5A6B4 EQ PUSH2 0x119 JUMPI DUP1 PUSH4 0x19165587 EQ PUSH2 0x155 JUMPI PUSH0 DUP1 REVERT JUMPDEST CALLDATASIZE PUSH2 0xE3 JUMPI STOP JUMPDEST PUSH0 DUP1 REVERT JUMPDEST CALLVALUE DUP1 ISZERO PUSH2 0xF2 JUMPI PUSH0 DUP1 REVERT JUMPDEST POP PUSH2 0x106 PUSH2 0x101 CALLDATASIZE PUSH1 0x4 PUSH2 0x826 JUMP JUMPDEST PUSH2 0x2A5 JUMP JUMPDEST PUSH1 0x40 MLOAD SWAP1 DUP2 MSTORE PUSH1 0x20 ADD JUMPDEST PUSH1 0x40 MLOAD DUP1 SWAP2 SUB SWAP1 RETURN JUMPDEST CALLVALUE DUP1 ISZERO PUSH2 0x124 JUMPI PUSH0 DUP1 REVERT JUMPDEST POP PUSH32 0x0 PUSH8 0xFFFFFFFFFFFFFFFF AND PUSH2 0x106 JUMP JUMPDEST CALLVALUE DUP1 ISZERO PUSH2 0x160 JUMPI PUSH0 DUP1 REVERT JUMPDEST POP PUSH2 0x174 PUSH2 0x16F CALLDATASIZE PUSH1 0x4 PUSH2 0x855 JUMP JUMPDEST PUSH2 0x2C8 JUMP JUMPDEST STOP JUMPDEST CALLVALUE DUP1 ISZERO PUSH2 0x181 JUMPI PUSH0 DUP1 REVERT JUMPDEST POP PUSH2 0x174 PUSH2 0x360 JUMP JUMPDEST CALLVALUE DUP1 ISZERO PUSH2 0x195 JUMPI PUSH0 DUP1 REVERT JUMPDEST POP PUSH2 0x106 PUSH2 0x1A4 CALLDATASIZE PUSH1 0x4 PUSH2 0x86E JUMP JUMPDEST PUSH2 0x373 JUMP JUMPDEST CALLVALUE DUP1 ISZERO PUSH2 0x1B4 JUMPI PUSH0 DUP1 REVERT JUMPDEST POP PUSH2 0x174 PUSH2 0x406 JUMP JUMPDEST CALLVALUE DUP1 ISZERO PUSH2 0x1C8 JUMPI PUSH0 DUP1 REVERT JUMPDEST POP PUSH0 SLOAD PUSH1 0x40 MLOAD PUSH1 0x1 PUSH1 0x1 PUSH1 0xA0 SHL SUB SWAP1 SWAP2 AND DUP2 MSTORE PUSH1 0x20 ADD PUSH2 0x110 JUMP JUMPDEST CALLVALUE DUP1 ISZERO PUSH2 0x1EE JUMPI PUSH0 DUP1 REVERT JUMPDEST POP PUSH1 0x1 SLOAD PUSH2 0x106 JUMP JUMPDEST CALLVALUE DUP1 ISZERO PUSH2 0x202 JUMPI PUSH0 DUP1 REVERT JUMPDEST POP PUSH2 0x106 PUSH2 0x211 CALLDATASIZE PUSH1 0x4 PUSH2 0x855 JUMP JUMPDEST PUSH1 0x1 PUSH1 0x1 PUSH1 0xA0 SHL SUB AND PUSH0 SWAP1 DUP2 MSTORE PUSH1 0x2 PUSH1 0x20 MSTORE PUSH1 0x40 SWAP1 KECCAK256 SLOAD SWAP1 JUMP JUMPDEST CALLVALUE DUP1 ISZERO PUSH2 0x236 JUMPI PUSH0 DUP1 REVERT JUMPDEST POP PUSH2 0x106 PUSH2 0x245 CALLDATASIZE PUSH1 0x4 PUSH2 0x855 JUMP JUMPDEST PUSH2 0x477 JUMP JUMPDEST CALLVALUE DUP1 ISZERO PUSH2 0x255 JUMPI PUSH0 DUP1 REVERT JUMPDEST POP PUSH2 0x106 PUSH2 0x4A3 JUMP JUMPDEST CALLVALUE DUP1 ISZERO PUSH2 0x269 JUMPI PUSH0 DUP1 REVERT JUMPDEST POP PUSH2 0x106 PUSH2 0x4D1 JUMP JUMPDEST CALLVALUE DUP1 ISZERO PUSH2 0x27D JUMPI PUSH0 DUP1 REVERT JUMPDEST POP PUSH2 0x174 PUSH2 0x28C CALLDATASIZE PUSH1 0x4 PUSH2 0x855 JUMP JUMPDEST PUSH2 0x514 JUMP JUMPDEST CALLVALUE DUP1 ISZERO PUSH2 0x29C JUMPI PUSH0 DUP1 REVERT JUMPDEST POP PUSH2 0x106 PUSH2 0x553 JUMP JUMPDEST PUSH0 PUSH2 0x2C2 PUSH2 0x2B2 PUSH1 0x1 SLOAD SWAP1 JUMP JUMPDEST PUSH2 0x2BC SWAP1 SELFBALANCE PUSH2 0x8B3 JUMP JUMPDEST DUP4 PUSH2 0x570 JUMP JUMPDEST SWAP3 SWAP2 POP POP JUMP JUMPDEST PUSH0 PUSH2 0x2D2 DUP3 PUSH2 0x477 JUMP JUMPDEST PUSH1 0x1 PUSH1 0x1 PUSH1 0xA0 SHL SUB DUP4 AND PUSH0 SWAP1 DUP2 MSTORE PUSH1 0x2 PUSH1 0x20 MSTORE PUSH1 0x40 DUP2 KECCAK256 DUP1 SLOAD SWAP3 SWAP4 POP DUP4 SWAP3 SWAP1 SWAP2 SWAP1 PUSH2 0x2FE SWAP1 DUP5 SWAP1 PUSH2 0x8B3 JUMP JUMPDEST SWAP1 SWAP2 SSTORE POP POP PUSH1 0x40 MLOAD DUP2 DUP2 MSTORE PUSH1 0x1 PUSH1 0x1 PUSH1 0xA0 SHL SUB DUP4 AND SWAP1 PUSH32 0xC0E523490DD523C33B1878C9EB14FF46991E3F5B2CD33710918618F2A39CBA1B SWAP1 PUSH1 0x20 ADD PUSH1 0x40 MLOAD DUP1 SWAP2 SUB SWAP1 LOG2 PUSH2 0x35C DUP3 PUSH2 0x356 PUSH0 SLOAD PUSH1 0x1 PUSH1 0x1 PUSH1 0xA0 SHL SUB AND SWAP1 JUMP JUMPDEST DUP4 PUSH2 0x612 JUMP JUMPDEST POP POP JUMP JUMPDEST PUSH2 0x368 PUSH2 0x669 JUMP JUMPDEST PUSH2 0x371 PUSH0 PUSH2 0x695 JUMP JUMPDEST JUMP JUMPDEST PUSH1 0x1 PUSH1 0x1 PUSH1 0xA0 SHL SUB DUP3 AND PUSH0 SWAP1 DUP2 MSTORE PUSH1 0x2 PUSH1 0x20 MSTORE PUSH1 0x40 DUP2 KECCAK256 SLOAD PUSH2 0x3FF SWAP1 PUSH1 0x40 MLOAD PUSH4 0x70A08231 PUSH1 0xE0 SHL DUP2 MSTORE ADDRESS PUSH1 0x4 DUP3 ADD MSTORE PUSH1 0x1 PUSH1 0x1 PUSH1 0xA0 SHL SUB DUP7 AND SWAP1 PUSH4 0x70A08231 SWAP1 PUSH1 0x24 ADD PUSH1 0x20 PUSH1 0x40 MLOAD DUP1 DUP4 SUB DUP2 DUP7 GAS STATICCALL ISZERO DUP1 ISZERO PUSH2 0x3D1 JUMPI RETURNDATASIZE PUSH0 DUP1 RETURNDATACOPY RETURNDATASIZE PUSH0 REVERT JUMPDEST POP POP POP POP PUSH1 0x40 MLOAD RETURNDATASIZE PUSH1 0x1F NOT PUSH1 0x1F DUP3 ADD AND DUP3 ADD DUP1 PUSH1 0x40 MSTORE POP DUP2 ADD SWAP1 PUSH2 0x3F5 SWAP2 SWAP1 PUSH2 0x8C6 JUMP JUMPDEST PUSH2 0x2BC SWAP2 SWAP1 PUSH2 0x8B3 JUMP JUMPDEST SWAP4 SWAP3 POP POP POP JUMP JUMPDEST PUSH0 PUSH2 0x40F PUSH2 0x553 JUMP JUMPDEST SWAP1 POP DUP1 PUSH1 0x1 PUSH0 DUP3 DUP3 SLOAD PUSH2 0x422 SWAP2 SWAP1 PUSH2 0x8B3 JUMP JUMPDEST SWAP1 SWAP2 SSTORE POP POP PUSH1 0x40 MLOAD DUP2 DUP2 MSTORE PUSH32 0xDA9D4E5F101B8B9B1C5B76D0C5A9F7923571ACFC02376AA076B75A8C080C956B SWAP1 PUSH1 0x20 ADD PUSH1 0x40 MLOAD DUP1 SWAP2 SUB SWAP1 LOG1 PUSH2 0x474 PUSH2 0x46E PUSH0 SLOAD PUSH1 0x1 PUSH1 0x1 PUSH1 0xA0 SHL SUB AND SWAP1 JUMP JUMPDEST DUP3 PUSH2 0x6E4 JUMP JUMPDEST POP JUMP JUMPDEST PUSH1 0x1 PUSH1 0x1 PUSH1 0xA0 SHL SUB DUP2 AND PUSH0 SWAP1 DUP2 MSTORE PUSH1 0x2 PUSH1 0x20 MSTORE PUSH1 0x40 DUP2 KECCAK256 SLOAD PUSH2 0x499 DUP4 TIMESTAMP PUSH2 0x373 JUMP JUMPDEST PUSH2 0x2C2 SWAP2 SWAP1 PUSH2 0x8DD JUMP JUMPDEST PUSH8 0xFFFFFFFFFFFFFFFF PUSH32 0x0 AND SWAP1 JUMP JUMPDEST PUSH0 PUSH32 0x0 PUSH8 0xFFFFFFFFFFFFFFFF AND PUSH2 0x505 PUSH2 0x4A3 JUMP JUMPDEST PUSH2 0x50F SWAP2 SWAP1 PUSH2 0x8B3 JUMP JUMPDEST SWAP1 POP SWAP1 JUMP JUMPDEST PUSH2 0x51C PUSH2 0x669 JUMP JUMPDEST PUSH1 0x1 PUSH1 0x1 PUSH1 0xA0 SHL SUB DUP2 AND PUSH2 0x54A JUMPI PUSH1 0x40 MLOAD PUSH4 0x1E4FBDF7 PUSH1 0xE0 SHL DUP2 MSTORE PUSH0 PUSH1 0x4 DUP3 ADD MSTORE PUSH1 0x24 ADD JUMPDEST PUSH1 0x40 MLOAD DUP1 SWAP2 SUB SWAP1 REVERT JUMPDEST PUSH2 0x474 DUP2 PUSH2 0x695 JUMP JUMPDEST PUSH0 PUSH2 0x55D PUSH1 0x1 SLOAD SWAP1 JUMP JUMPDEST PUSH2 0x566 TIMESTAMP PUSH2 0x2A5 JUMP JUMPDEST PUSH2 0x50F SWAP2 SWAP1 PUSH2 0x8DD JUMP JUMPDEST PUSH0 PUSH2 0x579 PUSH2 0x4A3 JUMP JUMPDEST DUP3 PUSH8 0xFFFFFFFFFFFFFFFF AND LT ISZERO PUSH2 0x591 JUMPI POP PUSH0 PUSH2 0x2C2 JUMP JUMPDEST PUSH2 0x599 PUSH2 0x4D1 JUMP JUMPDEST DUP3 PUSH8 0xFFFFFFFFFFFFFFFF AND LT PUSH2 0x5B0 JUMPI POP DUP2 PUSH2 0x2C2 JUMP JUMPDEST PUSH32 0x0 PUSH8 0xFFFFFFFFFFFFFFFF AND PUSH2 0x5E3 PUSH2 0x4A3 JUMP JUMPDEST PUSH2 0x5F7 SWAP1 PUSH8 0xFFFFFFFFFFFFFFFF DUP6 AND PUSH2 0x8DD JUMP JUMPDEST PUSH2 0x601 SWAP1 DUP6 PUSH2 0x8F0 JUMP JUMPDEST PUSH2 0x60B SWAP2 SWAP1 PUSH2 0x907 JUMP JUMPDEST SWAP1 POP PUSH2 0x2C2 JUMP JUMPDEST PUSH1 0x40 DUP1 MLOAD PUSH1 0x1 PUSH1 0x1 PUSH1 0xA0 SHL SUB DUP5 AND PUSH1 0x24 DUP3 ADD MSTORE PUSH1 0x44 DUP1 DUP3 ADD DUP5 SWAP1 MSTORE DUP3 MLOAD DUP1 DUP4 SUB SWAP1 SWAP2 ADD DUP2 MSTORE PUSH1 0x64 SWAP1 SWAP2 ADD SWAP1 SWAP2 MSTORE PUSH1 0x20 DUP2 ADD DUP1 MLOAD PUSH1 0x1 PUSH1 0x1 PUSH1 0xE0 SHL SUB AND PUSH4 0xA9059CBB PUSH1 0xE0 SHL OR SWAP1 MSTORE PUSH2 0x664 SWAP1 DUP5 SWAP1 PUSH2 0x776 JUMP JUMPDEST POP POP POP JUMP JUMPDEST PUSH0 SLOAD PUSH1 0x1 PUSH1 0x1 PUSH1 0xA0 SHL SUB AND CALLER EQ PUSH2 0x371 JUMPI PUSH1 0x40 MLOAD PUSH4 0x118CDAA7 PUSH1 0xE0 SHL DUP2 MSTORE CALLER PUSH1 0x4 DUP3 ADD MSTORE PUSH1 0x24 ADD PUSH2 0x541 JUMP JUMPDEST PUSH0 DUP1 SLOAD PUSH1 0x1 PUSH1 0x1 PUSH1 0xA0 SHL SUB DUP4 DUP2 AND PUSH1 0x1 PUSH1 0x1 PUSH1 0xA0 SHL SUB NOT DUP4 AND DUP2 OR DUP5 SSTORE PUSH1 0x40 MLOAD SWAP2 SWAP1 SWAP3 AND SWAP3 DUP4 SWAP2 PUSH32 0x8BE0079C531659141344CD1FD0A4F28419497F9722A3DAAFE3B4186F6B6457E0 SWAP2 SWAP1 LOG3 POP POP JUMP JUMPDEST DUP1 SELFBALANCE LT ISZERO PUSH2 0x70E JUMPI PUSH1 0x40 MLOAD PUSH4 0xCF479181 PUSH1 0xE0 SHL DUP2 MSTORE SELFBALANCE PUSH1 0x4 DUP3 ADD MSTORE PUSH1 0x24 DUP2 ADD DUP3 SWAP1 MSTORE PUSH1 0x44 ADD PUSH2 0x541 JUMP JUMPDEST PUSH0 DUP1 DUP4 PUSH1 0x1 PUSH1 0x1 PUSH1 0xA0 SHL SUB AND DUP4 PUSH1 0x40 MLOAD PUSH0 PUSH1 0x40 MLOAD DUP1 DUP4 SUB DUP2 DUP6 DUP8 GAS CALL SWAP3 POP POP POP RETURNDATASIZE DUP1 PUSH0 DUP2 EQ PUSH2 0x758 JUMPI PUSH1 0x40 MLOAD SWAP2 POP PUSH1 0x1F NOT PUSH1 0x3F RETURNDATASIZE ADD AND DUP3 ADD PUSH1 0x40 MSTORE RETURNDATASIZE DUP3 MSTORE RETURNDATASIZE PUSH0 PUSH1 0x20 DUP5 ADD RETURNDATACOPY PUSH2 0x75D JUMP JUMPDEST PUSH1 0x60 SWAP2 POP JUMPDEST POP SWAP2 POP SWAP2 POP DUP2 PUSH2 0x770 JUMPI PUSH2 0x770 DUP2 PUSH2 0x7E2 JUMP JUMPDEST POP POP POP POP JUMP JUMPDEST PUSH0 DUP1 PUSH1 0x20 PUSH0 DUP5 MLOAD PUSH1 0x20 DUP7 ADD PUSH0 DUP9 GAS CALL DUP1 PUSH2 0x795 JUMPI PUSH1 0x40 MLOAD RETURNDATASIZE PUSH0 DUP3 RETURNDATACOPY RETURNDATASIZE DUP2 REVERT JUMPDEST POP POP PUSH0 MLOAD RETURNDATASIZE SWAP2 POP DUP2 ISZERO PUSH2 0x7AC JUMPI DUP1 PUSH1 0x1 EQ ISZERO PUSH2 0x7B9 JUMP JUMPDEST PUSH1 0x1 PUSH1 0x1 PUSH1 0xA0 SHL SUB DUP5 AND EXTCODESIZE ISZERO JUMPDEST ISZERO PUSH2 0x770 JUMPI PUSH1 0x40 MLOAD PUSH4 0x5274AFE7 PUSH1 0xE0 SHL DUP2 MSTORE PUSH1 0x1 PUSH1 0x1 PUSH1 0xA0 SHL SUB DUP6 AND PUSH1 0x4 DUP3 ADD MSTORE PUSH1 0x24 ADD PUSH2 0x541 JUMP JUMPDEST DUP1 MLOAD ISZERO PUSH2 0x7F1 JUMPI DUP1 MLOAD PUSH1 0x20 DUP3 ADD REVERT JUMPDEST PUSH1 0x40 MLOAD PUSH4 0xD6BDA275 PUSH1 0xE0 SHL DUP2 MSTORE PUSH1 0x4 ADD PUSH1 0x40 MLOAD DUP1 SWAP2 SUB SWAP1 REVERT JUMPDEST DUP1 CALLDATALOAD PUSH8 0xFFFFFFFFFFFFFFFF DUP2 AND DUP2 EQ PUSH2 0x821 JUMPI PUSH0 DUP1 REVERT JUMPDEST SWAP2 SWAP1 POP JUMP JUMPDEST PUSH0 PUSH1 0x20 DUP3 DUP5 SUB SLT ISZERO PUSH2 0x836 JUMPI PUSH0 DUP1 REVERT JUMPDEST PUSH2 0x3FF DUP3 PUSH2 0x80A JUMP JUMPDEST DUP1 CALLDATALOAD PUSH1 0x1 PUSH1 0x1 PUSH1 0xA0 SHL SUB DUP2 AND DUP2 EQ PUSH2 0x821 JUMPI PUSH0 DUP1 REVERT JUMPDEST PUSH0 PUSH1 0x20 DUP3 DUP5 SUB SLT ISZERO PUSH2 0x865 JUMPI PUSH0 DUP1 REVERT JUMPDEST PUSH2 0x3FF DUP3 PUSH2 0x83F JUMP JUMPDEST PUSH0 DUP1 PUSH1 0x40 DUP4 DUP6 SUB SLT ISZERO PUSH2 0x87F JUMPI PUSH0 DUP1 REVERT JUMPDEST PUSH2 0x888 DUP4 PUSH2 0x83F JUMP JUMPDEST SWAP2 POP PUSH2 0x896 PUSH1 0x20 DUP5 ADD PUSH2 0x80A JUMP JUMPDEST SWAP1 POP SWAP3 POP SWAP3 SWAP1 POP JUMP JUMPDEST PUSH4 0x4E487B71 PUSH1 0xE0 SHL PUSH0 MSTORE PUSH1 0x11 PUSH1 0x4 MSTORE PUSH1 0x24 PUSH0 REVERT JUMPDEST DUP1 DUP3 ADD DUP1 DUP3 GT ISZERO PUSH2 0x2C2 JUMPI PUSH2 0x2C2 PUSH2 0x89F JUMP JUMPDEST PUSH0 PUSH1 0x20 DUP3 DUP5 SUB SLT ISZERO PUSH2 0x8D6 JUMPI PUSH0 DUP1 REVERT JUMPDEST POP MLOAD SWAP2 SWAP1 POP JUMP JUMPDEST DUP2 DUP2 SUB DUP2 DUP2 GT ISZERO PUSH2 0x2C2 JUMPI PUSH2 0x2C2 PUSH2 0x89F JUMP JUMPDEST DUP1 DUP3 MUL DUP2 ISZERO DUP3 DUP3 DIV DUP5 EQ OR PUSH2 0x2C2 JUMPI PUSH2 0x2C2 PUSH2 0x89F JUMP JUMPDEST PUSH0 DUP3 PUSH2 0x921 JUMPI PUSH4 0x4E487B71 PUSH1 0xE0 SHL PUSH0 MSTORE PUSH1 0x12 PUSH1 0x4 MSTORE PUSH1 0x24 PUSH0 REVERT JUMPDEST POP DIV SWAP1 JUMP INVALID LOG2 PUSH5 0x6970667358 0x22 SLT KECCAK256 BYTE 0xE4 PUSH32 0x49CE7D9E5B3C526304A294F595E66DB3648F5FFD040BBA355AE604FA1364736F PUSH13 0x63430008180033000000000000 "
				},
				"gasEstimates": {
					"creation": {
						"codeDepositCost": "479200",
						"executionCost": "infinite",
						"totalCost": "infinite"
					},
					"external": {
						"duration()": "infinite",
						"end()": "infinite",
						"owner()": "2388",
						"releasable()": "infinite",
						"releasable(address)": "infinite",
						"release()": "infinite",
						"release(address)": "infinite",
						"released()": "2303",
						"released(address)": "2568",
						"renounceOwnership()": "infinite",
						"start()": "infinite",
						"transferOwnership(address)": "28395",
						"vestedAmount(address,uint64)": "infinite",
						"vestedAmount(uint64)": "infinite"
					},
					"internal": {
						"_vestingSchedule(uint256,uint64)": "infinite"
					}
				},
				"methodIdentifiers": {
					"duration()": "0fb5a6b4",
					"end()": "efbe1c1c",
					"owner()": "8da5cb5b",
					"releasable()": "fbccedae",
					"releasable(address)": "a3f8eace",
					"release()": "86d1a69f",
					"release(address)": "19165587",
					"released()": "96132521",
					"released(address)": "9852595c",
					"renounceOwnership()": "715018a6",
					"start()": "be9a6555",
					"transferOwnership(address)": "f2fde38b",
					"vestedAmount(address,uint64)": "810ec23b",
					"vestedAmount(uint64)": "0a17b06b"
				}
			},
			"storageLayout": {
				"storage": [
					{
						"astId": 939,
						"contract": "SpageroTokenVesting_flattened.sol:VestingWallet",
						"label": "_owner",
						"offset": 0,
						"slot": "0",
						"type": "t_address"
					},
					{
						"astId": 1096,
						"contract": "SpageroTokenVesting_flattened.sol:VestingWallet",
						"label": "_released",
						"offset": 0,
						"slot": "1",
						"type": "t_uint256"
					},
					{
						"astId": 1100,
						"contract": "SpageroTokenVesting_flattened.sol:VestingWallet",
						"label": "_erc20Released",
						"offset": 0,
						"slot": "2",
						"type": "t_mapping(t_address,t_uint256)"
					}
				],
				"types": {
					"t_address": {
						"encoding": "inplace",
						"label": "address",
						"numberOfBytes": "20"
					},
					"t_mapping(t_address,t_uint256)": {
						"encoding": "mapping",
						"key": "t_address",
						"label": "mapping(address => uint256)",
						"numberOfBytes": "32",
						"value": "t_uint256"
					},
					"t_uint256": {
						"encoding": "inplace",
						"label": "uint256",
						"numberOfBytes": "32"
					}
				}
			},
			"userdoc": {
				"kind": "user",
				"methods": {},
				"version": 1
			}
		}
	}
}