{
	"SpageroNFTMarket_flattened.sol": {
		"SpageroNFTMarket": {
			"abi": [
				{
					"anonymous": false,
					"inputs": [
						{
							"indexed": true,
							"internalType": "address",
							"name": "seller",
							"type": "address"
						},
						{
							"indexed": true,
							"internalType": "address",
							"name": "nft",
							"type": "address"
						},
						{
							"indexed": true,
							"internalType": "uint256",
							"name": "tokenId",
							"type": "uint256"
						}
					],
					"name": "Cancelled",
					"type": "event"
				},
				{
					"anonymous": false,
					"inputs": [
						{
							"indexed": true,
							"internalType": "address",
							"name": "seller",
							"type": "address"
						},
						{
							"indexed": true,
							"internalType": "address",
							"name": "nft",
							"type": "address"
						},
						{
							"indexed": true,
							"internalType": "uint256",
							"name": "tokenId",
							"type": "uint256"
						},
						{
							"indexed": false,
							"internalType": "uint256",
							"name": "price",
							"type": "uint256"
						}
					],
					"name": "Listed",
					"type": "event"
				},
				{
					"anonymous": false,
					"inputs": [
						{
							"indexed": true,
							"internalType": "address",
							"name": "buyer",
							"type": "address"
						},
						{
							"indexed": true,
							"internalType": "address",
							"name": "nft",
							"type": "address"
						},
						{
							"indexed": true,
							"internalType": "uint256",
							"name": "tokenId",
							"type": "uint256"
						},
						{
							"indexed": false,
							"internalType": "uint256",
							"name": "price",
							"type": "uint256"
						}
					],
					"name": "Purchased",
					"type": "event"
				},
				{
					"inputs": [
						{
							"internalType": "address",
							"name": "nft",
							"type": "address"
						},
						{
							"internalType": "uint256",
							"name": "tokenId",
							"type": "uint256"
						}
					],
					"name": "buy",
					"outputs": [],
					"stateMutability": "payable",
					"type": "function"
				},
				{
					"inputs": [
						{
							"internalType": "address",
							"name": "nft",
							"type": "address"
						},
						{
							"internalType": "uint256",
							"name": "tokenId",
							"type": "uint256"
						}
					],
					"name": "cancel",
					"outputs": [],
					"stateMutability": "nonpayable",
					"type": "function"
				},
				{
					"inputs": [
						{
							"internalType": "address",
							"name": "nft",
							"type": "address"
						},
						{
							"internalType": "uint256",
							"name": "tokenId",
							"type": "uint256"
						},
						{
							"internalType": "uint256",
							"name": "price",
							"type": "uint256"
						}
					],
					"name": "list",
					"outputs": [],
					"stateMutability": "nonpayable",
					"type": "function"
				},
				{
					"inputs": [
						{
							"internalType": "bytes32",
							"name": "",
							"type": "bytes32"
						}
					],
					"name": "listings",
					"outputs": [
						{
							"internalType": "address",
							"name": "seller",
							"type": "address"
						},
						{
							"internalType": "address",
							"name": "nft",
							"type": "address"
						},
						{
							"internalType": "uint256",
							"name": "tokenId",
							"type": "uint256"
						},
						{
							"internalType": "uint256",
							"name": "price",
							"type": "uint256"
						}
					],
					"stateMutability": "view",
					"type": "function"
				}
			],
			"devdoc": {
				"kind": "dev",
				"methods": {},
				"version": 1
			},
			"evm": {
				"assembly": "    /* \"SpageroNFTMarket_flattened.sol\":9054:11097  contract SpageroNFTMarket is ReentrancyGuard {... */\n  mstore(0x40, 0x80)\n  callvalue\n  dup1\n  iszero\n  tag_1\n  jumpi\n  0x00\n  dup1\n  revert\ntag_1:\n  pop\n    /* \"SpageroNFTMarket_flattened.sol\":7582:7583  1 */\n  0x01\n    /* \"SpageroNFTMarket_flattened.sol\":7687:7694  _status */\n  0x00\n    /* \"SpageroNFTMarket_flattened.sol\":7687:7709  _status = _NOT_ENTERED */\n  sstore\n    /* \"SpageroNFTMarket_flattened.sol\":9054:11097  contract SpageroNFTMarket is ReentrancyGuard {... */\n  dataSize(sub_0)\n  dup1\n  dataOffset(sub_0)\n  0x00\n  codecopy\n  0x00\n  return\nstop\n\nsub_0: assembly {\n        /* \"SpageroNFTMarket_flattened.sol\":9054:11097  contract SpageroNFTMarket is ReentrancyGuard {... */\n      mstore(0x40, 0x80)\n      jumpi(tag_1, lt(calldatasize, 0x04))\n      shr(0xe0, calldataload(0x00))\n      dup1\n      0x98590ef9\n      eq\n      tag_2\n      jumpi\n      dup1\n      0xc18b8db4\n      eq\n      tag_3\n      jumpi\n      dup1\n      0xcce7ec13\n      eq\n      tag_4\n      jumpi\n      dup1\n      0xdda342bb\n      eq\n      tag_5\n      jumpi\n    tag_1:\n      0x00\n      dup1\n      revert\n        /* \"SpageroNFTMarket_flattened.sol\":10219:10549  function cancel(address nft, uint256 tokenId) external {... */\n    tag_2:\n      callvalue\n      dup1\n      iszero\n      tag_6\n      jumpi\n      0x00\n      dup1\n      revert\n    tag_6:\n      pop\n      tag_7\n      tag_8\n      calldatasize\n      0x04\n      tag_9\n      jump\t// in\n    tag_8:\n      tag_10\n      jump\t// in\n    tag_7:\n      stop\n        /* \"SpageroNFTMarket_flattened.sol\":9189:9232  mapping(bytes32 => Listing) public listings */\n    tag_3:\n      callvalue\n      dup1\n      iszero\n      tag_11\n      jumpi\n      0x00\n      dup1\n      revert\n    tag_11:\n      pop\n      tag_12\n      tag_13\n      calldatasize\n      0x04\n      tag_14\n      jump\t// in\n    tag_13:\n      0x01\n      0x20\n      dup2\n      swap1\n      mstore\n      0x00\n      swap2\n      dup3\n      mstore\n      0x40\n      swap1\n      swap2\n      keccak256\n      dup1\n      sload\n      swap2\n      dup2\n      add\n      sload\n      0x02\n      dup3\n      add\n      sload\n      0x03\n      swap1\n      swap3\n      add\n      sload\n      sub(shl(0xa0, 0x01), 0x01)\n      swap4\n      dup5\n      and\n      swap4\n      swap1\n      swap2\n      and\n      swap2\n      swap1\n      dup5\n      jump\n    tag_12:\n      0x40\n      dup1\n      mload\n      sub(shl(0xa0, 0x01), 0x01)\n        /* \"#utility.yul\":942:957   */\n      swap6\n      dup7\n      and\n        /* \"#utility.yul\":924:958   */\n      dup2\n      mstore\n        /* \"#utility.yul\":994:1009   */\n      swap5\n      swap1\n      swap4\n      and\n        /* \"#utility.yul\":989:991   */\n      0x20\n        /* \"#utility.yul\":974:992   */\n      dup6\n      add\n        /* \"#utility.yul\":967:1010   */\n      mstore\n        /* \"#utility.yul\":1026:1044   */\n      swap2\n      dup4\n      add\n        /* \"#utility.yul\":1019:1053   */\n      mstore\n        /* \"#utility.yul\":1084:1086   */\n      0x60\n        /* \"#utility.yul\":1069:1087   */\n      dup3\n      add\n        /* \"#utility.yul\":1062:1096   */\n      mstore\n        /* \"#utility.yul\":873:876   */\n      0x80\n        /* \"#utility.yul\":858:877   */\n      add\n        /* \"SpageroNFTMarket_flattened.sol\":9189:9232  mapping(bytes32 => Listing) public listings */\n      mload(0x40)\n      dup1\n      swap2\n      sub\n      swap1\n      return\n        /* \"SpageroNFTMarket_flattened.sol\":10555:11095  function buy(address nft, uint256 tokenId) external payable nonReentrant {... */\n    tag_4:\n      tag_7\n      tag_19\n      calldatasize\n      0x04\n      tag_9\n      jump\t// in\n    tag_19:\n      tag_20\n      jump\t// in\n        /* \"SpageroNFTMarket_flattened.sol\":9685:10213  function list(address nft, uint256 tokenId, uint256 price) external {... */\n    tag_5:\n      callvalue\n      dup1\n      iszero\n      tag_21\n      jumpi\n      0x00\n      dup1\n      revert\n    tag_21:\n      pop\n      tag_7\n      tag_23\n      calldatasize\n      0x04\n      tag_24\n      jump\t// in\n    tag_23:\n      tag_25\n      jump\t// in\n        /* \"SpageroNFTMarket_flattened.sol\":10219:10549  function cancel(address nft, uint256 tokenId) external {... */\n    tag_10:\n        /* \"SpageroNFTMarket_flattened.sol\":10284:10293  bytes32 k */\n      0x00\n        /* \"SpageroNFTMarket_flattened.sol\":10296:10314  _key(nft, tokenId) */\n      tag_27\n        /* \"SpageroNFTMarket_flattened.sol\":10301:10304  nft */\n      dup4\n        /* \"SpageroNFTMarket_flattened.sol\":10306:10313  tokenId */\n      dup4\n        /* \"SpageroNFTMarket_flattened.sol\":10296:10300  _key */\n      tag_28\n        /* \"SpageroNFTMarket_flattened.sol\":10296:10314  _key(nft, tokenId) */\n      jump\t// in\n    tag_27:\n        /* \"SpageroNFTMarket_flattened.sol\":10324:10340  Listing memory l */\n      0x00\n        /* \"SpageroNFTMarket_flattened.sol\":10343:10354  listings[k] */\n      dup2\n      dup2\n      mstore\n        /* \"SpageroNFTMarket_flattened.sol\":10343:10351  listings */\n      0x01\n        /* \"SpageroNFTMarket_flattened.sol\":10343:10354  listings[k] */\n      0x20\n      dup2\n      dup2\n      mstore\n      0x40\n      swap3\n      dup4\n      swap1\n      keccak256\n        /* \"SpageroNFTMarket_flattened.sol\":10324:10354  Listing memory l = listings[k] */\n      dup4\n      mload\n      0x80\n      dup2\n      add\n      dup6\n      mstore\n      dup2\n      sload\n      sub(shl(0xa0, 0x01), 0x01)\n      swap1\n      dup2\n      and\n      dup1\n      dup4\n      mstore\n      swap5\n      dup4\n      add\n      sload\n      and\n      swap3\n      dup2\n      add\n      swap3\n      swap1\n      swap3\n      mstore\n      0x02\n      dup2\n      add\n      sload\n      swap4\n      dup3\n      add\n      swap4\n      swap1\n      swap4\n      mstore\n      0x03\n      swap1\n      swap3\n      add\n      sload\n      0x60\n      dup4\n      add\n      mstore\n        /* \"SpageroNFTMarket_flattened.sol\":10284:10314  bytes32 k = _key(nft, tokenId) */\n      swap2\n      swap3\n      pop\n        /* \"SpageroNFTMarket_flattened.sol\":10324:10354  Listing memory l = listings[k] */\n      swap1\n        /* \"SpageroNFTMarket_flattened.sol\":10364:10409  require(l.seller != address(0), \"not listed\") */\n      tag_29\n      jumpi\n      mload(0x40)\n      shl(0xe5, 0x461bcd)\n      dup2\n      mstore\n        /* \"#utility.yul\":1697:1699   */\n      0x20\n        /* \"SpageroNFTMarket_flattened.sol\":10364:10409  require(l.seller != address(0), \"not listed\") */\n      0x04\n      dup3\n      add\n        /* \"#utility.yul\":1679:1700   */\n      mstore\n        /* \"#utility.yul\":1736:1738   */\n      0x0a\n        /* \"#utility.yul\":1716:1734   */\n      0x24\n      dup3\n      add\n        /* \"#utility.yul\":1709:1739   */\n      mstore\n      shl(0xb2, 0x1b9bdd081b1a5cdd1959)\n        /* \"#utility.yul\":1755:1773   */\n      0x44\n      dup3\n      add\n        /* \"#utility.yul\":1748:1788   */\n      mstore\n        /* \"#utility.yul\":1805:1823   */\n      0x64\n      add\n        /* \"SpageroNFTMarket_flattened.sol\":10364:10409  require(l.seller != address(0), \"not listed\") */\n    tag_30:\n      mload(0x40)\n      dup1\n      swap2\n      sub\n      swap1\n      revert\n    tag_29:\n        /* \"SpageroNFTMarket_flattened.sol\":10427:10435  l.seller */\n      dup1\n      mload\n      sub(shl(0xa0, 0x01), 0x01)\n        /* \"SpageroNFTMarket_flattened.sol\":10427:10449  l.seller == msg.sender */\n      and\n        /* \"SpageroNFTMarket_flattened.sol\":10439:10449  msg.sender */\n      caller\n        /* \"SpageroNFTMarket_flattened.sol\":10427:10449  l.seller == msg.sender */\n      eq\n        /* \"SpageroNFTMarket_flattened.sol\":10419:10464  require(l.seller == msg.sender, \"not seller\") */\n      tag_32\n      jumpi\n      mload(0x40)\n      shl(0xe5, 0x461bcd)\n      dup2\n      mstore\n        /* \"#utility.yul\":2036:2038   */\n      0x20\n        /* \"SpageroNFTMarket_flattened.sol\":10419:10464  require(l.seller == msg.sender, \"not seller\") */\n      0x04\n      dup3\n      add\n        /* \"#utility.yul\":2018:2039   */\n      mstore\n        /* \"#utility.yul\":2075:2077   */\n      0x0a\n        /* \"#utility.yul\":2055:2073   */\n      0x24\n      dup3\n      add\n        /* \"#utility.yul\":2048:2078   */\n      mstore\n      shl(0xb1, 0x3737ba1039b2b63632b9)\n        /* \"#utility.yul\":2094:2112   */\n      0x44\n      dup3\n      add\n        /* \"#utility.yul\":2087:2127   */\n      mstore\n        /* \"#utility.yul\":2144:2162   */\n      0x64\n      add\n        /* \"SpageroNFTMarket_flattened.sol\":10419:10464  require(l.seller == msg.sender, \"not seller\") */\n      tag_30\n        /* \"#utility.yul\":1834:2168   */\n      jump\n        /* \"SpageroNFTMarket_flattened.sol\":10419:10464  require(l.seller == msg.sender, \"not seller\") */\n    tag_32:\n        /* \"SpageroNFTMarket_flattened.sol\":10481:10492  listings[k] */\n      0x00\n      dup3\n      dup2\n      mstore\n        /* \"SpageroNFTMarket_flattened.sol\":10481:10489  listings */\n      0x01\n        /* \"SpageroNFTMarket_flattened.sol\":10481:10492  listings[k] */\n      0x20\n      dup2\n      swap1\n      mstore\n      0x40\n      dup1\n      dup4\n      keccak256\n        /* \"SpageroNFTMarket_flattened.sol\":10474:10492  delete listings[k] */\n      dup1\n      sload\n      not(sub(shl(0xa0, 0x01), 0x01))\n      swap1\n      dup2\n      and\n      dup3\n      sstore\n      swap3\n      dup2\n      add\n      dup1\n      sload\n      swap1\n      swap4\n      and\n      swap1\n      swap3\n      sstore\n      0x02\n      dup3\n      add\n      dup4\n      swap1\n      sstore\n      0x03\n      swap1\n      swap2\n      add\n      dup3\n      swap1\n      sstore\n        /* \"SpageroNFTMarket_flattened.sol\":10507:10542  Cancelled(msg.sender, nft, tokenId) */\n      mload\n        /* \"SpageroNFTMarket_flattened.sol\":10534:10541  tokenId */\n      dup5\n      swap2\n      sub(shl(0xa0, 0x01), 0x01)\n        /* \"SpageroNFTMarket_flattened.sol\":10507:10542  Cancelled(msg.sender, nft, tokenId) */\n      dup8\n      and\n      swap2\n        /* \"SpageroNFTMarket_flattened.sol\":10517:10527  msg.sender */\n      caller\n      swap2\n        /* \"SpageroNFTMarket_flattened.sol\":10507:10542  Cancelled(msg.sender, nft, tokenId) */\n      0x915fb8c652d6245752cc491b71bd8e87ab6761417f8d2ca353c8055103294c03\n      swap2\n      log4\n        /* \"SpageroNFTMarket_flattened.sol\":10274:10549  {... */\n      pop\n      pop\n        /* \"SpageroNFTMarket_flattened.sol\":10219:10549  function cancel(address nft, uint256 tokenId) external {... */\n      pop\n      pop\n      jump\t// out\n        /* \"SpageroNFTMarket_flattened.sol\":10555:11095  function buy(address nft, uint256 tokenId) external payable nonReentrant {... */\n    tag_20:\n        /* \"SpageroNFTMarket_flattened.sol\":8127:8148  _nonReentrantBefore() */\n      tag_36\n        /* \"SpageroNFTMarket_flattened.sol\":8127:8146  _nonReentrantBefore */\n      tag_37\n        /* \"SpageroNFTMarket_flattened.sol\":8127:8148  _nonReentrantBefore() */\n      jump\t// in\n    tag_36:\n        /* \"SpageroNFTMarket_flattened.sol\":10638:10647  bytes32 k */\n      0x00\n        /* \"SpageroNFTMarket_flattened.sol\":10650:10668  _key(nft, tokenId) */\n      tag_39\n        /* \"SpageroNFTMarket_flattened.sol\":10655:10658  nft */\n      dup4\n        /* \"SpageroNFTMarket_flattened.sol\":10660:10667  tokenId */\n      dup4\n        /* \"SpageroNFTMarket_flattened.sol\":10650:10654  _key */\n      tag_28\n        /* \"SpageroNFTMarket_flattened.sol\":10650:10668  _key(nft, tokenId) */\n      jump\t// in\n    tag_39:\n        /* \"SpageroNFTMarket_flattened.sol\":10678:10694  Listing memory l */\n      0x00\n        /* \"SpageroNFTMarket_flattened.sol\":10697:10708  listings[k] */\n      dup2\n      dup2\n      mstore\n        /* \"SpageroNFTMarket_flattened.sol\":10697:10705  listings */\n      0x01\n        /* \"SpageroNFTMarket_flattened.sol\":10697:10708  listings[k] */\n      0x20\n      dup2\n      dup2\n      mstore\n      0x40\n      swap3\n      dup4\n      swap1\n      keccak256\n        /* \"SpageroNFTMarket_flattened.sol\":10678:10708  Listing memory l = listings[k] */\n      dup4\n      mload\n      0x80\n      dup2\n      add\n      dup6\n      mstore\n      dup2\n      sload\n      sub(shl(0xa0, 0x01), 0x01)\n      swap1\n      dup2\n      and\n      dup1\n      dup4\n      mstore\n      swap5\n      dup4\n      add\n      sload\n      and\n      swap3\n      dup2\n      add\n      swap3\n      swap1\n      swap3\n      mstore\n      0x02\n      dup2\n      add\n      sload\n      swap4\n      dup3\n      add\n      swap4\n      swap1\n      swap4\n      mstore\n      0x03\n      swap1\n      swap3\n      add\n      sload\n      0x60\n      dup4\n      add\n      mstore\n        /* \"SpageroNFTMarket_flattened.sol\":10638:10668  bytes32 k = _key(nft, tokenId) */\n      swap2\n      swap3\n      pop\n        /* \"SpageroNFTMarket_flattened.sol\":10678:10708  Listing memory l = listings[k] */\n      swap1\n        /* \"SpageroNFTMarket_flattened.sol\":10718:10763  require(l.seller != address(0), \"not listed\") */\n      tag_40\n      jumpi\n      mload(0x40)\n      shl(0xe5, 0x461bcd)\n      dup2\n      mstore\n        /* \"#utility.yul\":1697:1699   */\n      0x20\n        /* \"SpageroNFTMarket_flattened.sol\":10718:10763  require(l.seller != address(0), \"not listed\") */\n      0x04\n      dup3\n      add\n        /* \"#utility.yul\":1679:1700   */\n      mstore\n        /* \"#utility.yul\":1736:1738   */\n      0x0a\n        /* \"#utility.yul\":1716:1734   */\n      0x24\n      dup3\n      add\n        /* \"#utility.yul\":1709:1739   */\n      mstore\n      shl(0xb2, 0x1b9bdd081b1a5cdd1959)\n        /* \"#utility.yul\":1755:1773   */\n      0x44\n      dup3\n      add\n        /* \"#utility.yul\":1748:1788   */\n      mstore\n        /* \"#utility.yul\":1805:1823   */\n      0x64\n      add\n        /* \"SpageroNFTMarket_flattened.sol\":10718:10763  require(l.seller != address(0), \"not listed\") */\n      tag_30\n        /* \"#utility.yul\":1495:1829   */\n      jump\n        /* \"SpageroNFTMarket_flattened.sol\":10718:10763  require(l.seller != address(0), \"not listed\") */\n    tag_40:\n        /* \"SpageroNFTMarket_flattened.sol\":10794:10795  l */\n      dup1\n        /* \"SpageroNFTMarket_flattened.sol\":10794:10801  l.price */\n      0x60\n      add\n      mload\n        /* \"SpageroNFTMarket_flattened.sol\":10781:10790  msg.value */\n      callvalue\n        /* \"SpageroNFTMarket_flattened.sol\":10781:10801  msg.value == l.price */\n      eq\n        /* \"SpageroNFTMarket_flattened.sol\":10773:10815  require(msg.value == l.price, \"bad value\") */\n      tag_42\n      jumpi\n      mload(0x40)\n      shl(0xe5, 0x461bcd)\n      dup2\n      mstore\n        /* \"#utility.yul\":2375:2377   */\n      0x20\n        /* \"SpageroNFTMarket_flattened.sol\":10773:10815  require(msg.value == l.price, \"bad value\") */\n      0x04\n      dup3\n      add\n        /* \"#utility.yul\":2357:2378   */\n      mstore\n        /* \"#utility.yul\":2414:2415   */\n      0x09\n        /* \"#utility.yul\":2394:2412   */\n      0x24\n      dup3\n      add\n        /* \"#utility.yul\":2387:2416   */\n      mstore\n      shl(0xb8, 0x6261642076616c7565)\n        /* \"#utility.yul\":2432:2450   */\n      0x44\n      dup3\n      add\n        /* \"#utility.yul\":2425:2464   */\n      mstore\n        /* \"#utility.yul\":2481:2499   */\n      0x64\n      add\n        /* \"SpageroNFTMarket_flattened.sol\":10773:10815  require(msg.value == l.price, \"bad value\") */\n      tag_30\n        /* \"#utility.yul\":2173:2505   */\n      jump\n        /* \"SpageroNFTMarket_flattened.sol\":10773:10815  require(msg.value == l.price, \"bad value\") */\n    tag_42:\n        /* \"SpageroNFTMarket_flattened.sol\":10832:10843  listings[k] */\n      0x00\n      dup3\n      dup2\n      mstore\n        /* \"SpageroNFTMarket_flattened.sol\":10832:10840  listings */\n      0x01\n        /* \"SpageroNFTMarket_flattened.sol\":10832:10843  listings[k] */\n      0x20\n      dup2\n      swap1\n      mstore\n      0x40\n      dup1\n      dup4\n      keccak256\n        /* \"SpageroNFTMarket_flattened.sol\":10825:10843  delete listings[k] */\n      dup1\n      sload\n      not(sub(shl(0xa0, 0x01), 0x01))\n      swap1\n      dup2\n      and\n      dup3\n      sstore\n      swap3\n      dup2\n      add\n      dup1\n      sload\n      swap1\n      swap4\n      and\n      swap1\n      swap3\n      sstore\n      0x02\n      dup3\n      add\n      dup4\n      swap1\n      sstore\n      0x03\n      swap1\n      swap2\n      add\n      dup3\n      swap1\n      sstore\n        /* \"SpageroNFTMarket_flattened.sol\":10875:10883  l.seller */\n      dup3\n      mload\n        /* \"SpageroNFTMarket_flattened.sol\":10867:10911  payable(l.seller).call{value: msg.value}(\"\") */\n      swap1\n      mload\n      sub(shl(0xa0, 0x01), 0x01)\n        /* \"SpageroNFTMarket_flattened.sol\":10867:10889  payable(l.seller).call */\n      swap1\n      swap2\n      and\n      swap1\n        /* \"SpageroNFTMarket_flattened.sol\":10897:10906  msg.value */\n      callvalue\n      swap1\n        /* \"SpageroNFTMarket_flattened.sol\":10832:10843  listings[k] */\n      dup4\n        /* \"SpageroNFTMarket_flattened.sol\":10867:10911  payable(l.seller).call{value: msg.value}(\"\") */\n      dup2\n        /* \"SpageroNFTMarket_flattened.sol\":10832:10843  listings[k] */\n      dup2\n        /* \"SpageroNFTMarket_flattened.sol\":10867:10911  payable(l.seller).call{value: msg.value}(\"\") */\n      dup2\n        /* \"SpageroNFTMarket_flattened.sol\":10897:10906  msg.value */\n      dup6\n        /* \"SpageroNFTMarket_flattened.sol\":10867:10889  payable(l.seller).call */\n      dup8\n        /* \"SpageroNFTMarket_flattened.sol\":10867:10911  payable(l.seller).call{value: msg.value}(\"\") */\n      gas\n      call\n      swap3\n      pop\n      pop\n      pop\n      returndatasize\n      dup1\n      0x00\n      dup2\n      eq\n      tag_49\n      jumpi\n      mload(0x40)\n      swap2\n      pop\n      and(add(returndatasize, 0x3f), not(0x1f))\n      dup3\n      add\n      0x40\n      mstore\n      returndatasize\n      dup3\n      mstore\n      returndatasize\n      0x00\n      0x20\n      dup5\n      add\n      returndatacopy\n      jump(tag_48)\n    tag_49:\n      0x60\n      swap2\n      pop\n    tag_48:\n      pop\n        /* \"SpageroNFTMarket_flattened.sol\":10853:10911  (bool ok, ) = payable(l.seller).call{value: msg.value}(\"\") */\n      pop\n      swap1\n      pop\n        /* \"SpageroNFTMarket_flattened.sol\":10929:10931  ok */\n      dup1\n        /* \"SpageroNFTMarket_flattened.sol\":10921:10953  require(ok, \"pay seller failed\") */\n      tag_50\n      jumpi\n      mload(0x40)\n      shl(0xe5, 0x461bcd)\n      dup2\n      mstore\n        /* \"#utility.yul\":2922:2924   */\n      0x20\n        /* \"SpageroNFTMarket_flattened.sol\":10921:10953  require(ok, \"pay seller failed\") */\n      0x04\n      dup3\n      add\n        /* \"#utility.yul\":2904:2925   */\n      mstore\n        /* \"#utility.yul\":2961:2963   */\n      0x11\n        /* \"#utility.yul\":2941:2959   */\n      0x24\n      dup3\n      add\n        /* \"#utility.yul\":2934:2964   */\n      mstore\n      shl(0x7a, 0x1c185e481cd95b1b195c8819985a5b1959)\n        /* \"#utility.yul\":2980:2998   */\n      0x44\n      dup3\n      add\n        /* \"#utility.yul\":2973:3020   */\n      mstore\n        /* \"#utility.yul\":3037:3055   */\n      0x64\n      add\n        /* \"SpageroNFTMarket_flattened.sol\":10921:10953  require(ok, \"pay seller failed\") */\n      tag_30\n        /* \"#utility.yul\":2720:3061   */\n      jump\n        /* \"SpageroNFTMarket_flattened.sol\":10921:10953  require(ok, \"pay seller failed\") */\n    tag_50:\n        /* \"SpageroNFTMarket_flattened.sol\":10971:10976  l.nft */\n      0x20\n      dup3\n      add\n      mload\n        /* \"SpageroNFTMarket_flattened.sol\":10995:11003  l.seller */\n      dup3\n      mload\n        /* \"SpageroNFTMarket_flattened.sol\":11017:11026  l.tokenId */\n      0x40\n      dup1\n      dup6\n      add\n      mload\n        /* \"SpageroNFTMarket_flattened.sol\":10963:11027  IERC721(l.nft).safeTransferFrom(l.seller, msg.sender, l.tokenId) */\n      swap1\n      mload\n      shl(0xe1, 0x21421707)\n      dup2\n      mstore\n      sub(shl(0xa0, 0x01), 0x01)\n        /* \"#utility.yul\":3324:3339   */\n      swap3\n      dup4\n      and\n        /* \"SpageroNFTMarket_flattened.sol\":10963:11027  IERC721(l.nft).safeTransferFrom(l.seller, msg.sender, l.tokenId) */\n      0x04\n      dup3\n      add\n        /* \"#utility.yul\":3306:3340   */\n      mstore\n        /* \"SpageroNFTMarket_flattened.sol\":11005:11015  msg.sender */\n      caller\n        /* \"#utility.yul\":3356:3374   */\n      0x24\n      dup3\n      add\n        /* \"#utility.yul\":3349:3392   */\n      mstore\n        /* \"#utility.yul\":3408:3426   */\n      0x44\n      dup2\n      add\n        /* \"#utility.yul\":3401:3435   */\n      swap2\n      swap1\n      swap2\n      mstore\n        /* \"SpageroNFTMarket_flattened.sol\":10963:10994  IERC721(l.nft).safeTransferFrom */\n      swap2\n      and\n      swap1\n      0x42842e0e\n      swap1\n        /* \"#utility.yul\":3241:3259   */\n      0x64\n      add\n        /* \"SpageroNFTMarket_flattened.sol\":10963:11027  IERC721(l.nft).safeTransferFrom(l.seller, msg.sender, l.tokenId) */\n      0x00\n      mload(0x40)\n      dup1\n      dup4\n      sub\n      dup2\n      0x00\n      dup8\n      dup1\n      extcodesize\n      iszero\n      dup1\n      iszero\n      tag_55\n      jumpi\n      0x00\n      dup1\n      revert\n    tag_55:\n      pop\n      gas\n      call\n      iszero\n      dup1\n      iszero\n      tag_57\n      jumpi\n      returndatasize\n      0x00\n      dup1\n      returndatacopy\n      revert(0x00, returndatasize)\n    tag_57:\n      pop\n      pop\n      pop\n      pop\n        /* \"SpageroNFTMarket_flattened.sol\":11069:11076  tokenId */\n      dup4\n        /* \"SpageroNFTMarket_flattened.sol\":11064:11067  nft */\n      dup6\n      sub(shl(0xa0, 0x01), 0x01)\n        /* \"SpageroNFTMarket_flattened.sol\":11042:11088  Purchased(msg.sender, nft, tokenId, msg.value) */\n      and\n        /* \"SpageroNFTMarket_flattened.sol\":11052:11062  msg.sender */\n      caller\n      sub(shl(0xa0, 0x01), 0x01)\n        /* \"SpageroNFTMarket_flattened.sol\":11042:11088  Purchased(msg.sender, nft, tokenId, msg.value) */\n      and\n      0xa326259ec721617acd3cb2a00bcbeac91eefe409880e49aa2bbf473ed648da49\n        /* \"SpageroNFTMarket_flattened.sol\":11078:11087  msg.value */\n      callvalue\n        /* \"SpageroNFTMarket_flattened.sol\":11042:11088  Purchased(msg.sender, nft, tokenId, msg.value) */\n      mload(0x40)\n      tag_58\n      swap2\n        /* \"#utility.yul\":3592:3617   */\n      dup2\n      mstore\n        /* \"#utility.yul\":3580:3582   */\n      0x20\n        /* \"#utility.yul\":3565:3583   */\n      add\n      swap1\n        /* \"#utility.yul\":3446:3623   */\n      jump\n        /* \"SpageroNFTMarket_flattened.sol\":11042:11088  Purchased(msg.sender, nft, tokenId, msg.value) */\n    tag_58:\n      mload(0x40)\n      dup1\n      swap2\n      sub\n      swap1\n      log4\n        /* \"SpageroNFTMarket_flattened.sol\":10628:11095  {... */\n      pop\n      pop\n      pop\n        /* \"SpageroNFTMarket_flattened.sol\":8169:8189  _nonReentrantAfter() */\n      tag_60\n        /* \"SpageroNFTMarket_flattened.sol\":7582:7583  1 */\n      0x01\n        /* \"SpageroNFTMarket_flattened.sol\":8675:8682  _status */\n      0x00\n        /* \"SpageroNFTMarket_flattened.sol\":8675:8697  _status = _NOT_ENTERED */\n      sstore\n        /* \"SpageroNFTMarket_flattened.sol\":8495:8704  function _nonReentrantAfter() private {... */\n      jump\n        /* \"SpageroNFTMarket_flattened.sol\":8169:8189  _nonReentrantAfter() */\n    tag_60:\n        /* \"SpageroNFTMarket_flattened.sol\":10555:11095  function buy(address nft, uint256 tokenId) external payable nonReentrant {... */\n      pop\n      pop\n      jump\t// out\n        /* \"SpageroNFTMarket_flattened.sol\":9685:10213  function list(address nft, uint256 tokenId, uint256 price) external {... */\n    tag_25:\n        /* \"SpageroNFTMarket_flattened.sol\":9779:9780  0 */\n      0x00\n        /* \"SpageroNFTMarket_flattened.sol\":9771:9776  price */\n      dup2\n        /* \"SpageroNFTMarket_flattened.sol\":9771:9780  price > 0 */\n      gt\n        /* \"SpageroNFTMarket_flattened.sol\":9763:9792  require(price > 0, \"price=0\") */\n      tag_63\n      jumpi\n      mload(0x40)\n      shl(0xe5, 0x461bcd)\n      dup2\n      mstore\n        /* \"#utility.yul\":3830:3832   */\n      0x20\n        /* \"SpageroNFTMarket_flattened.sol\":9763:9792  require(price > 0, \"price=0\") */\n      0x04\n      dup3\n      add\n        /* \"#utility.yul\":3812:3833   */\n      mstore\n        /* \"#utility.yul\":3869:3870   */\n      0x07\n        /* \"#utility.yul\":3849:3867   */\n      0x24\n      dup3\n      add\n        /* \"#utility.yul\":3842:3871   */\n      mstore\n      shl(0xcc, 0x070726963653d3)\n        /* \"#utility.yul\":3887:3905   */\n      0x44\n      dup3\n      add\n        /* \"#utility.yul\":3880:3917   */\n      mstore\n        /* \"#utility.yul\":3934:3952   */\n      0x64\n      add\n        /* \"SpageroNFTMarket_flattened.sol\":9763:9792  require(price > 0, \"price=0\") */\n      tag_30\n        /* \"#utility.yul\":3628:3958   */\n      jump\n        /* \"SpageroNFTMarket_flattened.sol\":9763:9792  require(price > 0, \"price=0\") */\n    tag_63:\n        /* \"SpageroNFTMarket_flattened.sol\":9848:9870  token.ownerOf(tokenId) */\n      mload(0x40)\n      shl(0xe1, 0x31a9108f)\n      dup2\n      mstore\n      0x04\n      dup2\n      add\n        /* \"#utility.yul\":3592:3617   */\n      dup4\n      swap1\n      mstore\n        /* \"SpageroNFTMarket_flattened.sol\":9826:9829  nft */\n      dup4\n      swap1\n        /* \"SpageroNFTMarket_flattened.sol\":9874:9884  msg.sender */\n      caller\n      swap1\n      sub(shl(0xa0, 0x01), 0x01)\n        /* \"SpageroNFTMarket_flattened.sol\":9848:9861  token.ownerOf */\n      dup4\n      and\n      swap1\n      0x6352211e\n      swap1\n        /* \"#utility.yul\":3565:3583   */\n      0x24\n      add\n        /* \"SpageroNFTMarket_flattened.sol\":9848:9870  token.ownerOf(tokenId) */\n      0x20\n      mload(0x40)\n      dup1\n      dup4\n      sub\n      dup2\n      dup7\n      gas\n      staticcall\n      iszero\n      dup1\n      iszero\n      tag_68\n      jumpi\n      returndatasize\n      0x00\n      dup1\n      returndatacopy\n      revert(0x00, returndatasize)\n    tag_68:\n      pop\n      pop\n      pop\n      pop\n      mload(0x40)\n      returndatasize\n      not(0x1f)\n      0x1f\n      dup3\n      add\n      and\n      dup3\n      add\n      dup1\n      0x40\n      mstore\n      pop\n      dup2\n      add\n      swap1\n      tag_69\n      swap2\n      swap1\n      tag_70\n      jump\t// in\n    tag_69:\n      sub(shl(0xa0, 0x01), 0x01)\n        /* \"SpageroNFTMarket_flattened.sol\":9848:9884  token.ownerOf(tokenId) == msg.sender */\n      and\n      eq\n        /* \"SpageroNFTMarket_flattened.sol\":9840:9898  require(token.ownerOf(tokenId) == msg.sender, \"not owner\") */\n      tag_71\n      jumpi\n      mload(0x40)\n      shl(0xe5, 0x461bcd)\n      dup2\n      mstore\n        /* \"#utility.yul\":4421:4423   */\n      0x20\n        /* \"SpageroNFTMarket_flattened.sol\":9840:9898  require(token.ownerOf(tokenId) == msg.sender, \"not owner\") */\n      0x04\n      dup3\n      add\n        /* \"#utility.yul\":4403:4424   */\n      mstore\n        /* \"#utility.yul\":4460:4461   */\n      0x09\n        /* \"#utility.yul\":4440:4458   */\n      0x24\n      dup3\n      add\n        /* \"#utility.yul\":4433:4462   */\n      mstore\n      shl(0xb9, 0x3737ba1037bbb732b9)\n        /* \"#utility.yul\":4478:4496   */\n      0x44\n      dup3\n      add\n        /* \"#utility.yul\":4471:4510   */\n      mstore\n        /* \"#utility.yul\":4527:4545   */\n      0x64\n      add\n        /* \"SpageroNFTMarket_flattened.sol\":9840:9898  require(token.ownerOf(tokenId) == msg.sender, \"not owner\") */\n      tag_30\n        /* \"#utility.yul\":4219:4551   */\n      jump\n        /* \"SpageroNFTMarket_flattened.sol\":9840:9898  require(token.ownerOf(tokenId) == msg.sender, \"not owner\") */\n    tag_71:\n        /* \"SpageroNFTMarket_flattened.sol\":9916:9965  token.isApprovedForAll(msg.sender, address(this)) */\n      mload(0x40)\n      shl(0xe0, 0xe985e9c5)\n      dup2\n      mstore\n        /* \"SpageroNFTMarket_flattened.sol\":9939:9949  msg.sender */\n      caller\n        /* \"SpageroNFTMarket_flattened.sol\":9916:9965  token.isApprovedForAll(msg.sender, address(this)) */\n      0x04\n      dup3\n      add\n        /* \"#utility.yul\":4768:4802   */\n      mstore\n        /* \"SpageroNFTMarket_flattened.sol\":9959:9963  this */\n      address\n        /* \"#utility.yul\":4818:4836   */\n      0x24\n      dup3\n      add\n        /* \"#utility.yul\":4811:4854   */\n      mstore\n      sub(shl(0xa0, 0x01), 0x01)\n        /* \"SpageroNFTMarket_flattened.sol\":9916:9938  token.isApprovedForAll */\n      dup3\n      and\n      swap1\n      0xe985e9c5\n      swap1\n        /* \"#utility.yul\":4703:4721   */\n      0x44\n      add\n        /* \"SpageroNFTMarket_flattened.sol\":9916:9965  token.isApprovedForAll(msg.sender, address(this)) */\n      0x20\n      mload(0x40)\n      dup1\n      dup4\n      sub\n      dup2\n      dup7\n      gas\n      staticcall\n      iszero\n      dup1\n      iszero\n      tag_77\n      jumpi\n      returndatasize\n      0x00\n      dup1\n      returndatacopy\n      revert(0x00, returndatasize)\n    tag_77:\n      pop\n      pop\n      pop\n      pop\n      mload(0x40)\n      returndatasize\n      not(0x1f)\n      0x1f\n      dup3\n      add\n      and\n      dup3\n      add\n      dup1\n      0x40\n      mstore\n      pop\n      dup2\n      add\n      swap1\n      tag_78\n      swap2\n      swap1\n      tag_79\n      jump\t// in\n    tag_78:\n        /* \"SpageroNFTMarket_flattened.sol\":9916:10012  token.isApprovedForAll(msg.sender, address(this)) || token.getApproved(tokenId) == address(this) */\n      dup1\n      tag_80\n      jumpi\n      pop\n        /* \"SpageroNFTMarket_flattened.sol\":9969:9995  token.getApproved(tokenId) */\n      mload(0x40)\n      shl(0xe2, 0x020604bf)\n      dup2\n      mstore\n      0x04\n      dup2\n      add\n        /* \"#utility.yul\":3592:3617   */\n      dup5\n      swap1\n      mstore\n        /* \"SpageroNFTMarket_flattened.sol\":10007:10011  this */\n      address\n      swap1\n      sub(shl(0xa0, 0x01), 0x01)\n        /* \"SpageroNFTMarket_flattened.sol\":9969:9986  token.getApproved */\n      dup4\n      and\n      swap1\n      0x081812fc\n      swap1\n        /* \"#utility.yul\":3565:3583   */\n      0x24\n      add\n        /* \"SpageroNFTMarket_flattened.sol\":9969:9995  token.getApproved(tokenId) */\n      0x20\n      mload(0x40)\n      dup1\n      dup4\n      sub\n      dup2\n      dup7\n      gas\n      staticcall\n      iszero\n      dup1\n      iszero\n      tag_83\n      jumpi\n      returndatasize\n      0x00\n      dup1\n      returndatacopy\n      revert(0x00, returndatasize)\n    tag_83:\n      pop\n      pop\n      pop\n      pop\n      mload(0x40)\n      returndatasize\n      not(0x1f)\n      0x1f\n      dup3\n      add\n      and\n      dup3\n      add\n      dup1\n      0x40\n      mstore\n      pop\n      dup2\n      add\n      swap1\n      tag_84\n      swap2\n      swap1\n      tag_70\n      jump\t// in\n    tag_84:\n      sub(shl(0xa0, 0x01), 0x01)\n        /* \"SpageroNFTMarket_flattened.sol\":9969:10012  token.getApproved(tokenId) == address(this) */\n      and\n      eq\n        /* \"SpageroNFTMarket_flattened.sol\":9916:10012  token.isApprovedForAll(msg.sender, address(this)) || token.getApproved(tokenId) == address(this) */\n    tag_80:\n        /* \"SpageroNFTMarket_flattened.sol\":9908:10048  require(token.isApprovedForAll(msg.sender, address(this)) || token.getApproved(tokenId) == address(this),... */\n      tag_85\n      jumpi\n      mload(0x40)\n      shl(0xe5, 0x461bcd)\n      dup2\n      mstore\n        /* \"#utility.yul\":5349:5351   */\n      0x20\n        /* \"SpageroNFTMarket_flattened.sol\":9908:10048  require(token.isApprovedForAll(msg.sender, address(this)) || token.getApproved(tokenId) == address(this),... */\n      0x04\n      dup3\n      add\n        /* \"#utility.yul\":5331:5352   */\n      mstore\n        /* \"#utility.yul\":5388:5390   */\n      0x13\n        /* \"#utility.yul\":5368:5386   */\n      0x24\n      dup3\n      add\n        /* \"#utility.yul\":5361:5391   */\n      mstore\n      shl(0x6a, 0x1b585c9ad95d081b9bdd08185c1c1c9bdd9959)\n        /* \"#utility.yul\":5407:5425   */\n      0x44\n      dup3\n      add\n        /* \"#utility.yul\":5400:5449   */\n      mstore\n        /* \"#utility.yul\":5466:5484   */\n      0x64\n      add\n        /* \"SpageroNFTMarket_flattened.sol\":9908:10048  require(token.isApprovedForAll(msg.sender, address(this)) || token.getApproved(tokenId) == address(this),... */\n      tag_30\n        /* \"#utility.yul\":5147:5490   */\n      jump\n        /* \"SpageroNFTMarket_flattened.sol\":9908:10048  require(token.isApprovedForAll(msg.sender, address(this)) || token.getApproved(tokenId) == address(this),... */\n    tag_85:\n        /* \"SpageroNFTMarket_flattened.sol\":10058:10067  bytes32 k */\n      0x00\n        /* \"SpageroNFTMarket_flattened.sol\":10070:10088  _key(nft, tokenId) */\n      tag_88\n        /* \"SpageroNFTMarket_flattened.sol\":10075:10078  nft */\n      dup6\n        /* \"SpageroNFTMarket_flattened.sol\":10080:10087  tokenId */\n      dup6\n        /* \"SpageroNFTMarket_flattened.sol\":10070:10074  _key */\n      tag_28\n        /* \"SpageroNFTMarket_flattened.sol\":10070:10088  _key(nft, tokenId) */\n      jump\t// in\n    tag_88:\n        /* \"SpageroNFTMarket_flattened.sol\":10112:10152  Listing(msg.sender, nft, tokenId, price) */\n      0x40\n      dup1\n      mload\n      0x80\n      dup2\n      add\n      dup3\n      mstore\n        /* \"SpageroNFTMarket_flattened.sol\":10120:10130  msg.sender */\n      caller\n        /* \"SpageroNFTMarket_flattened.sol\":10112:10152  Listing(msg.sender, nft, tokenId, price) */\n      dup1\n      dup3\n      mstore\n      sub(shl(0xa0, 0x01), 0x01)\n      dup10\n      dup2\n      and\n      0x20\n      dup1\n      dup6\n      add\n      dup3\n      dup2\n      mstore\n      dup6\n      dup8\n      add\n      dup13\n      dup2\n      mstore\n      0x60\n      dup8\n      add\n      dup13\n      dup2\n      mstore\n      0x00\n        /* \"SpageroNFTMarket_flattened.sol\":10098:10109  listings[k] */\n      dup11\n      dup2\n      mstore\n        /* \"SpageroNFTMarket_flattened.sol\":10098:10106  listings */\n      0x01\n        /* \"SpageroNFTMarket_flattened.sol\":10098:10109  listings[k] */\n      dup1\n      dup7\n      mstore\n      swap1\n      dup11\n      swap1\n      keccak256\n        /* \"SpageroNFTMarket_flattened.sol\":10098:10152  listings[k] = Listing(msg.sender, nft, tokenId, price) */\n      swap9\n      mload\n      dup10\n      sload\n      swap1\n      dup9\n      and\n      not(sub(shl(0xa0, 0x01), 0x01))\n      swap2\n      dup3\n      and\n      or\n      dup11\n      sstore\n      swap4\n      mload\n      swap1\n      dup10\n      add\n      dup1\n      sload\n      swap2\n      swap1\n      swap8\n      and\n      swap4\n      and\n      swap3\n      swap1\n      swap3\n      or\n      swap1\n      swap5\n      sstore\n      swap3\n      mload\n      0x02\n      dup7\n      add\n      sstore\n      swap2\n      mload\n      0x03\n      swap1\n      swap5\n      add\n      swap4\n      swap1\n      swap4\n      sstore\n        /* \"SpageroNFTMarket_flattened.sol\":10167:10206  Listed(msg.sender, nft, tokenId, price) */\n      swap3\n      mload\n        /* \"#utility.yul\":3592:3617   */\n      dup8\n      dup2\n      mstore\n        /* \"SpageroNFTMarket_flattened.sol\":10098:10109  listings[k] */\n      swap4\n      swap5\n      pop\n        /* \"SpageroNFTMarket_flattened.sol\":10112:10152  Listing(msg.sender, nft, tokenId, price) */\n      dup8\n      swap4\n      swap2\n      swap3\n        /* \"SpageroNFTMarket_flattened.sol\":10120:10130  msg.sender */\n      swap1\n      swap2\n        /* \"SpageroNFTMarket_flattened.sol\":10167:10206  Listed(msg.sender, nft, tokenId, price) */\n      0xd9d69fee247951cc283dc6f5b64c36ce396a36146405a798b86ebfd113c8b5ca\n      swap2\n        /* \"#utility.yul\":3565:3583   */\n      add\n        /* \"SpageroNFTMarket_flattened.sol\":10167:10206  Listed(msg.sender, nft, tokenId, price) */\n      mload(0x40)\n      dup1\n      swap2\n      sub\n      swap1\n      log4\n        /* \"SpageroNFTMarket_flattened.sol\":9753:10213  {... */\n      pop\n      pop\n        /* \"SpageroNFTMarket_flattened.sol\":9685:10213  function list(address nft, uint256 tokenId, uint256 price) external {... */\n      pop\n      pop\n      pop\n      jump\t// out\n        /* \"SpageroNFTMarket_flattened.sol\":9539:9679  function _key(address nft, uint256 tokenId) private pure returns (bytes32) {... */\n    tag_28:\n        /* \"SpageroNFTMarket_flattened.sol\":9641:9671  abi.encodePacked(nft, tokenId) */\n      mload(0x40)\n      not(0xffffffffffffffffffffffff)\n        /* \"#utility.yul\":5672:5674   */\n      0x60\n        /* \"#utility.yul\":5668:5683   */\n      dup5\n      swap1\n      shl\n        /* \"#utility.yul\":5664:5717   */\n      and\n        /* \"SpageroNFTMarket_flattened.sol\":9641:9671  abi.encodePacked(nft, tokenId) */\n      0x20\n      dup3\n      add\n        /* \"#utility.yul\":5652:5718   */\n      mstore\n        /* \"#utility.yul\":5734:5746   */\n      0x34\n      dup2\n      add\n        /* \"#utility.yul\":5727:5755   */\n      dup3\n      swap1\n      mstore\n        /* \"SpageroNFTMarket_flattened.sol\":9605:9612  bytes32 */\n      0x00\n      swap1\n        /* \"#utility.yul\":5771:5783   */\n      0x54\n      add\n        /* \"SpageroNFTMarket_flattened.sol\":9641:9671  abi.encodePacked(nft, tokenId) */\n      mload(0x40)\n      0x20\n      dup2\n      dup4\n      sub\n      sub\n      dup2\n      mstore\n      swap1\n      0x40\n      mstore\n        /* \"SpageroNFTMarket_flattened.sol\":9631:9672  keccak256(abi.encodePacked(nft, tokenId)) */\n      dup1\n      mload\n      swap1\n      0x20\n      add\n      keccak256\n        /* \"SpageroNFTMarket_flattened.sol\":9624:9672  return keccak256(abi.encodePacked(nft, tokenId)) */\n      swap1\n      pop\n        /* \"SpageroNFTMarket_flattened.sol\":9539:9679  function _key(address nft, uint256 tokenId) private pure returns (bytes32) {... */\n      swap3\n      swap2\n      pop\n      pop\n      jump\t// out\n        /* \"SpageroNFTMarket_flattened.sol\":8202:8489  function _nonReentrantBefore() private {... */\n    tag_37:\n        /* \"SpageroNFTMarket_flattened.sol\":7625:7626  2 */\n      0x02\n        /* \"SpageroNFTMarket_flattened.sol\":8334:8341  _status */\n      sload(0x00)\n        /* \"SpageroNFTMarket_flattened.sol\":8334:8353  _status != _ENTERED */\n      sub\n        /* \"SpageroNFTMarket_flattened.sol\":8326:8389  require(_status != _ENTERED, \"ReentrancyGuard: reentrant call\") */\n      tag_94\n      jumpi\n      mload(0x40)\n      shl(0xe5, 0x461bcd)\n      dup2\n      mstore\n        /* \"#utility.yul\":5996:5998   */\n      0x20\n        /* \"SpageroNFTMarket_flattened.sol\":8326:8389  require(_status != _ENTERED, \"ReentrancyGuard: reentrant call\") */\n      0x04\n      dup3\n      add\n        /* \"#utility.yul\":5978:5999   */\n      mstore\n        /* \"#utility.yul\":6035:6037   */\n      0x1f\n        /* \"#utility.yul\":6015:6033   */\n      0x24\n      dup3\n      add\n        /* \"#utility.yul\":6008:6038   */\n      mstore\n        /* \"#utility.yul\":6074:6107   */\n      0x5265656e7472616e637947756172643a207265656e7472616e742063616c6c00\n        /* \"#utility.yul\":6054:6072   */\n      0x44\n      dup3\n      add\n        /* \"#utility.yul\":6047:6108   */\n      mstore\n        /* \"#utility.yul\":6125:6143   */\n      0x64\n      add\n        /* \"SpageroNFTMarket_flattened.sol\":8326:8389  require(_status != _ENTERED, \"ReentrancyGuard: reentrant call\") */\n      tag_30\n        /* \"#utility.yul\":5794:6149   */\n      jump\n        /* \"SpageroNFTMarket_flattened.sol\":8326:8389  require(_status != _ENTERED, \"ReentrancyGuard: reentrant call\") */\n    tag_94:\n        /* \"SpageroNFTMarket_flattened.sol\":7625:7626  2 */\n      0x02\n        /* \"SpageroNFTMarket_flattened.sol\":8464:8471  _status */\n      0x00\n        /* \"SpageroNFTMarket_flattened.sol\":8464:8482  _status = _ENTERED */\n      sstore\n        /* \"SpageroNFTMarket_flattened.sol\":8202:8489  function _nonReentrantBefore() private {... */\n      jump\t// out\n        /* \"#utility.yul\":14:145   */\n    tag_98:\n      sub(shl(0xa0, 0x01), 0x01)\n        /* \"#utility.yul\":89:120   */\n      dup2\n      and\n        /* \"#utility.yul\":79:121   */\n      dup2\n      eq\n        /* \"#utility.yul\":69:139   */\n      tag_101\n      jumpi\n        /* \"#utility.yul\":135:136   */\n      0x00\n        /* \"#utility.yul\":132:133   */\n      dup1\n        /* \"#utility.yul\":125:137   */\n      revert\n        /* \"#utility.yul\":69:139   */\n    tag_101:\n        /* \"#utility.yul\":14:145   */\n      pop\n      jump\t// out\n        /* \"#utility.yul\":150:465   */\n    tag_9:\n        /* \"#utility.yul\":218:224   */\n      0x00\n        /* \"#utility.yul\":226:232   */\n      dup1\n        /* \"#utility.yul\":279:281   */\n      0x40\n        /* \"#utility.yul\":267:276   */\n      dup4\n        /* \"#utility.yul\":258:265   */\n      dup6\n        /* \"#utility.yul\":254:277   */\n      sub\n        /* \"#utility.yul\":250:282   */\n      slt\n        /* \"#utility.yul\":247:299   */\n      iszero\n      tag_103\n      jumpi\n        /* \"#utility.yul\":295:296   */\n      0x00\n        /* \"#utility.yul\":292:293   */\n      dup1\n        /* \"#utility.yul\":285:297   */\n      revert\n        /* \"#utility.yul\":247:299   */\n    tag_103:\n        /* \"#utility.yul\":334:343   */\n      dup3\n        /* \"#utility.yul\":321:344   */\n      calldataload\n        /* \"#utility.yul\":353:384   */\n      tag_104\n        /* \"#utility.yul\":378:383   */\n      dup2\n        /* \"#utility.yul\":353:384   */\n      tag_98\n      jump\t// in\n    tag_104:\n        /* \"#utility.yul\":403:408   */\n      swap5\n        /* \"#utility.yul\":455:457   */\n      0x20\n        /* \"#utility.yul\":440:458   */\n      swap4\n      swap1\n      swap4\n      add\n        /* \"#utility.yul\":427:459   */\n      calldataload\n      swap4\n      pop\n      pop\n      pop\n        /* \"#utility.yul\":150:465   */\n      jump\t// out\n        /* \"#utility.yul\":470:650   */\n    tag_14:\n        /* \"#utility.yul\":529:535   */\n      0x00\n        /* \"#utility.yul\":582:584   */\n      0x20\n        /* \"#utility.yul\":570:579   */\n      dup3\n        /* \"#utility.yul\":561:568   */\n      dup5\n        /* \"#utility.yul\":557:580   */\n      sub\n        /* \"#utility.yul\":553:585   */\n      slt\n        /* \"#utility.yul\":550:602   */\n      iszero\n      tag_106\n      jumpi\n        /* \"#utility.yul\":598:599   */\n      0x00\n        /* \"#utility.yul\":595:596   */\n      dup1\n        /* \"#utility.yul\":588:600   */\n      revert\n        /* \"#utility.yul\":550:602   */\n    tag_106:\n      pop\n        /* \"#utility.yul\":621:644   */\n      calldataload\n      swap2\n        /* \"#utility.yul\":470:650   */\n      swap1\n      pop\n      jump\t// out\n        /* \"#utility.yul\":1107:1490   */\n    tag_24:\n        /* \"#utility.yul\":1184:1190   */\n      0x00\n        /* \"#utility.yul\":1192:1198   */\n      dup1\n        /* \"#utility.yul\":1200:1206   */\n      0x00\n        /* \"#utility.yul\":1253:1255   */\n      0x60\n        /* \"#utility.yul\":1241:1250   */\n      dup5\n        /* \"#utility.yul\":1232:1239   */\n      dup7\n        /* \"#utility.yul\":1228:1251   */\n      sub\n        /* \"#utility.yul\":1224:1256   */\n      slt\n        /* \"#utility.yul\":1221:1273   */\n      iszero\n      tag_109\n      jumpi\n        /* \"#utility.yul\":1269:1270   */\n      0x00\n        /* \"#utility.yul\":1266:1267   */\n      dup1\n        /* \"#utility.yul\":1259:1271   */\n      revert\n        /* \"#utility.yul\":1221:1273   */\n    tag_109:\n        /* \"#utility.yul\":1308:1317   */\n      dup4\n        /* \"#utility.yul\":1295:1318   */\n      calldataload\n        /* \"#utility.yul\":1327:1358   */\n      tag_110\n        /* \"#utility.yul\":1352:1357   */\n      dup2\n        /* \"#utility.yul\":1327:1358   */\n      tag_98\n      jump\t// in\n    tag_110:\n        /* \"#utility.yul\":1377:1382   */\n      swap6\n        /* \"#utility.yul\":1429:1431   */\n      0x20\n        /* \"#utility.yul\":1414:1432   */\n      dup6\n      add\n        /* \"#utility.yul\":1401:1433   */\n      calldataload\n      swap6\n      pop\n        /* \"#utility.yul\":1480:1482   */\n      0x40\n        /* \"#utility.yul\":1465:1483   */\n      swap1\n      swap5\n      add\n        /* \"#utility.yul\":1452:1484   */\n      calldataload\n      swap4\n        /* \"#utility.yul\":1107:1490   */\n      swap3\n      pop\n      pop\n      pop\n      jump\t// out\n        /* \"#utility.yul\":3963:4214   */\n    tag_70:\n        /* \"#utility.yul\":4033:4039   */\n      0x00\n        /* \"#utility.yul\":4086:4088   */\n      0x20\n        /* \"#utility.yul\":4074:4083   */\n      dup3\n        /* \"#utility.yul\":4065:4072   */\n      dup5\n        /* \"#utility.yul\":4061:4084   */\n      sub\n        /* \"#utility.yul\":4057:4089   */\n      slt\n        /* \"#utility.yul\":4054:4106   */\n      iszero\n      tag_120\n      jumpi\n        /* \"#utility.yul\":4102:4103   */\n      0x00\n        /* \"#utility.yul\":4099:4100   */\n      dup1\n        /* \"#utility.yul\":4092:4104   */\n      revert\n        /* \"#utility.yul\":4054:4106   */\n    tag_120:\n        /* \"#utility.yul\":4134:4143   */\n      dup2\n        /* \"#utility.yul\":4128:4144   */\n      mload\n        /* \"#utility.yul\":4153:4184   */\n      tag_121\n        /* \"#utility.yul\":4178:4183   */\n      dup2\n        /* \"#utility.yul\":4153:4184   */\n      tag_98\n      jump\t// in\n    tag_121:\n        /* \"#utility.yul\":4203:4208   */\n      swap4\n        /* \"#utility.yul\":3963:4214   */\n      swap3\n      pop\n      pop\n      pop\n      jump\t// out\n        /* \"#utility.yul\":4865:5142   */\n    tag_79:\n        /* \"#utility.yul\":4932:4938   */\n      0x00\n        /* \"#utility.yul\":4985:4987   */\n      0x20\n        /* \"#utility.yul\":4973:4982   */\n      dup3\n        /* \"#utility.yul\":4964:4971   */\n      dup5\n        /* \"#utility.yul\":4960:4983   */\n      sub\n        /* \"#utility.yul\":4956:4988   */\n      slt\n        /* \"#utility.yul\":4953:5005   */\n      iszero\n      tag_125\n      jumpi\n        /* \"#utility.yul\":5001:5002   */\n      0x00\n        /* \"#utility.yul\":4998:4999   */\n      dup1\n        /* \"#utility.yul\":4991:5003   */\n      revert\n        /* \"#utility.yul\":4953:5005   */\n    tag_125:\n        /* \"#utility.yul\":5033:5042   */\n      dup2\n        /* \"#utility.yul\":5027:5043   */\n      mload\n        /* \"#utility.yul\":5086:5091   */\n      dup1\n        /* \"#utility.yul\":5079:5092   */\n      iszero\n        /* \"#utility.yul\":5072:5093   */\n      iszero\n        /* \"#utility.yul\":5065:5070   */\n      dup2\n        /* \"#utility.yul\":5062:5094   */\n      eq\n        /* \"#utility.yul\":5052:5112   */\n      tag_121\n      jumpi\n        /* \"#utility.yul\":5108:5109   */\n      0x00\n        /* \"#utility.yul\":5105:5106   */\n      dup1\n        /* \"#utility.yul\":5098:5110   */\n      revert\n\n    auxdata: 0xa26469706673582212204dd39874ddec37406841af45d60723cfa510c5791c5ac550e4adf8f39519d05564736f6c63430008180033\n}\n",
				"bytecode": {
					"linkReferences": {},
					"object": "608060405234801561000f575f80fd5b5060015f55610948806100215f395ff3fe60806040526004361061003e575f3560e01c806398590ef914610042578063c18b8db414610063578063cce7ec13146100e1578063dda342bb146100f4575b5f80fd5b34801561004d575f80fd5b5061006161005c36600461085e565b610113565b005b34801561006e575f80fd5b506100b261007d366004610888565b600160208190525f918252604090912080549181015460028201546003909201546001600160a01b0393841693909116919084565b604080516001600160a01b03958616815294909316602085015291830152606082015260800160405180910390f35b6100616100ef36600461085e565b610265565b3480156100ff575f80fd5b5061006161010e36600461089f565b6104da565b5f61011e83836107aa565b5f81815260016020818152604092839020835160808101855281546001600160a01b039081168083529483015416928101929092526002810154938201939093526003909201546060830152919250906101ac5760405162461bcd60e51b815260206004820152600a6024820152691b9bdd081b1a5cdd195960b21b60448201526064015b60405180910390fd5b80516001600160a01b031633146101f25760405162461bcd60e51b815260206004820152600a6024820152693737ba1039b2b63632b960b11b60448201526064016101a3565b5f82815260016020819052604080832080546001600160a01b0319908116825592810180549093169092556002820183905560039091018290555184916001600160a01b0387169133917f915fb8c652d6245752cc491b71bd8e87ab6761417f8d2ca353c8055103294c0391a450505050565b61026d6107f0565b5f61027883836107aa565b5f81815260016020818152604092839020835160808101855281546001600160a01b039081168083529483015416928101929092526002810154938201939093526003909201546060830152919250906103015760405162461bcd60e51b815260206004820152600a6024820152691b9bdd081b1a5cdd195960b21b60448201526064016101a3565b806060015134146103405760405162461bcd60e51b81526020600482015260096024820152686261642076616c756560b81b60448201526064016101a3565b5f82815260016020819052604080832080546001600160a01b031990811682559281018054909316909255600282018390556003909101829055825190516001600160a01b039091169034908381818185875af1925050503d805f81146103c2576040519150601f19603f3d011682016040523d82523d5f602084013e6103c7565b606091505b505090508061040c5760405162461bcd60e51b81526020600482015260116024820152701c185e481cd95b1b195c8819985a5b1959607a1b60448201526064016101a3565b602082015182516040808501519051632142170760e11b81526001600160a01b03928316600482015233602482015260448101919091529116906342842e0e906064015f604051808303815f87803b158015610466575f80fd5b505af1158015610478573d5f803e3d5ffd5b5050505083856001600160a01b0316336001600160a01b03167fa326259ec721617acd3cb2a00bcbeac91eefe409880e49aa2bbf473ed648da49346040516104c291815260200190565b60405180910390a45050506104d660015f55565b5050565b5f81116105135760405162461bcd60e51b8152602060048201526007602482015266070726963653d360cc1b60448201526064016101a3565b6040516331a9108f60e11b815260048101839052839033906001600160a01b03831690636352211e90602401602060405180830381865afa15801561055a573d5f803e3d5ffd5b505050506040513d601f19601f8201168201806040525081019061057e91906108d1565b6001600160a01b0316146105c05760405162461bcd60e51b81526020600482015260096024820152683737ba1037bbb732b960b91b60448201526064016101a3565b60405163e985e9c560e01b81523360048201523060248201526001600160a01b0382169063e985e9c590604401602060405180830381865afa158015610608573d5f803e3d5ffd5b505050506040513d601f19601f8201168201806040525081019061062c91906108f3565b806106a6575060405163020604bf60e21b81526004810184905230906001600160a01b0383169063081812fc90602401602060405180830381865afa158015610677573d5f803e3d5ffd5b505050506040513d601f19601f8201168201806040525081019061069b91906108d1565b6001600160a01b0316145b6106e85760405162461bcd60e51b81526020600482015260136024820152721b585c9ad95d081b9bdd08185c1c1c9bdd9959606a1b60448201526064016101a3565b5f6106f385856107aa565b60408051608081018252338082526001600160a01b0389811660208085018281528587018c8152606087018c81525f8a81526001808652908a9020985189549088166001600160a01b0319918216178a55935190890180549190971693169290921790945592516002860155915160039094019390935592518781529394508793919290917fd9d69fee247951cc283dc6f5b64c36ce396a36146405a798b86ebfd113c8b5ca910160405180910390a45050505050565b6040516bffffffffffffffffffffffff19606084901b166020820152603481018290525f9060540160405160208183030381529060405280519060200120905092915050565b60025f54036108415760405162461bcd60e51b815260206004820152601f60248201527f5265656e7472616e637947756172643a207265656e7472616e742063616c6c0060448201526064016101a3565b60025f55565b6001600160a01b038116811461085b575f80fd5b50565b5f806040838503121561086f575f80fd5b823561087a81610847565b946020939093013593505050565b5f60208284031215610898575f80fd5b5035919050565b5f805f606084860312156108b1575f80fd5b83356108bc81610847565b95602085013595506040909401359392505050565b5f602082840312156108e1575f80fd5b81516108ec81610847565b9392505050565b5f60208284031215610903575f80fd5b815180151581146108ec575f80fdfea26469706673582212204dd39874ddec37406841af45d60723cfa510c5791c5ac550e4adf8f39519d05564736f6c63430008180033",
					"opcodes": "PUSH1 0x80 PUSH1 0x40 MSTORE CALLVALUE DUP1 ISZERO PUSH2 0xF JUMPI PUSH0 DUP1 REVERT JUMPDEST POP PUSH1 0x1 PUSH0 SSTORE PUSH2 0x948 DUP1 PUSH2 0x21 PUSH0 CODECOPY PUSH0 RETURN INVALID PUSH1 0x80 PUSH1 0x40 MSTORE PUSH1 0x4 CALLDATASIZE LT PUSH2 0x3E JUMPI PUSH0 CALLDATALOAD PUSH1 0xE0 SHR DUP1 PUSH4 0x98590EF9 EQ PUSH2 0x42 JUMPI DUP1 PUSH4 0xC18B8DB4 EQ PUSH2 0x63 JUMPI DUP1 PUSH4 0xCCE7EC13 EQ PUSH2 0xE1 JUMPI DUP1 PUSH4 0xDDA342BB EQ PUSH2 0xF4 JUMPI JUMPDEST PUSH0 DUP1 REVERT JUMPDEST CALLVALUE DUP1 ISZERO PUSH2 0x4D JUMPI PUSH0 DUP1 REVERT JUMPDEST POP PUSH2 0x61 PUSH2 0x5C CALLDATASIZE PUSH1 0x4 PUSH2 0x85E JUMP JUMPDEST PUSH2 0x113 JUMP JUMPDEST STOP JUMPDEST CALLVALUE DUP1 ISZERO PUSH2 0x6E JUMPI PUSH0 DUP1 REVERT JUMPDEST POP PUSH2 0xB2 PUSH2 0x7D CALLDATASIZE PUSH1 0x4 PUSH2 0x888 JUMP JUMPDEST PUSH1 0x1 PUSH1 0x20 DUP2 SWAP1 MSTORE PUSH0 SWAP2 DUP3 MSTORE PUSH1 0x40 SWAP1 SWAP2 KECCAK256 DUP1 SLOAD SWAP2 DUP2 ADD SLOAD PUSH1 0x2 DUP3 ADD SLOAD PUSH1 0x3 SWAP1 SWAP3 ADD SLOAD PUSH1 0x1 PUSH1 0x1 PUSH1 0xA0 SHL SUB SWAP4 DUP5 AND SWAP4 SWAP1 SWAP2 AND SWAP2 SWAP1 DUP5 JUMP JUMPDEST PUSH1 0x40 DUP1 MLOAD PUSH1 0x1 PUSH1 0x1 PUSH1 0xA0 SHL SUB SWAP6 DUP7 AND DUP2 MSTORE SWAP5 SWAP1 SWAP4 AND PUSH1 0x20 DUP6 ADD MSTORE SWAP2 DUP4 ADD MSTORE PUSH1 0x60 DUP3 ADD MSTORE PUSH1 0x80 ADD PUSH1 0x40 MLOAD DUP1 SWAP2 SUB SWAP1 RETURN JUMPDEST PUSH2 0x61 PUSH2 0xEF CALLDATASIZE PUSH1 0x4 PUSH2 0x85E JUMP JUMPDEST PUSH2 0x265 JUMP JUMPDEST CALLVALUE DUP1 ISZERO PUSH2 0xFF JUMPI PUSH0 DUP1 REVERT JUMPDEST POP PUSH2 0x61 PUSH2 0x10E CALLDATASIZE PUSH1 0x4 PUSH2 0x89F JUMP JUMPDEST PUSH2 0x4DA JUMP JUMPDEST PUSH0 PUSH2 0x11E DUP4 DUP4 PUSH2 0x7AA JUMP JUMPDEST PUSH0 DUP2 DUP2 MSTORE PUSH1 0x1 PUSH1 0x20 DUP2 DUP2 MSTORE PUSH1 0x40 SWAP3 DUP4 SWAP1 KECCAK256 DUP4 MLOAD PUSH1 0x80 DUP2 ADD DUP6 MSTORE DUP2 SLOAD PUSH1 0x1 PUSH1 0x1 PUSH1 0xA0 SHL SUB SWAP1 DUP2 AND DUP1 DUP4 MSTORE SWAP5 DUP4 ADD SLOAD AND SWAP3 DUP2 ADD SWAP3 SWAP1 SWAP3 MSTORE PUSH1 0x2 DUP2 ADD SLOAD SWAP4 DUP3 ADD SWAP4 SWAP1 SWAP4 MSTORE PUSH1 0x3 SWAP1 SWAP3 ADD SLOAD PUSH1 0x60 DUP4 ADD MSTORE SWAP2 SWAP3 POP SWAP1 PUSH2 0x1AC JUMPI PUSH1 0x40 MLOAD PUSH3 0x461BCD PUSH1 0xE5 SHL DUP2 MSTORE PUSH1 0x20 PUSH1 0x4 DUP3 ADD MSTORE PUSH1 0xA PUSH1 0x24 DUP3 ADD MSTORE PUSH10 0x1B9BDD081B1A5CDD1959 PUSH1 0xB2 SHL PUSH1 0x44 DUP3 ADD MSTORE PUSH1 0x64 ADD JUMPDEST PUSH1 0x40 MLOAD DUP1 SWAP2 SUB SWAP1 REVERT JUMPDEST DUP1 MLOAD PUSH1 0x1 PUSH1 0x1 PUSH1 0xA0 SHL SUB AND CALLER EQ PUSH2 0x1F2 JUMPI PUSH1 0x40 MLOAD PUSH3 0x461BCD PUSH1 0xE5 SHL DUP2 MSTORE PUSH1 0x20 PUSH1 0x4 DUP3 ADD MSTORE PUSH1 0xA PUSH1 0x24 DUP3 ADD MSTORE PUSH10 0x3737BA1039B2B63632B9 PUSH1 0xB1 SHL PUSH1 0x44 DUP3 ADD MSTORE PUSH1 0x64 ADD PUSH2 0x1A3 JUMP JUMPDEST PUSH0 DUP3 DUP2 MSTORE PUSH1 0x1 PUSH1 0x20 DUP2 SWAP1 MSTORE PUSH1 0x40 DUP1 DUP4 KECCAK256 DUP1 SLOAD PUSH1 0x1 PUSH1 0x1 PUSH1 0xA0 SHL SUB NOT SWAP1 DUP2 AND DUP3 SSTORE SWAP3 DUP2 ADD DUP1 SLOAD SWAP1 SWAP4 AND SWAP1 SWAP3 SSTORE PUSH1 0x2 DUP3 ADD DUP4 SWAP1 SSTORE PUSH1 0x3 SWAP1 SWAP2 ADD DUP3 SWAP1 SSTORE MLOAD DUP5 SWAP2 PUSH1 0x1 PUSH1 0x1 PUSH1 0xA0 SHL SUB DUP8 AND SWAP2 CALLER SWAP2 PUSH32 0x915FB8C652D6245752CC491B71BD8E87AB6761417F8D2CA353C8055103294C03 SWAP2 LOG4 POP POP POP POP JUMP JUMPDEST PUSH2 0x26D PUSH2 0x7F0 JUMP JUMPDEST PUSH0 PUSH2 0x278 DUP4 DUP4 PUSH2 0x7AA JUMP JUMPDEST PUSH0 DUP2 DUP2 MSTORE PUSH1 0x1 PUSH1 0x20 DUP2 DUP2 MSTORE PUSH1 0x40 SWAP3 DUP4 SWAP1 KECCAK256 DUP4 MLOAD PUSH1 0x80 DUP2 ADD DUP6 MSTORE DUP2 SLOAD PUSH1 0x1 PUSH1 0x1 PUSH1 0xA0 SHL SUB SWAP1 DUP2 AND DUP1 DUP4 MSTORE SWAP5 DUP4 ADD SLOAD AND SWAP3 DUP2 ADD SWAP3 SWAP1 SWAP3 MSTORE PUSH1 0x2 DUP2 ADD SLOAD SWAP4 DUP3 ADD SWAP4 SWAP1 SWAP4 MSTORE PUSH1 0x3 SWAP1 SWAP3 ADD SLOAD PUSH1 0x60 DUP4 ADD MSTORE SWAP2 SWAP3 POP SWAP1 PUSH2 0x301 JUMPI PUSH1 0x40 MLOAD PUSH3 0x461BCD PUSH1 0xE5 SHL DUP2 MSTORE PUSH1 0x20 PUSH1 0x4 DUP3 ADD MSTORE PUSH1 0xA PUSH1 0x24 DUP3 ADD MSTORE PUSH10 0x1B9BDD081B1A5CDD1959 PUSH1 0xB2 SHL PUSH1 0x44 DUP3 ADD MSTORE PUSH1 0x64 ADD PUSH2 0x1A3 JUMP JUMPDEST DUP1 PUSH1 0x60 ADD MLOAD CALLVALUE EQ PUSH2 0x340 JUMPI PUSH1 0x40 MLOAD PUSH3 0x461BCD PUSH1 0xE5 SHL DUP2 MSTORE PUSH1 0x20 PUSH1 0x4 DUP3 ADD MSTORE PUSH1 0x9 PUSH1 0x24 DUP3 ADD MSTORE PUSH9 0x6261642076616C7565 PUSH1 0xB8 SHL PUSH1 0x44 DUP3 ADD MSTORE PUSH1 0x64 ADD PUSH2 0x1A3 JUMP JUMPDEST PUSH0 DUP3 DUP2 MSTORE PUSH1 0x1 PUSH1 0x20 DUP2 SWAP1 MSTORE PUSH1 0x40 DUP1 DUP4 KECCAK256 DUP1 SLOAD PUSH1 0x1 PUSH1 0x1 PUSH1 0xA0 SHL SUB NOT SWAP1 DUP2 AND DUP3 SSTORE SWAP3 DUP2 ADD DUP1 SLOAD SWAP1 SWAP4 AND SWAP1 SWAP3 SSTORE PUSH1 0x2 DUP3 ADD DUP4 SWAP1 SSTORE PUSH1 0x3 SWAP1 SWAP2 ADD DUP3 SWAP1 SSTORE DUP3 MLOAD SWAP1 MLOAD PUSH1 0x1 PUSH1 0x1 PUSH1 0xA0 SHL SUB SWAP1 SWAP2 AND SWAP1 CALLVALUE SWAP1 DUP4 DUP2 DUP2 DUP2 DUP6 DUP8 GAS CALL SWAP3 POP POP POP RETURNDATASIZE DUP1 PUSH0 DUP2 EQ PUSH2 0x3C2 JUMPI PUSH1 0x40 MLOAD SWAP2 POP PUSH1 0x1F NOT PUSH1 0x3F RETURNDATASIZE ADD AND DUP3 ADD PUSH1 0x40 MSTORE RETURNDATASIZE DUP3 MSTORE RETURNDATASIZE PUSH0 PUSH1 0x20 DUP5 ADD RETURNDATACOPY PUSH2 0x3C7 JUMP JUMPDEST PUSH1 0x60 SWAP2 POP JUMPDEST POP POP SWAP1 POP DUP1 PUSH2 0x40C JUMPI PUSH1 0x40 MLOAD PUSH3 0x461BCD PUSH1 0xE5 SHL DUP2 MSTORE PUSH1 0x20 PUSH1 0x4 DUP3 ADD MSTORE PUSH1 0x11 PUSH1 0x24 DUP3 ADD MSTORE PUSH17 0x1C185E481CD95B1B195C8819985A5B1959 PUSH1 0x7A SHL PUSH1 0x44 DUP3 ADD MSTORE PUSH1 0x64 ADD PUSH2 0x1A3 JUMP JUMPDEST PUSH1 0x20 DUP3 ADD MLOAD DUP3 MLOAD PUSH1 0x40 DUP1 DUP6 ADD MLOAD SWAP1 MLOAD PUSH4 0x21421707 PUSH1 0xE1 SHL DUP2 MSTORE PUSH1 0x1 PUSH1 0x1 PUSH1 0xA0 SHL SUB SWAP3 DUP4 AND PUSH1 0x4 DUP3 ADD MSTORE CALLER PUSH1 0x24 DUP3 ADD MSTORE PUSH1 0x44 DUP2 ADD SWAP2 SWAP1 SWAP2 MSTORE SWAP2 AND SWAP1 PUSH4 0x42842E0E SWAP1 PUSH1 0x64 ADD PUSH0 PUSH1 0x40 MLOAD DUP1 DUP4 SUB DUP2 PUSH0 DUP8 DUP1 EXTCODESIZE ISZERO DUP1 ISZERO PUSH2 0x466 JUMPI PUSH0 DUP1 REVERT JUMPDEST POP GAS CALL ISZERO DUP1 ISZERO PUSH2 0x478 JUMPI RETURNDATASIZE PUSH0 DUP1 RETURNDATACOPY RETURNDATASIZE PUSH0 REVERT JUMPDEST POP POP POP POP DUP4 DUP6 PUSH1 0x1 PUSH1 0x1 PUSH1 0xA0 SHL SUB AND CALLER PUSH1 0x1 PUSH1 0x1 PUSH1 0xA0 SHL SUB AND PUSH32 0xA326259EC721617ACD3CB2A00BCBEAC91EEFE409880E49AA2BBF473ED648DA49 CALLVALUE PUSH1 0x40 MLOAD PUSH2 0x4C2 SWAP2 DUP2 MSTORE PUSH1 0x20 ADD SWAP1 JUMP JUMPDEST PUSH1 0x40 MLOAD DUP1 SWAP2 SUB SWAP1 LOG4 POP POP POP PUSH2 0x4D6 PUSH1 0x1 PUSH0 SSTORE JUMP JUMPDEST POP POP JUMP JUMPDEST PUSH0 DUP2 GT PUSH2 0x513 JUMPI PUSH1 0x40 MLOAD PUSH3 0x461BCD PUSH1 0xE5 SHL DUP2 MSTORE PUSH1 0x20 PUSH1 0x4 DUP3 ADD MSTORE PUSH1 0x7 PUSH1 0x24 DUP3 ADD MSTORE PUSH7 0x70726963653D3 PUSH1 0xCC SHL PUSH1 0x44 DUP3 ADD MSTORE PUSH1 0x64 ADD PUSH2 0x1A3 JUMP JUMPDEST PUSH1 0x40 MLOAD PUSH4 0x31A9108F PUSH1 0xE1 SHL DUP2 MSTORE PUSH1 0x4 DUP2 ADD DUP4 SWAP1 MSTORE DUP4 SWAP1 CALLER SWAP1 PUSH1 0x1 PUSH1 0x1 PUSH1 0xA0 SHL SUB DUP4 AND SWAP1 PUSH4 0x6352211E SWAP1 PUSH1 0x24 ADD PUSH1 0x20 PUSH1 0x40 MLOAD DUP1 DUP4 SUB DUP2 DUP7 GAS STATICCALL ISZERO DUP1 ISZERO PUSH2 0x55A JUMPI RETURNDATASIZE PUSH0 DUP1 RETURNDATACOPY RETURNDATASIZE PUSH0 REVERT JUMPDEST POP POP POP POP PUSH1 0x40 MLOAD RETURNDATASIZE PUSH1 0x1F NOT PUSH1 0x1F DUP3 ADD AND DUP3 ADD DUP1 PUSH1 0x40 MSTORE POP DUP2 ADD SWAP1 PUSH2 0x57E SWAP2 SWAP1 PUSH2 0x8D1 JUMP JUMPDEST PUSH1 0x1 PUSH1 0x1 PUSH1 0xA0 SHL SUB AND EQ PUSH2 0x5C0 JUMPI PUSH1 0x40 MLOAD PUSH3 0x461BCD PUSH1 0xE5 SHL DUP2 MSTORE PUSH1 0x20 PUSH1 0x4 DUP3 ADD MSTORE PUSH1 0x9 PUSH1 0x24 DUP3 ADD MSTORE PUSH9 0x3737BA1037BBB732B9 PUSH1 0xB9 SHL PUSH1 0x44 DUP3 ADD MSTORE PUSH1 0x64 ADD PUSH2 0x1A3 JUMP JUMPDEST PUSH1 0x40 MLOAD PUSH4 0xE985E9C5 PUSH1 0xE0 SHL DUP2 MSTORE CALLER PUSH1 0x4 DUP3 ADD MSTORE ADDRESS PUSH1 0x24 DUP3 ADD MSTORE PUSH1 0x1 PUSH1 0x1 PUSH1 0xA0 SHL SUB DUP3 AND SWAP1 PUSH4 0xE985E9C5 SWAP1 PUSH1 0x44 ADD PUSH1 0x20 PUSH1 0x40 MLOAD DUP1 DUP4 SUB DUP2 DUP7 GAS STATICCALL ISZERO DUP1 ISZERO PUSH2 0x608 JUMPI RETURNDATASIZE PUSH0 DUP1 RETURNDATACOPY RETURNDATASIZE PUSH0 REVERT JUMPDEST POP POP POP POP PUSH1 0x40 MLOAD RETURNDATASIZE PUSH1 0x1F NOT PUSH1 0x1F DUP3 ADD AND DUP3 ADD DUP1 PUSH1 0x40 MSTORE POP DUP2 ADD SWAP1 PUSH2 0x62C SWAP2 SWAP1 PUSH2 0x8F3 JUMP JUMPDEST DUP1 PUSH2 0x6A6 JUMPI POP PUSH1 0x40 MLOAD PUSH4 0x20604BF PUSH1 0xE2 SHL DUP2 MSTORE PUSH1 0x4 DUP2 ADD DUP5 SWAP1 MSTORE ADDRESS SWAP1 PUSH1 0x1 PUSH1 0x1 PUSH1 0xA0 SHL SUB DUP4 AND SWAP1 PUSH4 0x81812FC SWAP1 PUSH1 0x24 ADD PUSH1 0x20 PUSH1 0x40 MLOAD DUP1 DUP4 SUB DUP2 DUP7 GAS STATICCALL ISZERO DUP1 ISZERO PUSH2 0x677 JUMPI RETURNDATASIZE PUSH0 DUP1 RETURNDATACOPY RETURNDATASIZE PUSH0 REVERT JUMPDEST POP POP POP POP PUSH1 0x40 MLOAD RETURNDATASIZE PUSH1 0x1F NOT PUSH1 0x1F DUP3 ADD AND DUP3 ADD DUP1 PUSH1 0x40 MSTORE POP DUP2 ADD SWAP1 PUSH2 0x69B SWAP2 SWAP1 PUSH2 0x8D1 JUMP JUMPDEST PUSH1 0x1 PUSH1 0x1 PUSH1 0xA0 SHL SUB AND EQ JUMPDEST PUSH2 0x6E8 JUMPI PUSH1 0x40 MLOAD PUSH3 0x461BCD PUSH1 0xE5 SHL DUP2 MSTORE PUSH1 0x20 PUSH1 0x4 DUP3 ADD MSTORE PUSH1 0x13 PUSH1 0x24 DUP3 ADD MSTORE PUSH19 0x1B585C9AD95D081B9BDD08185C1C1C9BDD9959 PUSH1 0x6A SHL PUSH1 0x44 DUP3 ADD MSTORE PUSH1 0x64 ADD PUSH2 0x1A3 JUMP JUMPDEST PUSH0 PUSH2 0x6F3 DUP6 DUP6 PUSH2 0x7AA JUMP JUMPDEST PUSH1 0x40 DUP1 MLOAD PUSH1 0x80 DUP2 ADD DUP3 MSTORE CALLER DUP1 DUP3 MSTORE PUSH1 0x1 PUSH1 0x1 PUSH1 0xA0 SHL SUB DUP10 DUP2 AND PUSH1 0x20 DUP1 DUP6 ADD DUP3 DUP2 MSTORE DUP6 DUP8 ADD DUP13 DUP2 MSTORE PUSH1 0x60 DUP8 ADD DUP13 DUP2 MSTORE PUSH0 DUP11 DUP2 MSTORE PUSH1 0x1 DUP1 DUP7 MSTORE SWAP1 DUP11 SWAP1 KECCAK256 SWAP9 MLOAD DUP10 SLOAD SWAP1 DUP9 AND PUSH1 0x1 PUSH1 0x1 PUSH1 0xA0 SHL SUB NOT SWAP2 DUP3 AND OR DUP11 SSTORE SWAP4 MLOAD SWAP1 DUP10 ADD DUP1 SLOAD SWAP2 SWAP1 SWAP8 AND SWAP4 AND SWAP3 SWAP1 SWAP3 OR SWAP1 SWAP5 SSTORE SWAP3 MLOAD PUSH1 0x2 DUP7 ADD SSTORE SWAP2 MLOAD PUSH1 0x3 SWAP1 SWAP5 ADD SWAP4 SWAP1 SWAP4 SSTORE SWAP3 MLOAD DUP8 DUP2 MSTORE SWAP4 SWAP5 POP DUP8 SWAP4 SWAP2 SWAP3 SWAP1 SWAP2 PUSH32 0xD9D69FEE247951CC283DC6F5B64C36CE396A36146405A798B86EBFD113C8B5CA SWAP2 ADD PUSH1 0x40 MLOAD DUP1 SWAP2 SUB SWAP1 LOG4 POP POP POP POP POP JUMP JUMPDEST PUSH1 0x40 MLOAD PUSH12 0xFFFFFFFFFFFFFFFFFFFFFFFF NOT PUSH1 0x60 DUP5 SWAP1 SHL AND PUSH1 0x20 DUP3 ADD MSTORE PUSH1 0x34 DUP2 ADD DUP3 SWAP1 MSTORE PUSH0 SWAP1 PUSH1 0x54 ADD PUSH1 0x40 MLOAD PUSH1 0x20 DUP2 DUP4 SUB SUB DUP2 MSTORE SWAP1 PUSH1 0x40 MSTORE DUP1 MLOAD SWAP1 PUSH1 0x20 ADD KECCAK256 SWAP1 POP SWAP3 SWAP2 POP POP JUMP JUMPDEST PUSH1 0x2 PUSH0 SLOAD SUB PUSH2 0x841 JUMPI PUSH1 0x40 MLOAD PUSH3 0x461BCD PUSH1 0xE5 SHL DUP2 MSTORE PUSH1 0x20 PUSH1 0x4 DUP3 ADD MSTORE PUSH1 0x1F PUSH1 0x24 DUP3 ADD MSTORE PUSH32 0x5265656E7472616E637947756172643A207265656E7472616E742063616C6C00 PUSH1 0x44 DUP3 ADD MSTORE PUSH1 0x64 ADD PUSH2 0x1A3 JUMP JUMPDEST PUSH1 0x2 PUSH0 SSTORE JUMP JUMPDEST PUSH1 0x1 PUSH1 0x1 PUSH1 0xA0 SHL SUB DUP2 AND DUP2 EQ PUSH2 0x85B JUMPI PUSH0 DUP1 REVERT JUMPDEST POP JUMP JUMPDEST PUSH0 DUP1 PUSH1 0x40 DUP4 DUP6 SUB SLT ISZERO PUSH2 0x86F JUMPI PUSH0 DUP1 REVERT JUMPDEST DUP3 CALLDATALOAD PUSH2 0x87A DUP2 PUSH2 0x847 JUMP JUMPDEST SWAP5 PUSH1 0x20 SWAP4 SWAP1 SWAP4 ADD CALLDATALOAD SWAP4 POP POP POP JUMP JUMPDEST PUSH0 PUSH1 0x20 DUP3 DUP5 SUB SLT ISZERO PUSH2 0x898 JUMPI PUSH0 DUP1 REVERT JUMPDEST POP CALLDATALOAD SWAP2 SWAP1 POP JUMP JUMPDEST PUSH0 DUP1 PUSH0 PUSH1 0x60 DUP5 DUP7 SUB SLT ISZERO PUSH2 0x8B1 JUMPI PUSH0 DUP1 REVERT JUMPDEST DUP4 CALLDATALOAD PUSH2 0x8BC DUP2 PUSH2 0x847 JUMP JUMPDEST SWAP6 PUSH1 0x20 DUP6 ADD CALLDATALOAD SWAP6 POP PUSH1 0x40 SWAP1 SWAP5 ADD CALLDATALOAD SWAP4 SWAP3 POP POP POP JUMP JUMPDEST PUSH0 PUSH1 0x20 DUP3 DUP5 SUB SLT ISZERO PUSH2 0x8E1 JUMPI PUSH0 DUP1 REVERT JUMPDEST DUP2 MLOAD PUSH2 0x8EC DUP2 PUSH2 0x847 JUMP JUMPDEST SWAP4 SWAP3 POP POP POP JUMP JUMPDEST PUSH0 PUSH1 0x20 DUP3 DUP5 SUB SLT ISZERO PUSH2 0x903 JUMPI PUSH0 DUP1 REVERT JUMPDEST DUP2 MLOAD DUP1 ISZERO ISZERO DUP2 EQ PUSH2 0x8EC JUMPI PUSH0 DUP1 REVERT INVALID LOG2 PUSH5 0x6970667358 0x22 SLT KECCAK256 0x4D 0xD3 SWAP9 PUSH21 0xDDEC37406841AF45D60723CFA510C5791C5AC550E4 0xAD 0xF8 RETURN SWAP6 NOT 0xD0 SSTORE PUSH5 0x736F6C6343 STOP ADDMOD XOR STOP CALLER "
				},
				"gasEstimates": {
					"creation": {
						"codeDepositCost": "475200",
						"executionCost": "22614",
						"totalCost": "497814"
					},
					"external": {
						"buy(address,uint256)": "infinite",
						"cancel(address,uint256)": "69714",
						"list(address,uint256,uint256)": "infinite",
						"listings(bytes32)": "8888"
					},
					"internal": {
						"_key(address,uint256)": "infinite"
					}
				},
				"methodIdentifiers": {
					"buy(address,uint256)": "cce7ec13",
					"cancel(address,uint256)": "98590ef9",
					"list(address,uint256,uint256)": "dda342bb",
					"listings(bytes32)": "c18b8db4"
				}
			},
			"storageLayout": {
				"storage": [
					{
						"astId": 135,
						"contract": "SpageroNFTMarket_flattened.sol:SpageroNFTMarket",
						"label": "_status",
						"offset": 0,
						"slot": "0",
						"type": "t_uint256"
					},
					{
						"astId": 206,
						"contract": "SpageroNFTMarket_flattened.sol:SpageroNFTMarket",
						"label": "listings",
						"offset": 0,
						"slot": "1",
						"type": "t_mapping(t_bytes32,t_struct(Listing)201_storage)"
					}
				],
				"types": {
					"t_address": {
						"encoding": "inplace",
						"label": "address",
						"numberOfBytes": "20"
					},
					"t_bytes32": {
						"encoding": "inplace",
						"label": "bytes32",
						"numberOfBytes": "32"
					},
					"t_mapping(t_bytes32,t_struct(Listing)201_storage)": {
						"encoding": "mapping",
						"key": "t_bytes32",
						"label": "mapping(bytes32 => struct SpageroNFTMarket.Listing)",
						"numberOfBytes": "32",
						"value": "t_struct(Listing)201_storage"
					},
					"t_struct(Listing)201_storage": {
						"encoding": "inplace",
						"label": "struct SpageroNFTMarket.Listing",
						"members": [
							{
								"astId": 194,
								"contract": "SpageroNFTMarket_flattened.sol:SpageroNFTMarket",
								"label": "seller",
								"offset": 0,
								"slot": "0",
								"type": "t_address"
							},
							{
								"astId": 196,
								"contract": "SpageroNFTMarket_flattened.sol:SpageroNFTMarket",
								"label": "nft",
								"offset": 0,
								"slot": "1",
								"type": "t_address"
							},
							{
								"astId": 198,
								"contract": "SpageroNFTMarket_flattened.sol:SpageroNFTMarket",
								"label": "tokenId",
								"offset": 0,
								"slot": "2",
								"type": "t_uint256"
							},
							{
								"astId": 200,
								"contract": "SpageroNFTMarket_flattened.sol:SpageroNFTMarket",
								"label": "price",
								"offset": 0,
								"slot": "3",
								"type": "t_uint256"
							}
						],
						"numberOfBytes": "128"
					},
					"t_uint256": {
						"encoding": "inplace",
						"label": "uint256",
						"numberOfBytes": "32"
					}
				}
			},
			"userdoc": {
				"kind": "user",
				"methods": {},
				"version": 1
			}
		}
	}
}