{
	"SpageroEscrow_flattened.sol": {
		"SpageroEscrow": {
			"abi": [
				{
					"anonymous": false,
					"inputs": [
						{
							"indexed": true,
							"internalType": "uint256",
							"name": "id",
							"type": "uint256"
						},
						{
							"indexed": true,
							"internalType": "address",
							"name": "depositor",
							"type": "address"
						},
						{
							"indexed": true,
							"internalType": "address",
							"name": "payee",
							"type": "address"
						},
						{
							"indexed": false,
							"internalType": "address",
							"name": "arbiter",
							"type": "address"
						},
						{
							"indexed": false,
							"internalType": "uint256",
							"name": "amount",
							"type": "uint256"
						}
					],
					"name": "Created",
					"type": "event"
				},
				{
					"anonymous": false,
					"inputs": [
						{
							"indexed": true,
							"internalType": "uint256",
							"name": "id",
							"type": "uint256"
						}
					],
					"name": "Refunded",
					"type": "event"
				},
				{
					"anonymous": false,
					"inputs": [
						{
							"indexed": true,
							"internalType": "uint256",
							"name": "id",
							"type": "uint256"
						}
					],
					"name": "Released",
					"type": "event"
				},
				{
					"inputs": [
						{
							"internalType": "address",
							"name": "payee",
							"type": "address"
						},
						{
							"internalType": "address",
							"name": "arbiter",
							"type": "address"
						}
					],
					"name": "create",
					"outputs": [
						{
							"internalType": "uint256",
							"name": "id",
							"type": "uint256"
						}
					],
					"stateMutability": "payable",
					"type": "function"
				},
				{
					"inputs": [
						{
							"internalType": "uint256",
							"name": "",
							"type": "uint256"
						}
					],
					"name": "deals",
					"outputs": [
						{
							"internalType": "address",
							"name": "depositor",
							"type": "address"
						},
						{
							"internalType": "address",
							"name": "payee",
							"type": "address"
						},
						{
							"internalType": "address",
							"name": "arbiter",
							"type": "address"
						},
						{
							"internalType": "uint256",
							"name": "amount",
							"type": "uint256"
						},
						{
							"internalType": "bool",
							"name": "active",
							"type": "bool"
						}
					],
					"stateMutability": "view",
					"type": "function"
				},
				{
					"inputs": [],
					"name": "nextId",
					"outputs": [
						{
							"internalType": "uint256",
							"name": "",
							"type": "uint256"
						}
					],
					"stateMutability": "view",
					"type": "function"
				},
				{
					"inputs": [
						{
							"internalType": "uint256",
							"name": "id",
							"type": "uint256"
						}
					],
					"name": "refund",
					"outputs": [],
					"stateMutability": "nonpayable",
					"type": "function"
				},
				{
					"inputs": [
						{
							"internalType": "uint256",
							"name": "id",
							"type": "uint256"
						}
					],
					"name": "release",
					"outputs": [],
					"stateMutability": "nonpayable",
					"type": "function"
				}
			],
			"devdoc": {
				"kind": "dev",
				"methods": {},
				"version": 1
			},
			"evm": {
				"assembly": "    /* \"SpageroEscrow_flattened.sol\":3248:4669  contract SpageroEscrow is ReentrancyGuard {... */\n  mstore(0x40, 0x80)\n  callvalue\n  dup1\n  iszero\n  tag_1\n  jumpi\n  0x00\n  dup1\n  revert\ntag_1:\n  pop\n    /* \"SpageroEscrow_flattened.sol\":1780:1781  1 */\n  0x01\n    /* \"SpageroEscrow_flattened.sol\":1885:1892  _status */\n  0x00\n    /* \"SpageroEscrow_flattened.sol\":1885:1907  _status = _NOT_ENTERED */\n  sstore\n    /* \"SpageroEscrow_flattened.sol\":3248:4669  contract SpageroEscrow is ReentrancyGuard {... */\n  dataSize(sub_0)\n  dup1\n  dataOffset(sub_0)\n  0x00\n  codecopy\n  0x00\n  return\nstop\n\nsub_0: assembly {\n        /* \"SpageroEscrow_flattened.sol\":3248:4669  contract SpageroEscrow is ReentrancyGuard {... */\n      mstore(0x40, 0x80)\n      jumpi(tag_1, lt(calldatasize, 0x04))\n      shr(0xe0, calldataload(0x00))\n      dup1\n      0x03988f84\n      eq\n      tag_2\n      jumpi\n      dup1\n      0x278ecde1\n      eq\n      tag_3\n      jumpi\n      dup1\n      0x37bdc99b\n      eq\n      tag_4\n      jumpi\n      dup1\n      0x3e68680a\n      eq\n      tag_5\n      jumpi\n      dup1\n      0x61b8ce8c\n      eq\n      tag_6\n      jumpi\n    tag_1:\n      0x00\n      dup1\n      revert\n        /* \"SpageroEscrow_flattened.sol\":3423:3460  mapping(uint256 => Deal) public deals */\n    tag_2:\n      callvalue\n      dup1\n      iszero\n      tag_7\n      jumpi\n      0x00\n      dup1\n      revert\n    tag_7:\n      pop\n      tag_8\n      tag_9\n      calldatasize\n      0x04\n      tag_10\n      jump\t// in\n    tag_9:\n      0x02\n      0x20\n      dup2\n      swap1\n      mstore\n      0x00\n      swap2\n      dup3\n      mstore\n      0x40\n      swap1\n      swap2\n      keccak256\n      dup1\n      sload\n      0x01\n      dup3\n      add\n      sload\n      swap3\n      dup3\n      add\n      sload\n      0x03\n      dup4\n      add\n      sload\n      0x04\n      swap1\n      swap4\n      add\n      sload\n      sub(shl(0xa0, 0x01), 0x01)\n      swap3\n      dup4\n      and\n      swap5\n      dup4\n      and\n      swap4\n      swap2\n      swap1\n      swap3\n      and\n      swap2\n      0xff\n      and\n      dup6\n      jump\n    tag_8:\n      0x40\n      dup1\n      mload\n      sub(shl(0xa0, 0x01), 0x01)\n        /* \"#utility.yul\":508:523   */\n      swap7\n      dup8\n      and\n        /* \"#utility.yul\":490:524   */\n      dup2\n      mstore\n        /* \"#utility.yul\":560:575   */\n      swap5\n      dup7\n      and\n        /* \"#utility.yul\":555:557   */\n      0x20\n        /* \"#utility.yul\":540:558   */\n      dup7\n      add\n        /* \"#utility.yul\":533:576   */\n      mstore\n        /* \"#utility.yul\":612:627   */\n      swap3\n      swap1\n      swap5\n      and\n        /* \"#utility.yul\":592:610   */\n      swap2\n      dup4\n      add\n        /* \"#utility.yul\":585:628   */\n      swap2\n      swap1\n      swap2\n      mstore\n        /* \"#utility.yul\":659:661   */\n      0x60\n        /* \"#utility.yul\":644:662   */\n      dup3\n      add\n        /* \"#utility.yul\":637:671   */\n      mstore\n        /* \"#utility.yul\":715:729   */\n      swap1\n      iszero\n        /* \"#utility.yul\":708:730   */\n      iszero\n        /* \"#utility.yul\":702:705   */\n      0x80\n        /* \"#utility.yul\":687:706   */\n      dup3\n      add\n        /* \"#utility.yul\":680:731   */\n      mstore\n        /* \"#utility.yul\":439:442   */\n      0xa0\n        /* \"#utility.yul\":424:443   */\n      add\n        /* \"SpageroEscrow_flattened.sol\":3423:3460  mapping(uint256 => Deal) public deals */\n    tag_12:\n      mload(0x40)\n      dup1\n      swap2\n      sub\n      swap1\n      return\n        /* \"SpageroEscrow_flattened.sol\":4325:4667  function refund(uint256 id) external nonReentrant {... */\n    tag_3:\n      callvalue\n      dup1\n      iszero\n      tag_14\n      jumpi\n      0x00\n      dup1\n      revert\n    tag_14:\n      pop\n      tag_15\n      tag_16\n      calldatasize\n      0x04\n      tag_10\n      jump\t// in\n    tag_16:\n      tag_17\n      jump\t// in\n    tag_15:\n      stop\n        /* \"SpageroEscrow_flattened.sol\":3972:4319  function release(uint256 id) external nonReentrant {... */\n    tag_4:\n      callvalue\n      dup1\n      iszero\n      tag_18\n      jumpi\n      0x00\n      dup1\n      revert\n    tag_18:\n      pop\n      tag_15\n      tag_20\n      calldatasize\n      0x04\n      tag_10\n      jump\t// in\n    tag_20:\n      tag_21\n      jump\t// in\n        /* \"SpageroEscrow_flattened.sol\":3670:3966  function create(address payee, address arbiter) external payable returns (uint256 id) {... */\n    tag_5:\n      tag_22\n      tag_23\n      calldatasize\n      0x04\n      tag_24\n      jump\t// in\n    tag_23:\n      tag_25\n      jump\t// in\n    tag_22:\n      mload(0x40)\n        /* \"#utility.yul\":1331:1356   */\n      swap1\n      dup2\n      mstore\n        /* \"#utility.yul\":1319:1321   */\n      0x20\n        /* \"#utility.yul\":1304:1322   */\n      add\n        /* \"SpageroEscrow_flattened.sol\":3670:3966  function create(address payee, address arbiter) external payable returns (uint256 id) {... */\n      tag_12\n        /* \"#utility.yul\":1185:1362   */\n      jump\n        /* \"SpageroEscrow_flattened.sol\":3396:3417  uint256 public nextId */\n    tag_6:\n      callvalue\n      dup1\n      iszero\n      tag_28\n      jumpi\n      0x00\n      dup1\n      revert\n    tag_28:\n      pop\n      tag_22\n      sload(0x01)\n      dup2\n      jump\n        /* \"SpageroEscrow_flattened.sol\":4325:4667  function refund(uint256 id) external nonReentrant {... */\n    tag_17:\n        /* \"SpageroEscrow_flattened.sol\":2325:2346  _nonReentrantBefore() */\n      tag_33\n        /* \"SpageroEscrow_flattened.sol\":2325:2344  _nonReentrantBefore */\n      tag_34\n        /* \"SpageroEscrow_flattened.sol\":2325:2346  _nonReentrantBefore() */\n      jump\t// in\n    tag_33:\n        /* \"SpageroEscrow_flattened.sol\":4385:4399  Deal storage d */\n      0x00\n        /* \"SpageroEscrow_flattened.sol\":4402:4411  deals[id] */\n      dup2\n      dup2\n      mstore\n        /* \"SpageroEscrow_flattened.sol\":4402:4407  deals */\n      0x02\n        /* \"SpageroEscrow_flattened.sol\":4402:4411  deals[id] */\n      0x20\n      mstore\n      0x40\n      swap1\n      keccak256\n        /* \"SpageroEscrow_flattened.sol\":4429:4437  d.active */\n      0x04\n      dup2\n      add\n      sload\n      0xff\n      and\n        /* \"SpageroEscrow_flattened.sol\":4421:4450  require(d.active, \"inactive\") */\n      tag_36\n      jumpi\n      mload(0x40)\n      shl(0xe5, 0x461bcd)\n      dup2\n      mstore\n        /* \"#utility.yul\":1569:1571   */\n      0x20\n        /* \"SpageroEscrow_flattened.sol\":4421:4450  require(d.active, \"inactive\") */\n      0x04\n      dup3\n      add\n        /* \"#utility.yul\":1551:1572   */\n      mstore\n        /* \"#utility.yul\":1608:1609   */\n      0x08\n        /* \"#utility.yul\":1588:1606   */\n      0x24\n      dup3\n      add\n        /* \"#utility.yul\":1581:1610   */\n      mstore\n      shl(0xc0, 0x696e616374697665)\n        /* \"#utility.yul\":1626:1644   */\n      0x44\n      dup3\n      add\n        /* \"#utility.yul\":1619:1657   */\n      mstore\n        /* \"#utility.yul\":1674:1692   */\n      0x64\n      add\n        /* \"SpageroEscrow_flattened.sol\":4421:4450  require(d.active, \"inactive\") */\n    tag_37:\n      mload(0x40)\n      dup1\n      swap2\n      sub\n      swap1\n      revert\n    tag_36:\n        /* \"SpageroEscrow_flattened.sol\":4482:4491  d.arbiter */\n      0x02\n      dup2\n      add\n      sload\n      sub(shl(0xa0, 0x01), 0x01)\n      and\n        /* \"SpageroEscrow_flattened.sol\":4468:4478  msg.sender */\n      caller\n        /* \"SpageroEscrow_flattened.sol\":4468:4491  msg.sender == d.arbiter */\n      eq\n        /* \"SpageroEscrow_flattened.sol\":4460:4508  require(msg.sender == d.arbiter, \"only arbiter\") */\n      tag_39\n      jumpi\n      mload(0x40)\n      shl(0xe5, 0x461bcd)\n      dup2\n      mstore\n        /* \"#utility.yul\":1905:1907   */\n      0x20\n        /* \"SpageroEscrow_flattened.sol\":4460:4508  require(msg.sender == d.arbiter, \"only arbiter\") */\n      0x04\n      dup3\n      add\n        /* \"#utility.yul\":1887:1908   */\n      mstore\n        /* \"#utility.yul\":1944:1946   */\n      0x0c\n        /* \"#utility.yul\":1924:1942   */\n      0x24\n      dup3\n      add\n        /* \"#utility.yul\":1917:1947   */\n      mstore\n      shl(0xa1, 0x37b7363c9030b93134ba32b9)\n        /* \"#utility.yul\":1963:1981   */\n      0x44\n      dup3\n      add\n        /* \"#utility.yul\":1956:1998   */\n      mstore\n        /* \"#utility.yul\":2015:2033   */\n      0x64\n      add\n        /* \"SpageroEscrow_flattened.sol\":4460:4508  require(msg.sender == d.arbiter, \"only arbiter\") */\n      tag_37\n        /* \"#utility.yul\":1703:2039   */\n      jump\n        /* \"SpageroEscrow_flattened.sol\":4460:4508  require(msg.sender == d.arbiter, \"only arbiter\") */\n    tag_39:\n        /* \"SpageroEscrow_flattened.sol\":4518:4526  d.active */\n      0x04\n      dup2\n      add\n        /* \"SpageroEscrow_flattened.sol\":4518:4534  d.active = false */\n      dup1\n      sload\n      not(0xff)\n      and\n      swap1\n      sstore\n        /* \"SpageroEscrow_flattened.sol\":4558:4569  d.depositor */\n      dup1\n      sload\n        /* \"SpageroEscrow_flattened.sol\":4582:4590  d.amount */\n      0x03\n      dup3\n      add\n      sload\n        /* \"SpageroEscrow_flattened.sol\":4558:4595  d.depositor.call{value: d.amount}(\"\") */\n      mload(0x40)\n      0x00\n      swap3\n      sub(shl(0xa0, 0x01), 0x01)\n        /* \"SpageroEscrow_flattened.sol\":4558:4569  d.depositor */\n      and\n      swap2\n        /* \"SpageroEscrow_flattened.sol\":4582:4590  d.amount */\n      swap1\n      dup4\n        /* \"SpageroEscrow_flattened.sol\":4558:4595  d.depositor.call{value: d.amount}(\"\") */\n      dup2\n      dup2\n      dup2\n        /* \"SpageroEscrow_flattened.sol\":4582:4590  d.amount */\n      dup6\n        /* \"SpageroEscrow_flattened.sol\":4558:4569  d.depositor */\n      dup8\n        /* \"SpageroEscrow_flattened.sol\":4558:4595  d.depositor.call{value: d.amount}(\"\") */\n      gas\n      call\n      swap3\n      pop\n      pop\n      pop\n      returndatasize\n      dup1\n      0x00\n      dup2\n      eq\n      tag_46\n      jumpi\n      mload(0x40)\n      swap2\n      pop\n      and(add(returndatasize, 0x3f), not(0x1f))\n      dup3\n      add\n      0x40\n      mstore\n      returndatasize\n      dup3\n      mstore\n      returndatasize\n      0x00\n      0x20\n      dup5\n      add\n      returndatacopy\n      jump(tag_45)\n    tag_46:\n      0x60\n      swap2\n      pop\n    tag_45:\n      pop\n        /* \"SpageroEscrow_flattened.sol\":4544:4595  (bool ok, ) = d.depositor.call{value: d.amount}(\"\") */\n      pop\n      swap1\n      pop\n        /* \"SpageroEscrow_flattened.sol\":4613:4615  ok */\n      dup1\n        /* \"SpageroEscrow_flattened.sol\":4605:4633  require(ok, \"refund failed\") */\n      tag_47\n      jumpi\n      mload(0x40)\n      shl(0xe5, 0x461bcd)\n      dup2\n      mstore\n        /* \"#utility.yul\":2456:2458   */\n      0x20\n        /* \"SpageroEscrow_flattened.sol\":4605:4633  require(ok, \"refund failed\") */\n      0x04\n      dup3\n      add\n        /* \"#utility.yul\":2438:2459   */\n      mstore\n        /* \"#utility.yul\":2495:2497   */\n      0x0d\n        /* \"#utility.yul\":2475:2493   */\n      0x24\n      dup3\n      add\n        /* \"#utility.yul\":2468:2498   */\n      mstore\n      shl(0x9a, 0x1c99599d5b990819985a5b1959)\n        /* \"#utility.yul\":2514:2532   */\n      0x44\n      dup3\n      add\n        /* \"#utility.yul\":2507:2550   */\n      mstore\n        /* \"#utility.yul\":2567:2585   */\n      0x64\n      add\n        /* \"SpageroEscrow_flattened.sol\":4605:4633  require(ok, \"refund failed\") */\n      tag_37\n        /* \"#utility.yul\":2254:2591   */\n      jump\n        /* \"SpageroEscrow_flattened.sol\":4605:4633  require(ok, \"refund failed\") */\n    tag_47:\n        /* \"SpageroEscrow_flattened.sol\":4648:4660  Refunded(id) */\n      mload(0x40)\n        /* \"SpageroEscrow_flattened.sol\":4657:4659  id */\n      dup4\n      swap1\n        /* \"SpageroEscrow_flattened.sol\":4648:4660  Refunded(id) */\n      0x3d2a04f53164bedf9a8a46353305d6b2d2261410406df3b41f99ce6489dc003c\n      swap1\n      0x00\n      swap1\n      log2\n        /* \"SpageroEscrow_flattened.sol\":4375:4667  {... */\n      pop\n      pop\n        /* \"SpageroEscrow_flattened.sol\":2367:2387  _nonReentrantAfter() */\n      tag_50\n        /* \"SpageroEscrow_flattened.sol\":1780:1781  1 */\n      0x01\n        /* \"SpageroEscrow_flattened.sol\":2873:2880  _status */\n      0x00\n        /* \"SpageroEscrow_flattened.sol\":2873:2895  _status = _NOT_ENTERED */\n      sstore\n        /* \"SpageroEscrow_flattened.sol\":2693:2902  function _nonReentrantAfter() private {... */\n      jump\n        /* \"SpageroEscrow_flattened.sol\":2367:2387  _nonReentrantAfter() */\n    tag_50:\n        /* \"SpageroEscrow_flattened.sol\":4325:4667  function refund(uint256 id) external nonReentrant {... */\n      pop\n      jump\t// out\n        /* \"SpageroEscrow_flattened.sol\":3972:4319  function release(uint256 id) external nonReentrant {... */\n    tag_21:\n        /* \"SpageroEscrow_flattened.sol\":2325:2346  _nonReentrantBefore() */\n      tag_53\n        /* \"SpageroEscrow_flattened.sol\":2325:2344  _nonReentrantBefore */\n      tag_34\n        /* \"SpageroEscrow_flattened.sol\":2325:2346  _nonReentrantBefore() */\n      jump\t// in\n    tag_53:\n        /* \"SpageroEscrow_flattened.sol\":4033:4047  Deal storage d */\n      0x00\n        /* \"SpageroEscrow_flattened.sol\":4050:4059  deals[id] */\n      dup2\n      dup2\n      mstore\n        /* \"SpageroEscrow_flattened.sol\":4050:4055  deals */\n      0x02\n        /* \"SpageroEscrow_flattened.sol\":4050:4059  deals[id] */\n      0x20\n      mstore\n      0x40\n      swap1\n      keccak256\n        /* \"SpageroEscrow_flattened.sol\":4077:4085  d.active */\n      0x04\n      dup2\n      add\n      sload\n      0xff\n      and\n        /* \"SpageroEscrow_flattened.sol\":4069:4098  require(d.active, \"inactive\") */\n      tag_55\n      jumpi\n      mload(0x40)\n      shl(0xe5, 0x461bcd)\n      dup2\n      mstore\n        /* \"#utility.yul\":1569:1571   */\n      0x20\n        /* \"SpageroEscrow_flattened.sol\":4069:4098  require(d.active, \"inactive\") */\n      0x04\n      dup3\n      add\n        /* \"#utility.yul\":1551:1572   */\n      mstore\n        /* \"#utility.yul\":1608:1609   */\n      0x08\n        /* \"#utility.yul\":1588:1606   */\n      0x24\n      dup3\n      add\n        /* \"#utility.yul\":1581:1610   */\n      mstore\n      shl(0xc0, 0x696e616374697665)\n        /* \"#utility.yul\":1626:1644   */\n      0x44\n      dup3\n      add\n        /* \"#utility.yul\":1619:1657   */\n      mstore\n        /* \"#utility.yul\":1674:1692   */\n      0x64\n      add\n        /* \"SpageroEscrow_flattened.sol\":4069:4098  require(d.active, \"inactive\") */\n      tag_37\n        /* \"#utility.yul\":1367:1698   */\n      jump\n        /* \"SpageroEscrow_flattened.sol\":4069:4098  require(d.active, \"inactive\") */\n    tag_55:\n        /* \"SpageroEscrow_flattened.sol\":4130:4139  d.arbiter */\n      0x02\n      dup2\n      add\n      sload\n      sub(shl(0xa0, 0x01), 0x01)\n      and\n        /* \"SpageroEscrow_flattened.sol\":4116:4126  msg.sender */\n      caller\n        /* \"SpageroEscrow_flattened.sol\":4116:4139  msg.sender == d.arbiter */\n      eq\n        /* \"SpageroEscrow_flattened.sol\":4108:4156  require(msg.sender == d.arbiter, \"only arbiter\") */\n      tag_57\n      jumpi\n      mload(0x40)\n      shl(0xe5, 0x461bcd)\n      dup2\n      mstore\n        /* \"#utility.yul\":1905:1907   */\n      0x20\n        /* \"SpageroEscrow_flattened.sol\":4108:4156  require(msg.sender == d.arbiter, \"only arbiter\") */\n      0x04\n      dup3\n      add\n        /* \"#utility.yul\":1887:1908   */\n      mstore\n        /* \"#utility.yul\":1944:1946   */\n      0x0c\n        /* \"#utility.yul\":1924:1942   */\n      0x24\n      dup3\n      add\n        /* \"#utility.yul\":1917:1947   */\n      mstore\n      shl(0xa1, 0x37b7363c9030b93134ba32b9)\n        /* \"#utility.yul\":1963:1981   */\n      0x44\n      dup3\n      add\n        /* \"#utility.yul\":1956:1998   */\n      mstore\n        /* \"#utility.yul\":2015:2033   */\n      0x64\n      add\n        /* \"SpageroEscrow_flattened.sol\":4108:4156  require(msg.sender == d.arbiter, \"only arbiter\") */\n      tag_37\n        /* \"#utility.yul\":1703:2039   */\n      jump\n        /* \"SpageroEscrow_flattened.sol\":4108:4156  require(msg.sender == d.arbiter, \"only arbiter\") */\n    tag_57:\n        /* \"SpageroEscrow_flattened.sol\":4166:4174  d.active */\n      0x04\n      dup2\n      add\n        /* \"SpageroEscrow_flattened.sol\":4166:4182  d.active = false */\n      dup1\n      sload\n      not(0xff)\n      and\n      swap1\n      sstore\n      0x01\n        /* \"SpageroEscrow_flattened.sol\":4206:4213  d.payee */\n      dup2\n      add\n      sload\n        /* \"SpageroEscrow_flattened.sol\":4226:4234  d.amount */\n      0x03\n      dup3\n      add\n      sload\n        /* \"SpageroEscrow_flattened.sol\":4206:4239  d.payee.call{value: d.amount}(\"\") */\n      mload(0x40)\n      0x00\n      swap3\n      sub(shl(0xa0, 0x01), 0x01)\n        /* \"SpageroEscrow_flattened.sol\":4206:4213  d.payee */\n      and\n      swap2\n        /* \"SpageroEscrow_flattened.sol\":4226:4234  d.amount */\n      swap1\n      dup4\n        /* \"SpageroEscrow_flattened.sol\":4206:4239  d.payee.call{value: d.amount}(\"\") */\n      dup2\n      dup2\n      dup2\n        /* \"SpageroEscrow_flattened.sol\":4226:4234  d.amount */\n      dup6\n        /* \"SpageroEscrow_flattened.sol\":4206:4213  d.payee */\n      dup8\n        /* \"SpageroEscrow_flattened.sol\":4206:4239  d.payee.call{value: d.amount}(\"\") */\n      gas\n      call\n      swap3\n      pop\n      pop\n      pop\n      returndatasize\n      dup1\n      0x00\n      dup2\n      eq\n      tag_62\n      jumpi\n      mload(0x40)\n      swap2\n      pop\n      and(add(returndatasize, 0x3f), not(0x1f))\n      dup3\n      add\n      0x40\n      mstore\n      returndatasize\n      dup3\n      mstore\n      returndatasize\n      0x00\n      0x20\n      dup5\n      add\n      returndatacopy\n      jump(tag_61)\n    tag_62:\n      0x60\n      swap2\n      pop\n    tag_61:\n      pop\n        /* \"SpageroEscrow_flattened.sol\":4192:4239  (bool ok, ) = d.payee.call{value: d.amount}(\"\") */\n      pop\n      swap1\n      pop\n        /* \"SpageroEscrow_flattened.sol\":4257:4259  ok */\n      dup1\n        /* \"SpageroEscrow_flattened.sol\":4249:4285  require(ok, \"payee transfer failed\") */\n      tag_63\n      jumpi\n      mload(0x40)\n      shl(0xe5, 0x461bcd)\n      dup2\n      mstore\n        /* \"#utility.yul\":2798:2800   */\n      0x20\n        /* \"SpageroEscrow_flattened.sol\":4249:4285  require(ok, \"payee transfer failed\") */\n      0x04\n      dup3\n      add\n        /* \"#utility.yul\":2780:2801   */\n      mstore\n        /* \"#utility.yul\":2837:2839   */\n      0x15\n        /* \"#utility.yul\":2817:2835   */\n      0x24\n      dup3\n      add\n        /* \"#utility.yul\":2810:2840   */\n      mstore\n      shl(0x5a, 0x1c185e5959481d1c985b9cd9995c8819985a5b1959)\n        /* \"#utility.yul\":2856:2874   */\n      0x44\n      dup3\n      add\n        /* \"#utility.yul\":2849:2900   */\n      mstore\n        /* \"#utility.yul\":2917:2935   */\n      0x64\n      add\n        /* \"SpageroEscrow_flattened.sol\":4249:4285  require(ok, \"payee transfer failed\") */\n      tag_37\n        /* \"#utility.yul\":2596:2941   */\n      jump\n        /* \"SpageroEscrow_flattened.sol\":4249:4285  require(ok, \"payee transfer failed\") */\n    tag_63:\n        /* \"SpageroEscrow_flattened.sol\":4300:4312  Released(id) */\n      mload(0x40)\n        /* \"SpageroEscrow_flattened.sol\":4309:4311  id */\n      dup4\n      swap1\n        /* \"SpageroEscrow_flattened.sol\":4300:4312  Released(id) */\n      0xfb81f9b30d73d830c3544b34d827c08142579ee75710b490bab0b3995468c565\n      swap1\n      0x00\n      swap1\n      log2\n        /* \"SpageroEscrow_flattened.sol\":4023:4319  {... */\n      pop\n      pop\n        /* \"SpageroEscrow_flattened.sol\":2367:2387  _nonReentrantAfter() */\n      tag_50\n        /* \"SpageroEscrow_flattened.sol\":1780:1781  1 */\n      0x01\n        /* \"SpageroEscrow_flattened.sol\":2873:2880  _status */\n      0x00\n        /* \"SpageroEscrow_flattened.sol\":2873:2895  _status = _NOT_ENTERED */\n      sstore\n        /* \"SpageroEscrow_flattened.sol\":2693:2902  function _nonReentrantAfter() private {... */\n      jump\n        /* \"SpageroEscrow_flattened.sol\":3670:3966  function create(address payee, address arbiter) external payable returns (uint256 id) {... */\n    tag_25:\n        /* \"SpageroEscrow_flattened.sol\":3744:3754  uint256 id */\n      0x00\n        /* \"SpageroEscrow_flattened.sol\":3786:3787  0 */\n      dup1\n        /* \"SpageroEscrow_flattened.sol\":3774:3783  msg.value */\n      callvalue\n        /* \"SpageroEscrow_flattened.sol\":3774:3787  msg.value > 0 */\n      gt\n        /* \"SpageroEscrow_flattened.sol\":3766:3800  require(msg.value > 0, \"no funds\") */\n      tag_68\n      jumpi\n      mload(0x40)\n      shl(0xe5, 0x461bcd)\n      dup2\n      mstore\n        /* \"#utility.yul\":3148:3150   */\n      0x20\n        /* \"SpageroEscrow_flattened.sol\":3766:3800  require(msg.value > 0, \"no funds\") */\n      0x04\n      dup3\n      add\n        /* \"#utility.yul\":3130:3151   */\n      mstore\n        /* \"#utility.yul\":3187:3188   */\n      0x08\n        /* \"#utility.yul\":3167:3185   */\n      0x24\n      dup3\n      add\n        /* \"#utility.yul\":3160:3189   */\n      mstore\n      shl(0xc0, 0x6e6f2066756e6473)\n        /* \"#utility.yul\":3205:3223   */\n      0x44\n      dup3\n      add\n        /* \"#utility.yul\":3198:3236   */\n      mstore\n        /* \"#utility.yul\":3253:3271   */\n      0x64\n      add\n        /* \"SpageroEscrow_flattened.sol\":3766:3800  require(msg.value > 0, \"no funds\") */\n      tag_37\n        /* \"#utility.yul\":2946:3277   */\n      jump\n        /* \"SpageroEscrow_flattened.sol\":3766:3800  require(msg.value > 0, \"no funds\") */\n    tag_68:\n        /* \"SpageroEscrow_flattened.sol\":3817:3823  nextId */\n      0x01\n      0x00\n        /* \"SpageroEscrow_flattened.sol\":3815:3823  ++nextId */\n      dup2\n      sload\n      tag_71\n      swap1\n      tag_72\n      jump\t// in\n    tag_71:\n      swap2\n      dup3\n      swap1\n      sstore\n      pop\n        /* \"SpageroEscrow_flattened.sol\":3845:3894  Deal(msg.sender, payee, arbiter, msg.value, true) */\n      0x40\n      dup1\n      mload\n      0xa0\n      dup2\n      add\n      dup3\n      mstore\n        /* \"SpageroEscrow_flattened.sol\":3850:3860  msg.sender */\n      caller\n        /* \"SpageroEscrow_flattened.sol\":3845:3894  Deal(msg.sender, payee, arbiter, msg.value, true) */\n      dup1\n      dup3\n      mstore\n      sub(shl(0xa0, 0x01), 0x01)\n      dup8\n      dup2\n      and\n      0x20\n      dup1\n      dup6\n      add\n      dup3\n      dup2\n      mstore\n      dup10\n      dup5\n      and\n      dup7\n      dup9\n      add\n      dup2\n      dup2\n      mstore\n        /* \"SpageroEscrow_flattened.sol\":3878:3887  msg.value */\n      callvalue\n        /* \"SpageroEscrow_flattened.sol\":3845:3894  Deal(msg.sender, payee, arbiter, msg.value, true) */\n      0x60\n      dup10\n      add\n      dup2\n      dup2\n      mstore\n        /* \"SpageroEscrow_flattened.sol\":3889:3893  true */\n      0x01\n        /* \"SpageroEscrow_flattened.sol\":3845:3894  Deal(msg.sender, payee, arbiter, msg.value, true) */\n      0x80\n      dup12\n      add\n      dup2\n      dup2\n      mstore\n      0x00\n        /* \"SpageroEscrow_flattened.sol\":3833:3842  deals[id] */\n      dup15\n      dup2\n      mstore\n        /* \"SpageroEscrow_flattened.sol\":3833:3838  deals */\n      0x02\n        /* \"SpageroEscrow_flattened.sol\":3833:3842  deals[id] */\n      dup1\n      dup11\n      mstore\n      swap1\n      dup15\n      swap1\n      keccak256\n        /* \"SpageroEscrow_flattened.sol\":3833:3894  deals[id] = Deal(msg.sender, payee, arbiter, msg.value, true) */\n      swap13\n      mload\n      dup14\n      sload\n      swap1\n      dup13\n      and\n      not(sub(shl(0xa0, 0x01), 0x01))\n      swap2\n      dup3\n      and\n      or\n      dup15\n      sstore\n      swap8\n      mload\n      swap3\n      dup14\n      add\n      dup1\n      sload\n      swap4\n      dup13\n      and\n      swap4\n      dup10\n      and\n      swap4\n      swap1\n      swap4\n      or\n      swap1\n      swap3\n      sstore\n      swap4\n      mload\n      swap1\n      dup12\n      add\n      dup1\n      sload\n      swap2\n      swap1\n      swap10\n      and\n      swap6\n      and\n      swap5\n      swap1\n      swap5\n      or\n      swap1\n      swap7\n      sstore\n      swap2\n      mload\n      0x03\n      dup9\n      add\n      sstore\n      swap1\n      mload\n      0x04\n      swap1\n      swap7\n      add\n      dup1\n      sload\n      swap7\n      iszero\n      iszero\n      not(0xff)\n      swap1\n      swap8\n      and\n      swap7\n      swap1\n      swap7\n      or\n      swap1\n      swap6\n      sstore\n        /* \"SpageroEscrow_flattened.sol\":3909:3959  Created(id, msg.sender, payee, arbiter, msg.value) */\n      dup6\n      mload\n        /* \"#utility.yul\":3693:3744   */\n      swap5\n      dup6\n      mstore\n        /* \"#utility.yul\":3760:3778   */\n      dup5\n      add\n        /* \"#utility.yul\":3753:3787   */\n      swap2\n      swap1\n      swap2\n      mstore\n        /* \"SpageroEscrow_flattened.sol\":3815:3823  ++nextId */\n      swap4\n      swap5\n      pop\n        /* \"SpageroEscrow_flattened.sol\":3850:3860  msg.sender */\n      swap2\n        /* \"SpageroEscrow_flattened.sol\":3815:3823  ++nextId */\n      dup5\n      swap2\n        /* \"SpageroEscrow_flattened.sol\":3909:3959  Created(id, msg.sender, payee, arbiter, msg.value) */\n      0x172eb7bc12c6e8ebf18fe767ff6a36bfb6fe25f7f69d1cae8d54ef3701f287c4\n      swap2\n        /* \"#utility.yul\":3666:3684   */\n      add\n        /* \"SpageroEscrow_flattened.sol\":3909:3959  Created(id, msg.sender, payee, arbiter, msg.value) */\n      mload(0x40)\n      dup1\n      swap2\n      sub\n      swap1\n      log4\n        /* \"SpageroEscrow_flattened.sol\":3670:3966  function create(address payee, address arbiter) external payable returns (uint256 id) {... */\n      swap3\n      swap2\n      pop\n      pop\n      jump\t// out\n        /* \"SpageroEscrow_flattened.sol\":2400:2687  function _nonReentrantBefore() private {... */\n    tag_34:\n        /* \"SpageroEscrow_flattened.sol\":1823:1824  2 */\n      0x02\n        /* \"SpageroEscrow_flattened.sol\":2532:2539  _status */\n      sload(0x00)\n        /* \"SpageroEscrow_flattened.sol\":2532:2551  _status != _ENTERED */\n      sub\n        /* \"SpageroEscrow_flattened.sol\":2524:2587  require(_status != _ENTERED, \"ReentrancyGuard: reentrant call\") */\n      tag_76\n      jumpi\n      mload(0x40)\n      shl(0xe5, 0x461bcd)\n      dup2\n      mstore\n        /* \"#utility.yul\":4000:4002   */\n      0x20\n        /* \"SpageroEscrow_flattened.sol\":2524:2587  require(_status != _ENTERED, \"ReentrancyGuard: reentrant call\") */\n      0x04\n      dup3\n      add\n        /* \"#utility.yul\":3982:4003   */\n      mstore\n        /* \"#utility.yul\":4039:4041   */\n      0x1f\n        /* \"#utility.yul\":4019:4037   */\n      0x24\n      dup3\n      add\n        /* \"#utility.yul\":4012:4042   */\n      mstore\n        /* \"#utility.yul\":4078:4111   */\n      0x5265656e7472616e637947756172643a207265656e7472616e742063616c6c00\n        /* \"#utility.yul\":4058:4076   */\n      0x44\n      dup3\n      add\n        /* \"#utility.yul\":4051:4112   */\n      mstore\n        /* \"#utility.yul\":4129:4147   */\n      0x64\n      add\n        /* \"SpageroEscrow_flattened.sol\":2524:2587  require(_status != _ENTERED, \"ReentrancyGuard: reentrant call\") */\n      tag_37\n        /* \"#utility.yul\":3798:4153   */\n      jump\n        /* \"SpageroEscrow_flattened.sol\":2524:2587  require(_status != _ENTERED, \"ReentrancyGuard: reentrant call\") */\n    tag_76:\n        /* \"SpageroEscrow_flattened.sol\":1823:1824  2 */\n      0x02\n        /* \"SpageroEscrow_flattened.sol\":2662:2669  _status */\n      0x00\n        /* \"SpageroEscrow_flattened.sol\":2662:2680  _status = _ENTERED */\n      sstore\n        /* \"SpageroEscrow_flattened.sol\":2400:2687  function _nonReentrantBefore() private {... */\n      jump\t// out\n        /* \"#utility.yul\":14:194   */\n    tag_10:\n        /* \"#utility.yul\":73:79   */\n      0x00\n        /* \"#utility.yul\":126:128   */\n      0x20\n        /* \"#utility.yul\":114:123   */\n      dup3\n        /* \"#utility.yul\":105:112   */\n      dup5\n        /* \"#utility.yul\":101:124   */\n      sub\n        /* \"#utility.yul\":97:129   */\n      slt\n        /* \"#utility.yul\":94:146   */\n      iszero\n      tag_83\n      jumpi\n        /* \"#utility.yul\":142:143   */\n      0x00\n        /* \"#utility.yul\":139:140   */\n      dup1\n        /* \"#utility.yul\":132:144   */\n      revert\n        /* \"#utility.yul\":94:146   */\n    tag_83:\n      pop\n        /* \"#utility.yul\":165:188   */\n      calldataload\n      swap2\n        /* \"#utility.yul\":14:194   */\n      swap1\n      pop\n      jump\t// out\n        /* \"#utility.yul\":742:915   */\n    tag_80:\n        /* \"#utility.yul\":810:830   */\n      dup1\n      calldataload\n      sub(shl(0xa0, 0x01), 0x01)\n        /* \"#utility.yul\":859:890   */\n      dup2\n      and\n        /* \"#utility.yul\":849:891   */\n      dup2\n      eq\n        /* \"#utility.yul\":839:909   */\n      tag_86\n      jumpi\n        /* \"#utility.yul\":905:906   */\n      0x00\n        /* \"#utility.yul\":902:903   */\n      dup1\n        /* \"#utility.yul\":895:907   */\n      revert\n        /* \"#utility.yul\":839:909   */\n    tag_86:\n        /* \"#utility.yul\":742:915   */\n      swap2\n      swap1\n      pop\n      jump\t// out\n        /* \"#utility.yul\":920:1180   */\n    tag_24:\n        /* \"#utility.yul\":988:994   */\n      0x00\n        /* \"#utility.yul\":996:1002   */\n      dup1\n        /* \"#utility.yul\":1049:1051   */\n      0x40\n        /* \"#utility.yul\":1037:1046   */\n      dup4\n        /* \"#utility.yul\":1028:1035   */\n      dup6\n        /* \"#utility.yul\":1024:1047   */\n      sub\n        /* \"#utility.yul\":1020:1052   */\n      slt\n        /* \"#utility.yul\":1017:1069   */\n      iszero\n      tag_88\n      jumpi\n        /* \"#utility.yul\":1065:1066   */\n      0x00\n        /* \"#utility.yul\":1062:1063   */\n      dup1\n        /* \"#utility.yul\":1055:1067   */\n      revert\n        /* \"#utility.yul\":1017:1069   */\n    tag_88:\n        /* \"#utility.yul\":1088:1117   */\n      tag_89\n        /* \"#utility.yul\":1107:1116   */\n      dup4\n        /* \"#utility.yul\":1088:1117   */\n      tag_80\n      jump\t// in\n    tag_89:\n        /* \"#utility.yul\":1078:1117   */\n      swap2\n      pop\n        /* \"#utility.yul\":1136:1174   */\n      tag_90\n        /* \"#utility.yul\":1170:1172   */\n      0x20\n        /* \"#utility.yul\":1159:1168   */\n      dup5\n        /* \"#utility.yul\":1155:1173   */\n      add\n        /* \"#utility.yul\":1136:1174   */\n      tag_80\n      jump\t// in\n    tag_90:\n        /* \"#utility.yul\":1126:1174   */\n      swap1\n      pop\n        /* \"#utility.yul\":920:1180   */\n      swap3\n      pop\n      swap3\n      swap1\n      pop\n      jump\t// out\n        /* \"#utility.yul\":3282:3514   */\n    tag_72:\n        /* \"#utility.yul\":3321:3324   */\n      0x00\n        /* \"#utility.yul\":3342:3359   */\n      0x01\n      dup3\n      add\n        /* \"#utility.yul\":3339:3479   */\n      tag_99\n      jumpi\n        /* \"#utility.yul\":3401:3411   */\n      0x4e487b71\n        /* \"#utility.yul\":3396:3399   */\n      0xe0\n        /* \"#utility.yul\":3392:3412   */\n      shl\n        /* \"#utility.yul\":3389:3390   */\n      0x00\n        /* \"#utility.yul\":3382:3413   */\n      mstore\n        /* \"#utility.yul\":3436:3440   */\n      0x11\n        /* \"#utility.yul\":3433:3434   */\n      0x04\n        /* \"#utility.yul\":3426:3441   */\n      mstore\n        /* \"#utility.yul\":3464:3468   */\n      0x24\n        /* \"#utility.yul\":3461:3462   */\n      0x00\n        /* \"#utility.yul\":3454:3469   */\n      revert\n        /* \"#utility.yul\":3339:3479   */\n    tag_99:\n      pop\n        /* \"#utility.yul\":3506:3507   */\n      0x01\n        /* \"#utility.yul\":3495:3508   */\n      add\n      swap1\n        /* \"#utility.yul\":3282:3514   */\n      jump\t// out\n\n    auxdata: 0xa2646970667358221220aed125c6d05dbb52835256f82be2077a2362827d6e7360f78a4ee7dcf1f0887c64736f6c63430008180033\n}\n",
				"bytecode": {
					"linkReferences": {},
					"object": "608060405234801561000f575f80fd5b5060015f5561069e806100215f395ff3fe608060405260043610610049575f3560e01c806303988f841461004d578063278ecde1146100e557806337bdc99b146101065780633e68680a1461012557806361b8ce8c14610146575b5f80fd5b348015610058575f80fd5b506100a76100673660046105e1565b600260208190525f9182526040909120805460018201549282015460038301546004909301546001600160a01b0392831694831693919092169160ff1685565b604080516001600160a01b039687168152948616602086015292909416918301919091526060820152901515608082015260a0015b60405180910390f35b3480156100f0575f80fd5b506101046100ff3660046105e1565b61015b565b005b348015610111575f80fd5b506101046101203660046105e1565b6102d6565b610138610133366004610613565b610454565b6040519081526020016100dc565b348015610151575f80fd5b5061013860015481565b61016361058a565b5f818152600260205260409020600481015460ff166101b45760405162461bcd60e51b8152602060048201526008602482015267696e61637469766560c01b60448201526064015b60405180910390fd5b60028101546001600160a01b031633146101ff5760405162461bcd60e51b815260206004820152600c60248201526b37b7363c9030b93134ba32b960a11b60448201526064016101ab565b60048101805460ff19169055805460038201546040515f926001600160a01b031691908381818185875af1925050503d805f8114610258576040519150601f19603f3d011682016040523d82523d5f602084013e61025d565b606091505b505090508061029e5760405162461bcd60e51b815260206004820152600d60248201526c1c99599d5b990819985a5b1959609a1b60448201526064016101ab565b60405183907f3d2a04f53164bedf9a8a46353305d6b2d2261410406df3b41f99ce6489dc003c905f90a250506102d360015f55565b50565b6102de61058a565b5f818152600260205260409020600481015460ff1661032a5760405162461bcd60e51b8152602060048201526008602482015267696e61637469766560c01b60448201526064016101ab565b60028101546001600160a01b031633146103755760405162461bcd60e51b815260206004820152600c60248201526b37b7363c9030b93134ba32b960a11b60448201526064016101ab565b60048101805460ff19169055600181015460038201546040515f926001600160a01b031691908381818185875af1925050503d805f81146103d1576040519150601f19603f3d011682016040523d82523d5f602084013e6103d6565b606091505b505090508061041f5760405162461bcd60e51b81526020600482015260156024820152741c185e5959481d1c985b9cd9995c8819985a5b1959605a1b60448201526064016101ab565b60405183907ffb81f9b30d73d830c3544b34d827c08142579ee75710b490bab0b3995468c565905f90a250506102d360015f55565b5f80341161048f5760405162461bcd60e51b81526020600482015260086024820152676e6f2066756e647360c01b60448201526064016101ab565b60015f815461049d90610644565b91829055506040805160a081018252338082526001600160a01b0387811660208085018281528984168688018181523460608901818152600160808b018181525f8e81526002808a52908e90209c518d54908c166001600160a01b0319918216178e559751928d018054938c16938916939093179092559351908b018054919099169516949094179096559151600388015590516004909601805496151560ff199097169690961790955585519485528401919091529394509184917f172eb7bc12c6e8ebf18fe767ff6a36bfb6fe25f7f69d1cae8d54ef3701f287c4910160405180910390a492915050565b60025f54036105db5760405162461bcd60e51b815260206004820152601f60248201527f5265656e7472616e637947756172643a207265656e7472616e742063616c6c0060448201526064016101ab565b60025f55565b5f602082840312156105f1575f80fd5b5035919050565b80356001600160a01b038116811461060e575f80fd5b919050565b5f8060408385031215610624575f80fd5b61062d836105f8565b915061063b602084016105f8565b90509250929050565b5f6001820161066157634e487b7160e01b5f52601160045260245ffd5b506001019056fea2646970667358221220aed125c6d05dbb52835256f82be2077a2362827d6e7360f78a4ee7dcf1f0887c64736f6c63430008180033",
					"opcodes": "PUSH1 0x80 PUSH1 0x40 MSTORE CALLVALUE DUP1 ISZERO PUSH2 0xF JUMPI PUSH0 DUP1 REVERT JUMPDEST POP PUSH1 0x1 PUSH0 SSTORE PUSH2 0x69E DUP1 PUSH2 0x21 PUSH0 CODECOPY PUSH0 RETURN INVALID PUSH1 0x80 PUSH1 0x40 MSTORE PUSH1 0x4 CALLDATASIZE LT PUSH2 0x49 JUMPI PUSH0 CALLDATALOAD PUSH1 0xE0 SHR DUP1 PUSH4 0x3988F84 EQ PUSH2 0x4D JUMPI DUP1 PUSH4 0x278ECDE1 EQ PUSH2 0xE5 JUMPI DUP1 PUSH4 0x37BDC99B EQ PUSH2 0x106 JUMPI DUP1 PUSH4 0x3E68680A EQ PUSH2 0x125 JUMPI DUP1 PUSH4 0x61B8CE8C EQ PUSH2 0x146 JUMPI JUMPDEST PUSH0 DUP1 REVERT JUMPDEST CALLVALUE DUP1 ISZERO PUSH2 0x58 JUMPI PUSH0 DUP1 REVERT JUMPDEST POP PUSH2 0xA7 PUSH2 0x67 CALLDATASIZE PUSH1 0x4 PUSH2 0x5E1 JUMP JUMPDEST PUSH1 0x2 PUSH1 0x20 DUP2 SWAP1 MSTORE PUSH0 SWAP2 DUP3 MSTORE PUSH1 0x40 SWAP1 SWAP2 KECCAK256 DUP1 SLOAD PUSH1 0x1 DUP3 ADD SLOAD SWAP3 DUP3 ADD SLOAD PUSH1 0x3 DUP4 ADD SLOAD PUSH1 0x4 SWAP1 SWAP4 ADD SLOAD PUSH1 0x1 PUSH1 0x1 PUSH1 0xA0 SHL SUB SWAP3 DUP4 AND SWAP5 DUP4 AND SWAP4 SWAP2 SWAP1 SWAP3 AND SWAP2 PUSH1 0xFF AND DUP6 JUMP JUMPDEST PUSH1 0x40 DUP1 MLOAD PUSH1 0x1 PUSH1 0x1 PUSH1 0xA0 SHL SUB SWAP7 DUP8 AND DUP2 MSTORE SWAP5 DUP7 AND PUSH1 0x20 DUP7 ADD MSTORE SWAP3 SWAP1 SWAP5 AND SWAP2 DUP4 ADD SWAP2 SWAP1 SWAP2 MSTORE PUSH1 0x60 DUP3 ADD MSTORE SWAP1 ISZERO ISZERO PUSH1 0x80 DUP3 ADD MSTORE PUSH1 0xA0 ADD JUMPDEST PUSH1 0x40 MLOAD DUP1 SWAP2 SUB SWAP1 RETURN JUMPDEST CALLVALUE DUP1 ISZERO PUSH2 0xF0 JUMPI PUSH0 DUP1 REVERT JUMPDEST POP PUSH2 0x104 PUSH2 0xFF CALLDATASIZE PUSH1 0x4 PUSH2 0x5E1 JUMP JUMPDEST PUSH2 0x15B JUMP JUMPDEST STOP JUMPDEST CALLVALUE DUP1 ISZERO PUSH2 0x111 JUMPI PUSH0 DUP1 REVERT JUMPDEST POP PUSH2 0x104 PUSH2 0x120 CALLDATASIZE PUSH1 0x4 PUSH2 0x5E1 JUMP JUMPDEST PUSH2 0x2D6 JUMP JUMPDEST PUSH2 0x138 PUSH2 0x133 CALLDATASIZE PUSH1 0x4 PUSH2 0x613 JUMP JUMPDEST PUSH2 0x454 JUMP JUMPDEST PUSH1 0x40 MLOAD SWAP1 DUP2 MSTORE PUSH1 0x20 ADD PUSH2 0xDC JUMP JUMPDEST CALLVALUE DUP1 ISZERO PUSH2 0x151 JUMPI PUSH0 DUP1 REVERT JUMPDEST POP PUSH2 0x138 PUSH1 0x1 SLOAD DUP2 JUMP JUMPDEST PUSH2 0x163 PUSH2 0x58A JUMP JUMPDEST PUSH0 DUP2 DUP2 MSTORE PUSH1 0x2 PUSH1 0x20 MSTORE PUSH1 0x40 SWAP1 KECCAK256 PUSH1 0x4 DUP2 ADD SLOAD PUSH1 0xFF AND PUSH2 0x1B4 JUMPI PUSH1 0x40 MLOAD PUSH3 0x461BCD PUSH1 0xE5 SHL DUP2 MSTORE PUSH1 0x20 PUSH1 0x4 DUP3 ADD MSTORE PUSH1 0x8 PUSH1 0x24 DUP3 ADD MSTORE PUSH8 0x696E616374697665 PUSH1 0xC0 SHL PUSH1 0x44 DUP3 ADD MSTORE PUSH1 0x64 ADD JUMPDEST PUSH1 0x40 MLOAD DUP1 SWAP2 SUB SWAP1 REVERT JUMPDEST PUSH1 0x2 DUP2 ADD SLOAD PUSH1 0x1 PUSH1 0x1 PUSH1 0xA0 SHL SUB AND CALLER EQ PUSH2 0x1FF JUMPI PUSH1 0x40 MLOAD PUSH3 0x461BCD PUSH1 0xE5 SHL DUP2 MSTORE PUSH1 0x20 PUSH1 0x4 DUP3 ADD MSTORE PUSH1 0xC PUSH1 0x24 DUP3 ADD MSTORE PUSH12 0x37B7363C9030B93134BA32B9 PUSH1 0xA1 SHL PUSH1 0x44 DUP3 ADD MSTORE PUSH1 0x64 ADD PUSH2 0x1AB JUMP JUMPDEST PUSH1 0x4 DUP2 ADD DUP1 SLOAD PUSH1 0xFF NOT AND SWAP1 SSTORE DUP1 SLOAD PUSH1 0x3 DUP3 ADD SLOAD PUSH1 0x40 MLOAD PUSH0 SWAP3 PUSH1 0x1 PUSH1 0x1 PUSH1 0xA0 SHL SUB AND SWAP2 SWAP1 DUP4 DUP2 DUP2 DUP2 DUP6 DUP8 GAS CALL SWAP3 POP POP POP RETURNDATASIZE DUP1 PUSH0 DUP2 EQ PUSH2 0x258 JUMPI PUSH1 0x40 MLOAD SWAP2 POP PUSH1 0x1F NOT PUSH1 0x3F RETURNDATASIZE ADD AND DUP3 ADD PUSH1 0x40 MSTORE RETURNDATASIZE DUP3 MSTORE RETURNDATASIZE PUSH0 PUSH1 0x20 DUP5 ADD RETURNDATACOPY PUSH2 0x25D JUMP JUMPDEST PUSH1 0x60 SWAP2 POP JUMPDEST POP POP SWAP1 POP DUP1 PUSH2 0x29E JUMPI PUSH1 0x40 MLOAD PUSH3 0x461BCD PUSH1 0xE5 SHL DUP2 MSTORE PUSH1 0x20 PUSH1 0x4 DUP3 ADD MSTORE PUSH1 0xD PUSH1 0x24 DUP3 ADD MSTORE PUSH13 0x1C99599D5B990819985A5B1959 PUSH1 0x9A SHL PUSH1 0x44 DUP3 ADD MSTORE PUSH1 0x64 ADD PUSH2 0x1AB JUMP JUMPDEST PUSH1 0x40 MLOAD DUP4 SWAP1 PUSH32 0x3D2A04F53164BEDF9A8A46353305D6B2D2261410406DF3B41F99CE6489DC003C SWAP1 PUSH0 SWAP1 LOG2 POP POP PUSH2 0x2D3 PUSH1 0x1 PUSH0 SSTORE JUMP JUMPDEST POP JUMP JUMPDEST PUSH2 0x2DE PUSH2 0x58A JUMP JUMPDEST PUSH0 DUP2 DUP2 MSTORE PUSH1 0x2 PUSH1 0x20 MSTORE PUSH1 0x40 SWAP1 KECCAK256 PUSH1 0x4 DUP2 ADD SLOAD PUSH1 0xFF AND PUSH2 0x32A JUMPI PUSH1 0x40 MLOAD PUSH3 0x461BCD PUSH1 0xE5 SHL DUP2 MSTORE PUSH1 0x20 PUSH1 0x4 DUP3 ADD MSTORE PUSH1 0x8 PUSH1 0x24 DUP3 ADD MSTORE PUSH8 0x696E616374697665 PUSH1 0xC0 SHL PUSH1 0x44 DUP3 ADD MSTORE PUSH1 0x64 ADD PUSH2 0x1AB JUMP JUMPDEST PUSH1 0x2 DUP2 ADD SLOAD PUSH1 0x1 PUSH1 0x1 PUSH1 0xA0 SHL SUB AND CALLER EQ PUSH2 0x375 JUMPI PUSH1 0x40 MLOAD PUSH3 0x461BCD PUSH1 0xE5 SHL DUP2 MSTORE PUSH1 0x20 PUSH1 0x4 DUP3 ADD MSTORE PUSH1 0xC PUSH1 0x24 DUP3 ADD MSTORE PUSH12 0x37B7363C9030B93134BA32B9 PUSH1 0xA1 SHL PUSH1 0x44 DUP3 ADD MSTORE PUSH1 0x64 ADD PUSH2 0x1AB JUMP JUMPDEST PUSH1 0x4 DUP2 ADD DUP1 SLOAD PUSH1 0xFF NOT AND SWAP1 SSTORE PUSH1 0x1 DUP2 ADD SLOAD PUSH1 0x3 DUP3 ADD SLOAD PUSH1 0x40 MLOAD PUSH0 SWAP3 PUSH1 0x1 PUSH1 0x1 PUSH1 0xA0 SHL SUB AND SWAP2 SWAP1 DUP4 DUP2 DUP2 DUP2 DUP6 DUP8 GAS CALL SWAP3 POP POP POP RETURNDATASIZE DUP1 PUSH0 DUP2 EQ PUSH2 0x3D1 JUMPI PUSH1 0x40 MLOAD SWAP2 POP PUSH1 0x1F NOT PUSH1 0x3F RETURNDATASIZE ADD AND DUP3 ADD PUSH1 0x40 MSTORE RETURNDATASIZE DUP3 MSTORE RETURNDATASIZE PUSH0 PUSH1 0x20 DUP5 ADD RETURNDATACOPY PUSH2 0x3D6 JUMP JUMPDEST PUSH1 0x60 SWAP2 POP JUMPDEST POP POP SWAP1 POP DUP1 PUSH2 0x41F JUMPI PUSH1 0x40 MLOAD PUSH3 0x461BCD PUSH1 0xE5 SHL DUP2 MSTORE PUSH1 0x20 PUSH1 0x4 DUP3 ADD MSTORE PUSH1 0x15 PUSH1 0x24 DUP3 ADD MSTORE PUSH21 0x1C185E5959481D1C985B9CD9995C8819985A5B1959 PUSH1 0x5A SHL PUSH1 0x44 DUP3 ADD MSTORE PUSH1 0x64 ADD PUSH2 0x1AB JUMP JUMPDEST PUSH1 0x40 MLOAD DUP4 SWAP1 PUSH32 0xFB81F9B30D73D830C3544B34D827C08142579EE75710B490BAB0B3995468C565 SWAP1 PUSH0 SWAP1 LOG2 POP POP PUSH2 0x2D3 PUSH1 0x1 PUSH0 SSTORE JUMP JUMPDEST PUSH0 DUP1 CALLVALUE GT PUSH2 0x48F JUMPI PUSH1 0x40 MLOAD PUSH3 0x461BCD PUSH1 0xE5 SHL DUP2 MSTORE PUSH1 0x20 PUSH1 0x4 DUP3 ADD MSTORE PUSH1 0x8 PUSH1 0x24 DUP3 ADD MSTORE PUSH8 0x6E6F2066756E6473 PUSH1 0xC0 SHL PUSH1 0x44 DUP3 ADD MSTORE PUSH1 0x64 ADD PUSH2 0x1AB JUMP JUMPDEST PUSH1 0x1 PUSH0 DUP2 SLOAD PUSH2 0x49D SWAP1 PUSH2 0x644 JUMP JUMPDEST SWAP2 DUP3 SWAP1 SSTORE POP PUSH1 0x40 DUP1 MLOAD PUSH1 0xA0 DUP2 ADD DUP3 MSTORE CALLER DUP1 DUP3 MSTORE PUSH1 0x1 PUSH1 0x1 PUSH1 0xA0 SHL SUB DUP8 DUP2 AND PUSH1 0x20 DUP1 DUP6 ADD DUP3 DUP2 MSTORE DUP10 DUP5 AND DUP7 DUP9 ADD DUP2 DUP2 MSTORE CALLVALUE PUSH1 0x60 DUP10 ADD DUP2 DUP2 MSTORE PUSH1 0x1 PUSH1 0x80 DUP12 ADD DUP2 DUP2 MSTORE PUSH0 DUP15 DUP2 MSTORE PUSH1 0x2 DUP1 DUP11 MSTORE SWAP1 DUP15 SWAP1 KECCAK256 SWAP13 MLOAD DUP14 SLOAD SWAP1 DUP13 AND PUSH1 0x1 PUSH1 0x1 PUSH1 0xA0 SHL SUB NOT SWAP2 DUP3 AND OR DUP15 SSTORE SWAP8 MLOAD SWAP3 DUP14 ADD DUP1 SLOAD SWAP4 DUP13 AND SWAP4 DUP10 AND SWAP4 SWAP1 SWAP4 OR SWAP1 SWAP3 SSTORE SWAP4 MLOAD SWAP1 DUP12 ADD DUP1 SLOAD SWAP2 SWAP1 SWAP10 AND SWAP6 AND SWAP5 SWAP1 SWAP5 OR SWAP1 SWAP7 SSTORE SWAP2 MLOAD PUSH1 0x3 DUP9 ADD SSTORE SWAP1 MLOAD PUSH1 0x4 SWAP1 SWAP7 ADD DUP1 SLOAD SWAP7 ISZERO ISZERO PUSH1 0xFF NOT SWAP1 SWAP8 AND SWAP7 SWAP1 SWAP7 OR SWAP1 SWAP6 SSTORE DUP6 MLOAD SWAP5 DUP6 MSTORE DUP5 ADD SWAP2 SWAP1 SWAP2 MSTORE SWAP4 SWAP5 POP SWAP2 DUP5 SWAP2 PUSH32 0x172EB7BC12C6E8EBF18FE767FF6A36BFB6FE25F7F69D1CAE8D54EF3701F287C4 SWAP2 ADD PUSH1 0x40 MLOAD DUP1 SWAP2 SUB SWAP1 LOG4 SWAP3 SWAP2 POP POP JUMP JUMPDEST PUSH1 0x2 PUSH0 SLOAD SUB PUSH2 0x5DB JUMPI PUSH1 0x40 MLOAD PUSH3 0x461BCD PUSH1 0xE5 SHL DUP2 MSTORE PUSH1 0x20 PUSH1 0x4 DUP3 ADD MSTORE PUSH1 0x1F PUSH1 0x24 DUP3 ADD MSTORE PUSH32 0x5265656E7472616E637947756172643A207265656E7472616E742063616C6C00 PUSH1 0x44 DUP3 ADD MSTORE PUSH1 0x64 ADD PUSH2 0x1AB JUMP JUMPDEST PUSH1 0x2 PUSH0 SSTORE JUMP JUMPDEST PUSH0 PUSH1 0x20 DUP3 DUP5 SUB SLT ISZERO PUSH2 0x5F1 JUMPI PUSH0 DUP1 REVERT JUMPDEST POP CALLDATALOAD SWAP2 SWAP1 POP JUMP JUMPDEST DUP1 CALLDATALOAD PUSH1 0x1 PUSH1 0x1 PUSH1 0xA0 SHL SUB DUP2 AND DUP2 EQ PUSH2 0x60E JUMPI PUSH0 DUP1 REVERT JUMPDEST SWAP2 SWAP1 POP JUMP JUMPDEST PUSH0 DUP1 PUSH1 0x40 DUP4 DUP6 SUB SLT ISZERO PUSH2 0x624 JUMPI PUSH0 DUP1 REVERT JUMPDEST PUSH2 0x62D DUP4 PUSH2 0x5F8 JUMP JUMPDEST SWAP2 POP PUSH2 0x63B PUSH1 0x20 DUP5 ADD PUSH2 0x5F8 JUMP JUMPDEST SWAP1 POP SWAP3 POP SWAP3 SWAP1 POP JUMP JUMPDEST PUSH0 PUSH1 0x1 DUP3 ADD PUSH2 0x661 JUMPI PUSH4 0x4E487B71 PUSH1 0xE0 SHL PUSH0 MSTORE PUSH1 0x11 PUSH1 0x4 MSTORE PUSH1 0x24 PUSH0 REVERT JUMPDEST POP PUSH1 0x1 ADD SWAP1 JUMP INVALID LOG2 PUSH5 0x6970667358 0x22 SLT KECCAK256 0xAE 0xD1 0x25 0xC6 0xD0 TSTORE 0xBB MSTORE DUP4 MSTORE JUMP 0xF8 0x2B 0xE2 SMOD PUSH27 0x2362827D6E7360F78A4EE7DCF1F0887C64736F6C63430008180033 "
				},
				"gasEstimates": {
					"creation": {
						"codeDepositCost": "338800",
						"executionCost": "22477",
						"totalCost": "361277"
					},
					"external": {
						"create(address,address)": "infinite",
						"deals(uint256)": "11033",
						"nextId()": "2360",
						"refund(uint256)": "infinite",
						"release(uint256)": "infinite"
					}
				},
				"methodIdentifiers": {
					"create(address,address)": "3e68680a",
					"deals(uint256)": "03988f84",
					"nextId()": "61b8ce8c",
					"refund(uint256)": "278ecde1",
					"release(uint256)": "37bdc99b"
				}
			},
			"storageLayout": {
				"storage": [
					{
						"astId": 10,
						"contract": "SpageroEscrow_flattened.sol:SpageroEscrow",
						"label": "_status",
						"offset": 0,
						"slot": "0",
						"type": "t_uint256"
					},
					{
						"astId": 80,
						"contract": "SpageroEscrow_flattened.sol:SpageroEscrow",
						"label": "nextId",
						"offset": 0,
						"slot": "1",
						"type": "t_uint256"
					},
					{
						"astId": 85,
						"contract": "SpageroEscrow_flattened.sol:SpageroEscrow",
						"label": "deals",
						"offset": 0,
						"slot": "2",
						"type": "t_mapping(t_uint256,t_struct(Deal)78_storage)"
					}
				],
				"types": {
					"t_address": {
						"encoding": "inplace",
						"label": "address",
						"numberOfBytes": "20"
					},
					"t_bool": {
						"encoding": "inplace",
						"label": "bool",
						"numberOfBytes": "1"
					},
					"t_mapping(t_uint256,t_struct(Deal)78_storage)": {
						"encoding": "mapping",
						"key": "t_uint256",
						"label": "mapping(uint256 => struct SpageroEscrow.Deal)",
						"numberOfBytes": "32",
						"value": "t_struct(Deal)78_storage"
					},
					"t_struct(Deal)78_storage": {
						"encoding": "inplace",
						"label": "struct SpageroEscrow.Deal",
						"members": [
							{
								"astId": 69,
								"contract": "SpageroEscrow_flattened.sol:SpageroEscrow",
								"label": "depositor",
								"offset": 0,
								"slot": "0",
								"type": "t_address"
							},
							{
								"astId": 71,
								"contract": "SpageroEscrow_flattened.sol:SpageroEscrow",
								"label": "payee",
								"offset": 0,
								"slot": "1",
								"type": "t_address"
							},
							{
								"astId": 73,
								"contract": "SpageroEscrow_flattened.sol:SpageroEscrow",
								"label": "arbiter",
								"offset": 0,
								"slot": "2",
								"type": "t_address"
							},
							{
								"astId": 75,
								"contract": "SpageroEscrow_flattened.sol:SpageroEscrow",
								"label": "amount",
								"offset": 0,
								"slot": "3",
								"type": "t_uint256"
							},
							{
								"astId": 77,
								"contract": "SpageroEscrow_flattened.sol:SpageroEscrow",
								"label": "active",
								"offset": 0,
								"slot": "4",
								"type": "t_bool"
							}
						],
						"numberOfBytes": "160"
					},
					"t_uint256": {
						"encoding": "inplace",
						"label": "uint256",
						"numberOfBytes": "32"
					}
				}
			},
			"userdoc": {
				"kind": "user",
				"methods": {},
				"version": 1
			}
		}
	}
}