{
	"data": {
		"bytecode": {
			"linkReferences": {},
			"object": "60c060405234801561000f575f80fd5b50604051610ac7380380610ac783398101604081905261002e916100ef565b828282826001600160a01b03811661005f57604051631e4fbdf760e01b81525f600482015260240160405180910390fd5b61006881610085565b506001600160401b039182166080521660a0525061013c92505050565b5f80546001600160a01b038381166001600160a01b0319831681178455604051919092169283917f8be0079c531659141344cd1fd0a4f28419497f9722a3daafe3b4186f6b6457e09190a35050565b80516001600160401b03811681146100ea575f80fd5b919050565b5f805f60608486031215610101575f80fd5b83516001600160a01b0381168114610117575f80fd5b9250610125602085016100d4565b9150610133604085016100d4565b90509250925092565b60805160a05161095c61016b5f395f8181610127015281816104d401526105b201525f6104ae015261095c5ff3fe6080604052600436106100dc575f3560e01c8063961325211161007c578063be9a655511610057578063be9a65551461024a578063efbe1c1c1461025e578063f2fde38b14610272578063fbccedae14610291575f80fd5b806396132521146101e35780639852595c146101f7578063a3f8eace1461022b575f80fd5b8063715018a6116100b7578063715018a614610176578063810ec23b1461018a57806386d1a69f146101a95780638da5cb5b146101bd575f80fd5b80630a17b06b146100e75780630fb5a6b4146101195780631916558714610155575f80fd5b366100e357005b5f80fd5b3480156100f2575f80fd5b50610106610101366004610826565b6102a5565b6040519081526020015b60405180910390f35b348015610124575f80fd5b507f000000000000000000000000000000000000000000000000000000000000000067ffffffffffffffff16610106565b348015610160575f80fd5b5061017461016f366004610855565b6102c8565b005b348015610181575f80fd5b50610174610360565b348015610195575f80fd5b506101066101a436600461086e565b610373565b3480156101b4575f80fd5b50610174610406565b3480156101c8575f80fd5b505f546040516001600160a01b039091168152602001610110565b3480156101ee575f80fd5b50600154610106565b348015610202575f80fd5b50610106610211366004610855565b6001600160a01b03165f9081526002602052604090205490565b348015610236575f80fd5b50610106610245366004610855565b610477565b348015610255575f80fd5b506101066104a3565b348015610269575f80fd5b506101066104d1565b34801561027d575f80fd5b5061017461028c366004610855565b610514565b34801561029c575f80fd5b50610106610553565b5f6102c26102b260015490565b6102bc90476108b3565b83610570565b92915050565b5f6102d282610477565b6001600160a01b0383165f908152600260205260408120805492935083929091906102fe9084906108b3565b90915550506040518181526001600160a01b038316907fc0e523490dd523c33b1878c9eb14ff46991e3f5b2cd33710918618f2a39cba1b9060200160405180910390a261035c826103565f546001600160a01b031690565b83610612565b5050565b610368610669565b6103715f610695565b565b6001600160a01b0382165f908152600260205260408120546103ff906040516370a0823160e01b81523060048201526001600160a01b038616906370a0823190602401602060405180830381865afa1580156103d1573d5f803e3d5ffd5b505050506040513d601f19601f820116820180604052508101906103f591906108c6565b6102bc91906108b3565b9392505050565b5f61040f610553565b90508060015f82825461042291906108b3565b90915550506040518181527fda9d4e5f101b8b9b1c5b76d0c5a9f7923571acfc02376aa076b75a8c080c956b9060200160405180910390a161047461046e5f546001600160a01b031690565b826106e4565b50565b6001600160a01b0381165f908152600260205260408120546104998342610373565b6102c291906108dd565b67ffffffffffffffff7f00000000000000000000000000000000000000000000000000000000000000001690565b5f7f000000000000000000000000000000000000000000000000000000000000000067ffffffffffffffff166105056104a3565b61050f91906108b3565b905090565b61051c610669565b6001600160a01b03811661054a57604051631e4fbdf760e01b81525f60048201526024015b60405180910390fd5b61047481610695565b5f61055d60015490565b610566426102a5565b61050f91906108dd565b5f6105796104a3565b8267ffffffffffffffff16101561059157505f6102c2565b6105996104d1565b8267ffffffffffffffff16106105b05750816102c2565b7f000000000000000000000000000000000000000000000000000000000000000067ffffffffffffffff166105e36104a3565b6105f79067ffffffffffffffff85166108dd565b61060190856108f0565b61060b9190610907565b90506102c2565b604080516001600160a01b038416602482015260448082018490528251808303909101815260649091019091526020810180516001600160e01b031663a9059cbb60e01b179052610664908490610776565b505050565b5f546001600160a01b031633146103715760405163118cdaa760e01b8152336004820152602401610541565b5f80546001600160a01b038381166001600160a01b0319831681178455604051919092169283917f8be0079c531659141344cd1fd0a4f28419497f9722a3daafe3b4186f6b6457e09190a35050565b8047101561070e5760405163cf47918160e01b815247600482015260248101829052604401610541565b5f80836001600160a01b0316836040515f6040518083038185875af1925050503d805f8114610758576040519150601f19603f3d011682016040523d82523d5f602084013e61075d565b606091505b50915091508161077057610770816107e2565b50505050565b5f8060205f8451602086015f885af180610795576040513d5f823e3d81fd5b50505f513d915081156107ac5780600114156107b9565b6001600160a01b0384163b155b1561077057604051635274afe760e01b81526001600160a01b0385166004820152602401610541565b8051156107f157805160208201fd5b60405163d6bda27560e01b815260040160405180910390fd5b803567ffffffffffffffff81168114610821575f80fd5b919050565b5f60208284031215610836575f80fd5b6103ff8261080a565b80356001600160a01b0381168114610821575f80fd5b5f60208284031215610865575f80fd5b6103ff8261083f565b5f806040838503121561087f575f80fd5b6108888361083f565b91506108966020840161080a565b90509250929050565b634e487b7160e01b5f52601160045260245ffd5b808201808211156102c2576102c261089f565b5f602082840312156108d6575f80fd5b5051919050565b818103818111156102c2576102c261089f565b80820281158282048414176102c2576102c261089f565b5f8261092157634e487b7160e01b5f52601260045260245ffd5b50049056fea2646970667358221220745ba72e7c4e74d2fae77a5e90dc1f6e40c70b475ee61e114c7b809c8e25bfbc64736f6c63430008180033",
			"opcodes": "PUSH1 0xC0 PUSH1 0x40 MSTORE CALLVALUE DUP1 ISZERO PUSH2 0xF JUMPI PUSH0 DUP1 REVERT JUMPDEST POP PUSH1 0x40 MLOAD PUSH2 0xAC7 CODESIZE SUB DUP1 PUSH2 0xAC7 DUP4 CODECOPY DUP2 ADD PUSH1 0x40 DUP2 SWAP1 MSTORE PUSH2 0x2E SWAP2 PUSH2 0xEF JUMP JUMPDEST DUP3 DUP3 DUP3 DUP3 PUSH1 0x1 PUSH1 0x1 PUSH1 0xA0 SHL SUB DUP2 AND PUSH2 0x5F JUMPI PUSH1 0x40 MLOAD PUSH4 0x1E4FBDF7 PUSH1 0xE0 SHL DUP2 MSTORE PUSH0 PUSH1 0x4 DUP3 ADD MSTORE PUSH1 0x24 ADD PUSH1 0x40 MLOAD DUP1 SWAP2 SUB SWAP1 REVERT JUMPDEST PUSH2 0x68 DUP2 PUSH2 0x85 JUMP JUMPDEST POP PUSH1 0x1 PUSH1 0x1 PUSH1 0x40 SHL SUB SWAP2 DUP3 AND PUSH1 0x80 MSTORE AND PUSH1 0xA0 MSTORE POP PUSH2 0x13C SWAP3 POP POP POP JUMP JUMPDEST PUSH0 DUP1 SLOAD PUSH1 0x1 PUSH1 0x1 PUSH1 0xA0 SHL SUB DUP4 DUP2 AND PUSH1 0x1 PUSH1 0x1 PUSH1 0xA0 SHL SUB NOT DUP4 AND DUP2 OR DUP5 SSTORE PUSH1 0x40 MLOAD SWAP2 SWAP1 SWAP3 AND SWAP3 DUP4 SWAP2 PUSH32 0x8BE0079C531659141344CD1FD0A4F28419497F9722A3DAAFE3B4186F6B6457E0 SWAP2 SWAP1 LOG3 POP POP JUMP JUMPDEST DUP1 MLOAD PUSH1 0x1 PUSH1 0x1 PUSH1 0x40 SHL SUB DUP2 AND DUP2 EQ PUSH2 0xEA JUMPI PUSH0 DUP1 REVERT JUMPDEST SWAP2 SWAP1 POP JUMP JUMPDEST PUSH0 DUP1 PUSH0 PUSH1 0x60 DUP5 DUP7 SUB SLT ISZERO PUSH2 0x101 JUMPI PUSH0 DUP1 REVERT JUMPDEST DUP4 MLOAD PUSH1 0x1 PUSH1 0x1 PUSH1 0xA0 SHL SUB DUP2 AND DUP2 EQ PUSH2 0x117 JUMPI PUSH0 DUP1 REVERT JUMPDEST SWAP3 POP PUSH2 0x125 PUSH1 0x20 DUP6 ADD PUSH2 0xD4 JUMP JUMPDEST SWAP2 POP PUSH2 0x133 PUSH1 0x40 DUP6 ADD PUSH2 0xD4 JUMP JUMPDEST SWAP1 POP SWAP3 POP SWAP3 POP SWAP3 JUMP JUMPDEST PUSH1 0x80 MLOAD PUSH1 0xA0 MLOAD PUSH2 0x95C PUSH2 0x16B PUSH0 CODECOPY PUSH0 DUP2 DUP2 PUSH2 0x127 ADD MSTORE DUP2 DUP2 PUSH2 0x4D4 ADD MSTORE PUSH2 0x5B2 ADD MSTORE PUSH0 PUSH2 0x4AE ADD MSTORE PUSH2 0x95C PUSH0 RETURN INVALID PUSH1 0x80 PUSH1 0x40 MSTORE PUSH1 0x4 CALLDATASIZE LT PUSH2 0xDC JUMPI PUSH0 CALLDATALOAD PUSH1 0xE0 SHR DUP1 PUSH4 0x96132521 GT PUSH2 0x7C JUMPI DUP1 PUSH4 0xBE9A6555 GT PUSH2 0x57 JUMPI DUP1 PUSH4 0xBE9A6555 EQ PUSH2 0x24A JUMPI DUP1 PUSH4 0xEFBE1C1C EQ PUSH2 0x25E JUMPI DUP1 PUSH4 0xF2FDE38B EQ PUSH2 0x272 JUMPI DUP1 PUSH4 0xFBCCEDAE EQ PUSH2 0x291 JUMPI PUSH0 DUP1 REVERT JUMPDEST DUP1 PUSH4 0x96132521 EQ PUSH2 0x1E3 JUMPI DUP1 PUSH4 0x9852595C EQ PUSH2 0x1F7 JUMPI DUP1 PUSH4 0xA3F8EACE EQ PUSH2 0x22B JUMPI PUSH0 DUP1 REVERT JUMPDEST DUP1 PUSH4 0x715018A6 GT PUSH2 0xB7 JUMPI DUP1 PUSH4 0x715018A6 EQ PUSH2 0x176 JUMPI DUP1 PUSH4 0x810EC23B EQ PUSH2 0x18A JUMPI DUP1 PUSH4 0x86D1A69F EQ PUSH2 0x1A9 JUMPI DUP1 PUSH4 0x8DA5CB5B EQ PUSH2 0x1BD JUMPI PUSH0 DUP1 REVERT JUMPDEST DUP1 PUSH4 0xA17B06B EQ PUSH2 0xE7 JUMPI DUP1 PUSH4 0xFB5A6B4 EQ PUSH2 0x119 JUMPI DUP1 PUSH4 0x19165587 EQ PUSH2 0x155 JUMPI PUSH0 DUP1 REVERT JUMPDEST CALLDATASIZE PUSH2 0xE3 JUMPI STOP JUMPDEST PUSH0 DUP1 REVERT JUMPDEST CALLVALUE DUP1 ISZERO PUSH2 0xF2 JUMPI PUSH0 DUP1 REVERT JUMPDEST POP PUSH2 0x106 PUSH2 0x101 CALLDATASIZE PUSH1 0x4 PUSH2 0x826 JUMP JUMPDEST PUSH2 0x2A5 JUMP JUMPDEST PUSH1 0x40 MLOAD SWAP1 DUP2 MSTORE PUSH1 0x20 ADD JUMPDEST PUSH1 0x40 MLOAD DUP1 SWAP2 SUB SWAP1 RETURN JUMPDEST CALLVALUE DUP1 ISZERO PUSH2 0x124 JUMPI PUSH0 DUP1 REVERT JUMPDEST POP PUSH32 0x0 PUSH8 0xFFFFFFFFFFFFFFFF AND PUSH2 0x106 JUMP JUMPDEST CALLVALUE DUP1 ISZERO PUSH2 0x160 JUMPI PUSH0 DUP1 REVERT JUMPDEST POP PUSH2 0x174 PUSH2 0x16F CALLDATASIZE PUSH1 0x4 PUSH2 0x855 JUMP JUMPDEST PUSH2 0x2C8 JUMP JUMPDEST STOP JUMPDEST CALLVALUE DUP1 ISZERO PUSH2 0x181 JUMPI PUSH0 DUP1 REVERT JUMPDEST POP PUSH2 0x174 PUSH2 0x360 JUMP JUMPDEST CALLVALUE DUP1 ISZERO PUSH2 0x195 JUMPI PUSH0 DUP1 REVERT JUMPDEST POP PUSH2 0x106 PUSH2 0x1A4 CALLDATASIZE PUSH1 0x4 PUSH2 0x86E JUMP JUMPDEST PUSH2 0x373 JUMP JUMPDEST CALLVALUE DUP1 ISZERO PUSH2 0x1B4 JUMPI PUSH0 DUP1 REVERT JUMPDEST POP PUSH2 0x174 PUSH2 0x406 JUMP JUMPDEST CALLVALUE DUP1 ISZERO PUSH2 0x1C8 JUMPI PUSH0 DUP1 REVERT JUMPDEST POP PUSH0 SLOAD PUSH1 0x40 MLOAD PUSH1 0x1 PUSH1 0x1 PUSH1 0xA0 SHL SUB SWAP1 SWAP2 AND DUP2 MSTORE PUSH1 0x20 ADD PUSH2 0x110 JUMP JUMPDEST CALLVALUE DUP1 ISZERO PUSH2 0x1EE JUMPI PUSH0 DUP1 REVERT JUMPDEST POP PUSH1 0x1 SLOAD PUSH2 0x106 JUMP JUMPDEST CALLVALUE DUP1 ISZERO PUSH2 0x202 JUMPI PUSH0 DUP1 REVERT JUMPDEST POP PUSH2 0x106 PUSH2 0x211 CALLDATASIZE PUSH1 0x4 PUSH2 0x855 JUMP JUMPDEST PUSH1 0x1 PUSH1 0x1 PUSH1 0xA0 SHL SUB AND PUSH0 SWAP1 DUP2 MSTORE PUSH1 0x2 PUSH1 0x20 MSTORE PUSH1 0x40 SWAP1 KECCAK256 SLOAD SWAP1 JUMP JUMPDEST CALLVALUE DUP1 ISZERO PUSH2 0x236 JUMPI PUSH0 DUP1 REVERT JUMPDEST POP PUSH2 0x106 PUSH2 0x245 CALLDATASIZE PUSH1 0x4 PUSH2 0x855 JUMP JUMPDEST PUSH2 0x477 JUMP JUMPDEST CALLVALUE DUP1 ISZERO PUSH2 0x255 JUMPI PUSH0 DUP1 REVERT JUMPDEST POP PUSH2 0x106 PUSH2 0x4A3 JUMP JUMPDEST CALLVALUE DUP1 ISZERO PUSH2 0x269 JUMPI PUSH0 DUP1 REVERT JUMPDEST POP PUSH2 0x106 PUSH2 0x4D1 JUMP JUMPDEST CALLVALUE DUP1 ISZERO PUSH2 0x27D JUMPI PUSH0 DUP1 REVERT JUMPDEST POP PUSH2 0x174 PUSH2 0x28C CALLDATASIZE PUSH1 0x4 PUSH2 0x855 JUMP JUMPDEST PUSH2 0x514 JUMP JUMPDEST CALLVALUE DUP1 ISZERO PUSH2 0x29C JUMPI PUSH0 DUP1 REVERT JUMPDEST POP PUSH2 0x106 PUSH2 0x553 JUMP JUMPDEST PUSH0 PUSH2 0x2C2 PUSH2 0x2B2 PUSH1 0x1 SLOAD SWAP1 JUMP JUMPDEST PUSH2 0x2BC SWAP1 SELFBALANCE PUSH2 0x8B3 JUMP JUMPDEST DUP4 PUSH2 0x570 JUMP JUMPDEST SWAP3 SWAP2 POP POP JUMP JUMPDEST PUSH0 PUSH2 0x2D2 DUP3 PUSH2 0x477 JUMP JUMPDEST PUSH1 0x1 PUSH1 0x1 PUSH1 0xA0 SHL SUB DUP4 AND PUSH0 SWAP1 DUP2 MSTORE PUSH1 0x2 PUSH1 0x20 MSTORE PUSH1 0x40 DUP2 KECCAK256 DUP1 SLOAD SWAP3 SWAP4 POP DUP4 SWAP3 SWAP1 SWAP2 SWAP1 PUSH2 0x2FE SWAP1 DUP5 SWAP1 PUSH2 0x8B3 JUMP JUMPDEST SWAP1 SWAP2 SSTORE POP POP PUSH1 0x40 MLOAD DUP2 DUP2 MSTORE PUSH1 0x1 PUSH1 0x1 PUSH1 0xA0 SHL SUB DUP4 AND SWAP1 PUSH32 0xC0E523490DD523C33B1878C9EB14FF46991E3F5B2CD33710918618F2A39CBA1B SWAP1 PUSH1 0x20 ADD PUSH1 0x40 MLOAD DUP1 SWAP2 SUB SWAP1 LOG2 PUSH2 0x35C DUP3 PUSH2 0x356 PUSH0 SLOAD PUSH1 0x1 PUSH1 0x1 PUSH1 0xA0 SHL SUB AND SWAP1 JUMP JUMPDEST DUP4 PUSH2 0x612 JUMP JUMPDEST POP POP JUMP JUMPDEST PUSH2 0x368 PUSH2 0x669 JUMP JUMPDEST PUSH2 0x371 PUSH0 PUSH2 0x695 JUMP JUMPDEST JUMP JUMPDEST PUSH1 0x1 PUSH1 0x1 PUSH1 0xA0 SHL SUB DUP3 AND PUSH0 SWAP1 DUP2 MSTORE PUSH1 0x2 PUSH1 0x20 MSTORE PUSH1 0x40 DUP2 KECCAK256 SLOAD PUSH2 0x3FF SWAP1 PUSH1 0x40 MLOAD PUSH4 0x70A08231 PUSH1 0xE0 SHL DUP2 MSTORE ADDRESS PUSH1 0x4 DUP3 ADD MSTORE PUSH1 0x1 PUSH1 0x1 PUSH1 0xA0 SHL SUB DUP7 AND SWAP1 PUSH4 0x70A08231 SWAP1 PUSH1 0x24 ADD PUSH1 0x20 PUSH1 0x40 MLOAD DUP1 DUP4 SUB DUP2 DUP7 GAS STATICCALL ISZERO DUP1 ISZERO PUSH2 0x3D1 JUMPI RETURNDATASIZE PUSH0 DUP1 RETURNDATACOPY RETURNDATASIZE PUSH0 REVERT JUMPDEST POP POP POP POP PUSH1 0x40 MLOAD RETURNDATASIZE PUSH1 0x1F NOT PUSH1 0x1F DUP3 ADD AND DUP3 ADD DUP1 PUSH1 0x40 MSTORE POP DUP2 ADD SWAP1 PUSH2 0x3F5 SWAP2 SWAP1 PUSH2 0x8C6 JUMP JUMPDEST PUSH2 0x2BC SWAP2 SWAP1 PUSH2 0x8B3 JUMP JUMPDEST SWAP4 SWAP3 POP POP POP JUMP JUMPDEST PUSH0 PUSH2 0x40F PUSH2 0x553 JUMP JUMPDEST SWAP1 POP DUP1 PUSH1 0x1 PUSH0 DUP3 DUP3 SLOAD PUSH2 0x422 SWAP2 SWAP1 PUSH2 0x8B3 JUMP JUMPDEST SWAP1 SWAP2 SSTORE POP POP PUSH1 0x40 MLOAD DUP2 DUP2 MSTORE PUSH32 0xDA9D4E5F101B8B9B1C5B76D0C5A9F7923571ACFC02376AA076B75A8C080C956B SWAP1 PUSH1 0x20 ADD PUSH1 0x40 MLOAD DUP1 SWAP2 SUB SWAP1 LOG1 PUSH2 0x474 PUSH2 0x46E PUSH0 SLOAD PUSH1 0x1 PUSH1 0x1 PUSH1 0xA0 SHL SUB AND SWAP1 JUMP JUMPDEST DUP3 PUSH2 0x6E4 JUMP JUMPDEST POP JUMP JUMPDEST PUSH1 0x1 PUSH1 0x1 PUSH1 0xA0 SHL SUB DUP2 AND PUSH0 SWAP1 DUP2 MSTORE PUSH1 0x2 PUSH1 0x20 MSTORE PUSH1 0x40 DUP2 KECCAK256 SLOAD PUSH2 0x499 DUP4 TIMESTAMP PUSH2 0x373 JUMP JUMPDEST PUSH2 0x2C2 SWAP2 SWAP1 PUSH2 0x8DD JUMP JUMPDEST PUSH8 0xFFFFFFFFFFFFFFFF PUSH32 0x0 AND SWAP1 JUMP JUMPDEST PUSH0 PUSH32 0x0 PUSH8 0xFFFFFFFFFFFFFFFF AND PUSH2 0x505 PUSH2 0x4A3 JUMP JUMPDEST PUSH2 0x50F SWAP2 SWAP1 PUSH2 0x8B3 JUMP JUMPDEST SWAP1 POP SWAP1 JUMP JUMPDEST PUSH2 0x51C PUSH2 0x669 JUMP JUMPDEST PUSH1 0x1 PUSH1 0x1 PUSH1 0xA0 SHL SUB DUP2 AND PUSH2 0x54A JUMPI PUSH1 0x40 MLOAD PUSH4 0x1E4FBDF7 PUSH1 0xE0 SHL DUP2 MSTORE PUSH0 PUSH1 0x4 DUP3 ADD MSTORE PUSH1 0x24 ADD JUMPDEST PUSH1 0x40 MLOAD DUP1 SWAP2 SUB SWAP1 REVERT JUMPDEST PUSH2 0x474 DUP2 PUSH2 0x695 JUMP JUMPDEST PUSH0 PUSH2 0x55D PUSH1 0x1 SLOAD SWAP1 JUMP JUMPDEST PUSH2 0x566 TIMESTAMP PUSH2 0x2A5 JUMP JUMPDEST PUSH2 0x50F SWAP2 SWAP1 PUSH2 0x8DD JUMP JUMPDEST PUSH0 PUSH2 0x579 PUSH2 0x4A3 JUMP JUMPDEST DUP3 PUSH8 0xFFFFFFFFFFFFFFFF AND LT ISZERO PUSH2 0x591 JUMPI POP PUSH0 PUSH2 0x2C2 JUMP JUMPDEST PUSH2 0x599 PUSH2 0x4D1 JUMP JUMPDEST DUP3 PUSH8 0xFFFFFFFFFFFFFFFF AND LT PUSH2 0x5B0 JUMPI POP DUP2 PUSH2 0x2C2 JUMP JUMPDEST PUSH32 0x0 PUSH8 0xFFFFFFFFFFFFFFFF AND PUSH2 0x5E3 PUSH2 0x4A3 JUMP JUMPDEST PUSH2 0x5F7 SWAP1 PUSH8 0xFFFFFFFFFFFFFFFF DUP6 AND PUSH2 0x8DD JUMP JUMPDEST PUSH2 0x601 SWAP1 DUP6 PUSH2 0x8F0 JUMP JUMPDEST PUSH2 0x60B SWAP2 SWAP1 PUSH2 0x907 JUMP JUMPDEST SWAP1 POP PUSH2 0x2C2 JUMP JUMPDEST PUSH1 0x40 DUP1 MLOAD PUSH1 0x1 PUSH1 0x1 PUSH1 0xA0 SHL SUB DUP5 AND PUSH1 0x24 DUP3 ADD MSTORE PUSH1 0x44 DUP1 DUP3 ADD DUP5 SWAP1 MSTORE DUP3 MLOAD DUP1 DUP4 SUB SWAP1 SWAP2 ADD DUP2 MSTORE PUSH1 0x64 SWAP1 SWAP2 ADD SWAP1 SWAP2 MSTORE PUSH1 0x20 DUP2 ADD DUP1 MLOAD PUSH1 0x1 PUSH1 0x1 PUSH1 0xE0 SHL SUB AND PUSH4 0xA9059CBB PUSH1 0xE0 SHL OR SWAP1 MSTORE PUSH2 0x664 SWAP1 DUP5 SWAP1 PUSH2 0x776 JUMP JUMPDEST POP POP POP JUMP JUMPDEST PUSH0 SLOAD PUSH1 0x1 PUSH1 0x1 PUSH1 0xA0 SHL SUB AND CALLER EQ PUSH2 0x371 JUMPI PUSH1 0x40 MLOAD PUSH4 0x118CDAA7 PUSH1 0xE0 SHL DUP2 MSTORE CALLER PUSH1 0x4 DUP3 ADD MSTORE PUSH1 0x24 ADD PUSH2 0x541 JUMP JUMPDEST PUSH0 DUP1 SLOAD PUSH1 0x1 PUSH1 0x1 PUSH1 0xA0 SHL SUB DUP4 DUP2 AND PUSH1 0x1 PUSH1 0x1 PUSH1 0xA0 SHL SUB NOT DUP4 AND DUP2 OR DUP5 SSTORE PUSH1 0x40 MLOAD SWAP2 SWAP1 SWAP3 AND SWAP3 DUP4 SWAP2 PUSH32 0x8BE0079C531659141344CD1FD0A4F28419497F9722A3DAAFE3B4186F6B6457E0 SWAP2 SWAP1 LOG3 POP POP JUMP JUMPDEST DUP1 SELFBALANCE LT ISZERO PUSH2 0x70E JUMPI PUSH1 0x40 MLOAD PUSH4 0xCF479181 PUSH1 0xE0 SHL DUP2 MSTORE SELFBALANCE PUSH1 0x4 DUP3 ADD MSTORE PUSH1 0x24 DUP2 ADD DUP3 SWAP1 MSTORE PUSH1 0x44 ADD PUSH2 0x541 JUMP JUMPDEST PUSH0 DUP1 DUP4 PUSH1 0x1 PUSH1 0x1 PUSH1 0xA0 SHL SUB AND DUP4 PUSH1 0x40 MLOAD PUSH0 PUSH1 0x40 MLOAD DUP1 DUP4 SUB DUP2 DUP6 DUP8 GAS CALL SWAP3 POP POP POP RETURNDATASIZE DUP1 PUSH0 DUP2 EQ PUSH2 0x758 JUMPI PUSH1 0x40 MLOAD SWAP2 POP PUSH1 0x1F NOT PUSH1 0x3F RETURNDATASIZE ADD AND DUP3 ADD PUSH1 0x40 MSTORE RETURNDATASIZE DUP3 MSTORE RETURNDATASIZE PUSH0 PUSH1 0x20 DUP5 ADD RETURNDATACOPY PUSH2 0x75D JUMP JUMPDEST PUSH1 0x60 SWAP2 POP JUMPDEST POP SWAP2 POP SWAP2 POP DUP2 PUSH2 0x770 JUMPI PUSH2 0x770 DUP2 PUSH2 0x7E2 JUMP JUMPDEST POP POP POP POP JUMP JUMPDEST PUSH0 DUP1 PUSH1 0x20 PUSH0 DUP5 MLOAD PUSH1 0x20 DUP7 ADD PUSH0 DUP9 GAS CALL DUP1 PUSH2 0x795 JUMPI PUSH1 0x40 MLOAD RETURNDATASIZE PUSH0 DUP3 RETURNDATACOPY RETURNDATASIZE DUP2 REVERT JUMPDEST POP POP PUSH0 MLOAD RETURNDATASIZE SWAP2 POP DUP2 ISZERO PUSH2 0x7AC JUMPI DUP1 PUSH1 0x1 EQ ISZERO PUSH2 0x7B9 JUMP JUMPDEST PUSH1 0x1 PUSH1 0x1 PUSH1 0xA0 SHL SUB DUP5 AND EXTCODESIZE ISZERO JUMPDEST ISZERO PUSH2 0x770 JUMPI PUSH1 0x40 MLOAD PUSH4 0x5274AFE7 PUSH1 0xE0 SHL DUP2 MSTORE PUSH1 0x1 PUSH1 0x1 PUSH1 0xA0 SHL SUB DUP6 AND PUSH1 0x4 DUP3 ADD MSTORE PUSH1 0x24 ADD PUSH2 0x541 JUMP JUMPDEST DUP1 MLOAD ISZERO PUSH2 0x7F1 JUMPI DUP1 MLOAD PUSH1 0x20 DUP3 ADD REVERT JUMPDEST PUSH1 0x40 MLOAD PUSH4 0xD6BDA275 PUSH1 0xE0 SHL DUP2 MSTORE PUSH1 0x4 ADD PUSH1 0x40 MLOAD DUP1 SWAP2 SUB SWAP1 REVERT JUMPDEST DUP1 CALLDATALOAD PUSH8 0xFFFFFFFFFFFFFFFF DUP2 AND DUP2 EQ PUSH2 0x821 JUMPI PUSH0 DUP1 REVERT JUMPDEST SWAP2 SWAP1 POP JUMP JUMPDEST PUSH0 PUSH1 0x20 DUP3 DUP5 SUB SLT ISZERO PUSH2 0x836 JUMPI PUSH0 DUP1 REVERT JUMPDEST PUSH2 0x3FF DUP3 PUSH2 0x80A JUMP JUMPDEST DUP1 CALLDATALOAD PUSH1 0x1 PUSH1 0x1 PUSH1 0xA0 SHL SUB DUP2 AND DUP2 EQ PUSH2 0x821 JUMPI PUSH0 DUP1 REVERT JUMPDEST PUSH0 PUSH1 0x20 DUP3 DUP5 SUB SLT ISZERO PUSH2 0x865 JUMPI PUSH0 DUP1 REVERT JUMPDEST PUSH2 0x3FF DUP3 PUSH2 0x83F JUMP JUMPDEST PUSH0 DUP1 PUSH1 0x40 DUP4 DUP6 SUB SLT ISZERO PUSH2 0x87F JUMPI PUSH0 DUP1 REVERT JUMPDEST PUSH2 0x888 DUP4 PUSH2 0x83F JUMP JUMPDEST SWAP2 POP PUSH2 0x896 PUSH1 0x20 DUP5 ADD PUSH2 0x80A JUMP JUMPDEST SWAP1 POP SWAP3 POP SWAP3 SWAP1 POP JUMP JUMPDEST PUSH4 0x4E487B71 PUSH1 0xE0 SHL PUSH0 MSTORE PUSH1 0x11 PUSH1 0x4 MSTORE PUSH1 0x24 PUSH0 REVERT JUMPDEST DUP1 DUP3 ADD DUP1 DUP3 GT ISZERO PUSH2 0x2C2 JUMPI PUSH2 0x2C2 PUSH2 0x89F JUMP JUMPDEST PUSH0 PUSH1 0x20 DUP3 DUP5 SUB SLT ISZERO PUSH2 0x8D6 JUMPI PUSH0 DUP1 REVERT JUMPDEST POP MLOAD SWAP2 SWAP1 POP JUMP JUMPDEST DUP2 DUP2 SUB DUP2 DUP2 GT ISZERO PUSH2 0x2C2 JUMPI PUSH2 0x2C2 PUSH2 0x89F JUMP JUMPDEST DUP1 DUP3 MUL DUP2 ISZERO DUP3 DUP3 DIV DUP5 EQ OR PUSH2 0x2C2 JUMPI PUSH2 0x2C2 PUSH2 0x89F JUMP JUMPDEST PUSH0 DUP3 PUSH2 0x921 JUMPI PUSH4 0x4E487B71 PUSH1 0xE0 SHL PUSH0 MSTORE PUSH1 0x12 PUSH1 0x4 MSTORE PUSH1 0x24 PUSH0 REVERT JUMPDEST POP DIV SWAP1 JUMP INVALID LOG2 PUSH5 0x6970667358 0x22 SLT KECCAK256 PUSH21 0x5BA72E7C4E74D2FAE77A5E90DC1F6E40C70B475EE6 0x1E GT 0x4C PUSH28 0x809C8E25BFBC64736F6C634300081800330000000000000000000000 "
		},
		"gasEstimates": {
			"creation": {
				"codeDepositCost": "479200",
				"executionCost": "infinite",
				"totalCost": "infinite"
			},
			"external": {
				"duration()": "infinite",
				"end()": "infinite",
				"owner()": "2388",
				"releasable()": "infinite",
				"releasable(address)": "infinite",
				"release()": "infinite",
				"release(address)": "infinite",
				"released()": "2303",
				"released(address)": "2568",
				"renounceOwnership()": "infinite",
				"start()": "infinite",
				"transferOwnership(address)": "28395",
				"vestedAmount(address,uint64)": "infinite",
				"vestedAmount(uint64)": "infinite"
			}
		},
		"methodIdentifiers": {
			"duration()": "0fb5a6b4",
			"end()": "efbe1c1c",
			"owner()": "8da5cb5b",
			"releasable()": "fbccedae",
			"releasable(address)": "a3f8eace",
			"release()": "86d1a69f",
			"release(address)": "19165587",
			"released()": "96132521",
			"released(address)": "9852595c",
			"renounceOwnership()": "715018a6",
			"start()": "be9a6555",
			"transferOwnership(address)": "f2fde38b",
			"vestedAmount(address,uint64)": "810ec23b",
			"vestedAmount(uint64)": "0a17b06b"
		}
	},
	"abi": [
		{
			"inputs": [
				{
					"internalType": "address",
					"name": "beneficiaryAddress",
					"type": "address"
				},
				{
					"internalType": "uint64",
					"name": "startTimestamp",
					"type": "uint64"
				},
				{
					"internalType": "uint64",
					"name": "durationSeconds",
					"type": "uint64"
				}
			],
			"stateMutability": "nonpayable",
			"type": "constructor"
		},
		{
			"inputs": [],
			"name": "FailedCall",
			"type": "error"
		},
		{
			"inputs": [
				{
					"internalType": "uint256",
					"name": "balance",
					"type": "uint256"
				},
				{
					"internalType": "uint256",
					"name": "needed",
					"type": "uint256"
				}
			],
			"name": "InsufficientBalance",
			"type": "error"
		},
		{
			"inputs": [
				{
					"internalType": "address",
					"name": "owner",
					"type": "address"
				}
			],
			"name": "OwnableInvalidOwner",
			"type": "error"
		},
		{
			"inputs": [
				{
					"internalType": "address",
					"name": "account",
					"type": "address"
				}
			],
			"name": "OwnableUnauthorizedAccount",
			"type": "error"
		},
		{
			"inputs": [
				{
					"internalType": "address",
					"name": "token",
					"type": "address"
				}
			],
			"name": "SafeERC20FailedOperation",
			"type": "error"
		},
		{
			"anonymous": false,
			"inputs": [
				{
					"indexed": true,
					"internalType": "address",
					"name": "token",
					"type": "address"
				},
				{
					"indexed": false,
					"internalType": "uint256",
					"name": "amount",
					"type": "uint256"
				}
			],
			"name": "ERC20Released",
			"type": "event"
		},
		{
			"anonymous": false,
			"inputs": [
				{
					"indexed": false,
					"internalType": "uint256",
					"name": "amount",
					"type": "uint256"
				}
			],
			"name": "EtherReleased",
			"type": "event"
		},
		{
			"anonymous": false,
			"inputs": [
				{
					"indexed": true,
					"internalType": "address",
					"name": "previousOwner",
					"type": "address"
				},
				{
					"indexed": true,
					"internalType": "address",
					"name": "newOwner",
					"type": "address"
				}
			],
			"name": "OwnershipTransferred",
			"type": "event"
		},
		{
			"inputs": [],
			"name": "duration",
			"outputs": [
				{
					"internalType": "uint256",
					"name": "",
					"type": "uint256"
				}
			],
			"stateMutability": "view",
			"type": "function"
		},
		{
			"inputs": [],
			"name": "end",
			"outputs": [
				{
					"internalType": "uint256",
					"name": "",
					"type": "uint256"
				}
			],
			"stateMutability": "view",
			"type": "function"
		},
		{
			"inputs": [],
			"name": "owner",
			"outputs": [
				{
					"internalType": "address",
					"name": "",
					"type": "address"
				}
			],
			"stateMutability": "view",
			"type": "function"
		},
		{
			"inputs": [
				{
					"internalType": "address",
					"name": "token",
					"type": "address"
				}
			],
			"name": "releasable",
			"outputs": [
				{
					"internalType": "uint256",
					"name": "",
					"type": "uint256"
				}
			],
			"stateMutability": "view",
			"type": "function"
		},
		{
			"inputs": [],
			"name": "releasable",
			"outputs": [
				{
					"internalType": "uint256",
					"name": "",
					"type": "uint256"
				}
			],
			"stateMutability": "view",
			"type": "function"
		},
		{
			"inputs": [
				{
					"internalType": "address",
					"name": "token",
					"type": "address"
				}
			],
			"name": "release",
			"outputs": [],
			"stateMutability": "nonpayable",
			"type": "function"
		},
		{
			"inputs": [],
			"name": "release",
			"outputs": [],
			"stateMutability": "nonpayable",
			"type": "function"
		},
		{
			"inputs": [],
			"name": "released",
			"outputs": [
				{
					"internalType": "uint256",
					"name": "",
					"type": "uint256"
				}
			],
			"stateMutability": "view",
			"type": "function"
		},
		{
			"inputs": [
				{
					"internalType": "address",
					"name": "token",
					"type": "address"
				}
			],
			"name": "released",
			"outputs": [
				{
					"internalType": "uint256",
					"name": "",
					"type": "uint256"
				}
			],
			"stateMutability": "view",
			"type": "function"
		},
		{
			"inputs": [],
			"name": "renounceOwnership",
			"outputs": [],
			"stateMutability": "nonpayable",
			"type": "function"
		},
		{
			"inputs": [],
			"name": "start",
			"outputs": [
				{
					"internalType": "uint256",
					"name": "",
					"type": "uint256"
				}
			],
			"stateMutability": "view",
			"type": "function"
		},
		{
			"inputs": [
				{
					"internalType": "address",
					"name": "newOwner",
					"type": "address"
				}
			],
			"name": "transferOwnership",
			"outputs": [],
			"stateMutability": "nonpayable",
			"type": "function"
		},
		{
			"inputs": [
				{
					"internalType": "uint64",
					"name": "timestamp",
					"type": "uint64"
				}
			],
			"name": "vestedAmount",
			"outputs": [
				{
					"internalType": "uint256",
					"name": "",
					"type": "uint256"
				}
			],
			"stateMutability": "view",
			"type": "function"
		},
		{
			"inputs": [
				{
					"internalType": "address",
					"name": "token",
					"type": "address"
				},
				{
					"internalType": "uint64",
					"name": "timestamp",
					"type": "uint64"
				}
			],
			"name": "vestedAmount",
			"outputs": [
				{
					"internalType": "uint256",
					"name": "",
					"type": "uint256"
				}
			],
			"stateMutability": "view",
			"type": "function"
		},
		{
			"stateMutability": "payable",
			"type": "receive"
		}
	]
}